:020000040800F2
:10000000685B00206D010008F10800085507000832
:10001000ED08000841070008A51D000800000000C9
:10002000000000000000000000000000D5000008F3
:100030004B0700080000000019010008190F000814
:1000400045070008470700080712000800000000E5
:1000500000000000870100085F1000086110000820
:10006000150F00080000000059070008210B0008C8
:10007000A91D000800000000591000085B100008CE
:100080005D1000083D070008000000004907000857
:10009000170F000800000000000000000000000032
:1000A0000000000000000000000000003F07000802
:1000B0004D0700084F0700085107000853070008C4
:1000C000DFF80CD000F04EF9004800476D20000822
:1000D000685B0020224B19680868B0E8F00F80F3D5
:1000E0000988BFF36F8F4FF0000080F311884EF046
:1000F0000D0E70470000000006480068006880F39D
:10010000088862B661B6BFF34F8FBFF36F8F00DF11
:1001100000BF00BF08ED00E0EFF30980BFF36F8F71
:100120000F4B1A6820E9F00F106008B54FF0BF00C0
:1001300080F31188BFF34F8FBFF36F8F03F0ACF8DC
:100140004FF0000080F31188BDE808401968086886
:10015000B0E8F00F80F30988BFF36F8F704700BFDE
:1001600048000020EFF305807047000006488047F4
:1001700006480047FEE7FEE7FEE7FEE7FEE7FEE78C
:10018000FEE7FEE7FEE7FEE7DD0F0008C10000081E
:1001900040EA01039B0703D009E008C9121F08C009
:1001A000042AFAD203E011F8013B00F8013B521E89
:1001B000F9D27047D2B201E000F8012B491EFBD200
:1001C00070470022F6E710B513460A460446194662
:1001D000FFF7F0FF204610BD10B5002200E0521CD2
:1001E000835C8C5CA34201D1002BF8D1D8B2E1B280
:1001F000401A10BD034611F8012B00F8012B002A0C
:10020000F9D11846704730B505460020034600E096
:100210005B1C934205D2EC5CC85C201A01D1002C17
:10022000F6D130BD0FB400B589B00BA800906A4676
:1002300003480A9900F08CF809B05DF814FB00003F
:10024000A00000202DE9FF5FD2E901A74FF00008D0
:10025000916999461446DDF838B0464601988847BA
:10026000054659EA0B0005D009E0A169761C019802
:1002700088470546216A284688470028F5D1681C2A
:1002800003D05FEACA7005D015E04FF0FF3004B02C
:10029000BDE8F09F2068011D2160D0F800800AE0D1
:1002A0005FEACA7001D108F8015BA169761C7F1E64
:1002B000019888470546002F1ADD681C18D0B9F14F
:1002C000000F0DD0E81705EBD060421120F01F00A1
:1002D00059F822102A1A012090400142E0D107E08B
:1002E000BBF1000FDCD1216A284688470028D7D00F
:1002F000E16901988847BBF1000F07D1002E05DDA9
:100300005FEACA7002D1002188F80010A068B842E4
:1003100003DDBBF1000F03D017B16FF00100B6E7AA
:100320003046B4E730B50B460146002020220124B8
:1003300009E021FA02F59D4205D303FA02F5491BB3
:1003400004FA02F52844151EA2F10102F1DC30BDC9
:10035000024B9361024BD36100F032B821200008B8
:10036000A5030008064C074D06E0E06840F00103D5
:1003700094E8070098471034AC42F6D3FFF7A4FE88
:10038000C4420008E4420008094910B508784C1C32
:1003900018B1401E0870205C10BD00210720ABBEC4
:1003A000207010BD02490878421C0A707047000096
:1003B000A8000020026811441378016018467047B5
:1003C000D160044951610449116200211161114653
:1003D00000F00AB8B5030008DD030008C0B24FF40E
:1003E000F05100F097B900002DE9F34F8BB04FF0BA
:1003F000000801F10C000C464FF0010B46460DF1D0
:10040000080A01906269012101989047051E2DD0CC
:10041000252D2CD0216A8847C0B16269012101983D
:100420009047216A88470028F7D1411E62690198E8
:10043000904700E0761CA1690B988847216A88479D
:100440000028F7D1E1690B988847DBE7A1690B9891
:1004500088470746A84201D1761CD3E7E1690B988B
:1004600088477F1C02D1B8F1000F6FD046E100270A
:1004700062693D463946019890472A2804D162694D
:100480000121019890470125DFF8849262690121DA
:1004900001989047A0F130010A290AD24F45E5DCC6
:1004A00007EB870100EB4107303FDFD445F0100533
:1004B000ECE7E90601D46FF000476C280AD04C281D
:1004C00014D0682815D06A280DD074281CD07A283A
:1004D0001AD01DE062690121019890476C2802D072
:1004E00045F0040514E045F002050DE045F0200557
:1004F0000AE06269012101989047682802D045F01E
:10050000080505E045F400656269012101989047FE
:10051000C4E9015765283DD019DC58287AD00CDC95
:10052000452837D004DC252826D0412831D131E0B8
:1005300046282FD047282CD12CE05B2877D0612883
:1005400028D063287CD0642823D15AE0D0E06F28DB
:1005500048D008DC66281DD067281BD0692821D028
:100560006E2816D127E0702845D0732868D07528EA
:1005700047D078280DD14DE0A1690B9888470546F2
:1005800025283FF469AFE1690B9888476D1C3FF45B
:100590006AAFB3E023466A466FF001000B99AFF3F0
:1005A00000809EE045F040006060A80723464FF0C1
:1005B000000236D43EE0E8077FF447AF2068011D13
:1005C00021600068290501D506701BE7290701D5C0
:1005D000068017E7A90703D5F117C0E9006111E705
:1005E00006600FE745F040006060A80723464FF023
:1005F000080216D41EE040F60E0125EA01006060F4
:1006000016E045F040006060A80723464FF00A025C
:1006100007D40FE045F040006060A80708D52346E6
:1006200010226FF001000B99AFF3008059E007E052
:10063000234610226FF001000B99AFF3008050E0C9
:100640004FF000094F464B46632802D05B2806D086
:1006500040E0E80601D40120A06001273AE0626989
:100660000121019890475E2805D14FF00109626988
:10067000494601989047216939B900210A465346F5
:1006800043F82120491C0829FADBB0B3216969B974
:10069000C11700EBD16253110AEB830122F01F0254
:1006A000821A01200B68904003430B6062690121AC
:1006B000019890475D28E8D1B9F1000F09D00020DA
:1006C000514651F82020D24341F82020401C0828F0
:1006D000F7DB02AB224600976FF001000B99FFF7A2
:1006E000B1FD00280CDA401C08D1BBF1000F05D089
:1006F0004FF0FF300DB0BDE8F08FFFE74046F9E75F
:10070000E90701D108F1010806444FF0000B79E632
:10071000CCCCCC0C7F2801D9002208E0064A02EBA1
:100720005002C007127800D1120902F00F02012016
:1007300090400840704700007442000870477047BE
:1007400000BFFEE7704770477047704770477047BB
:100750007047704700BFFEE7704700000EB50121EB
:10076000880500F0C7FB0121C80500F0C3FB01218B
:10077000480600F0BFFB5548554908600420486012
:100780000120087200204872524853490860202016
:1007900048600120087248725048514908600220A0
:1007A000486001200872002048724A484D4908609C
:1007B00040204860012008720020487247484A499A
:1007C00008600820486001200872002048726846CE
:1007D00000F098F93E48808880B2ADF80000012012
:1007E0008DF80A0000208DF808008DF802008DF8C1
:1007F00003008DF8040036490868694600F07AF86D
:10080000684600F07FF93448808880B2ADF8000077
:1008100001208DF80A0000208DF808008DF80200F4
:100820008DF803008DF804002B490868694600F034
:1008300061F8684600F066F92948808880B2ADF812
:10084000000001208DF80A0000208DF808008DF8C6
:1008500002008DF803008DF80400214908686946FC
:1008600000F048F8684600F04DF91E48808880B2D4
:10087000ADF8000001208DF80A0000208DF8080076
:100880008DF802008DF803008DF804001549086802
:10089000694600F02FF8684600F034F91248808865
:1008A00080B2ADF8000001208DF80A0000208DF81C
:1008B00008008DF802008DF803008DF804000A4945
:1008C0000868694600F016F80EBD000000800B4075
:1008D000AC05002000000B40C405002000800C4047
:1008E000DC050020F40500200C06002000BFFEE718
:1008F000704700002DE9FE4F4768D0F808C0D0F8D7
:100900000C80D0F81090D0F814A0CDF808A0D0F842
:1009100018A0CDF804A0D0F81CA0CDF800A00022AB
:10092000012303254FF001160C885FE004F0010A53
:10093000BAF1000F55D027EA030A91F802B00BFA7A
:1009400002FB4AEA0B0791F808A04FEA420B0AFAA9
:100950000BFA2CEA050B4AEA0B0C28EA030A91F879
:100960000AB00BFA02FB4AEA0B0829EA060A91F8D8
:1009700003B002F1100E0BFA0EFB4AEA0B0A91F8D3
:1009800004B00BFA02FB4AEA0B09DDF808A02AEAD8
:10099000060A91F805B00BFA0EFB4AEA0B0A91F829
:1009A00006B00BFA02FB4AEA0B0ACDF808A091F850
:1009B00009A04FEA420B0AFA0BFADDF804B02BEA61
:1009C000050B4AEA0B0ACDF804A0DDF800A02AEADC
:1009D000030A91F807B00BFA02FB4AEA0B0ACDF8BA
:1009E00000A05B00AD007600521C6408002C9DD175
:1009F000DFF8C4A0504502D14FF01F0A01E04FF0CC
:100A0000000A27EA0A0AC0F804A0DFF8ACA05045A3
:100A100002D14FF01F0A01E04FF0000A2CEA0A0A47
:100A2000C0F808A0DFF890A0504502D14FF01F0A8F
:100A300001E04FF0000A28EA0A0AC0F80CA0DFF82B
:100A400078A0504502D14FF01F0A01E04FF0000A94
:100A500029EA0A0AC0F810A0DFF85CA0504502D1CC
:100A60004FF01F0B01E04FF0000BDDF808A02AEA61
:100A70000B0AC0F814A0DFF840A0504502D14FF097
:100A80001F0B01E04FF0000BDDF804A02AEA0B0A6F
:100A9000C0F818A0DFF820A0504502D14FF01F0B7E
:100AA00001E04FF0000BDDF800A02AEA0B0AC0F8C5
:100AB0001CA0BDE8FE8F000000000C400246136839
:100AC0000B400BB1012000E0002070470268054B8D
:100AD000984201D11F2300E000230B439A43026098
:100AE0007047000000000C400268054B984201D19D
:100AF0001F2300E000239A430A430260704700006E
:100B000000000C404FF6FF71018000218170C17020
:100B1000017141718171C1710172417281727047BD
:100B2000704700000149086070470000880040429B
:100B300010B502460C4BD86820F003001043D86073
:100B4000586820F4706040EA01205860074B1B6829
:100B500043B10123054C241D23600023034C883C32
:100B6000C4F88C3010BD00000000024088004042F4
:100B700038B50020009000BF212000F069F905463B
:100B80000098401C00900098B0F5C06F01D2002D75
:100B9000F2D0212000F05CF908B1012400E000242B
:100BA000204638BD01490860704700008801404276
:100BB0000146044AD06820F0F00040EA0110D060FD
:100BC00070470000000002400146034AD06820F44C
:100BD00040700843D0607047000002402DE9FC4F90
:100BE0000146DFF864B2DBF80CB00BF0020BBBF18E
:100BF000000F01D0954B00E0944BDFF84CB2DBF8CE
:100C00000CB00BF0010BBBF1000F00D05B081C46D1
:100C1000DFF834B2DBF80CB00BF0040BBBF1000FC3
:100C20000DD0DFF824B2DBF804B0CBF3032B0BF1CB
:100C3000010BCDF800B0DDF800B004FB0BF4DFF8D9
:100C400008B2DBF80CB0CBF3012BBBF1000F06D0E0
:100C5000BBF1010F08D0BBF1020F28D122E0DFF871
:100C6000ECB1C1F800B027E0DFF8DCB1DBF80CB084
:100C70004FF0080E0EEA1B1BBBF1000F01D1A0467E
:100C80000DE0DFF8C4B1DBF80CB0CBF3021B0BF1C5
:100C9000010B4FF0010E0EFA0BFEB4FBFEF8C1F88B
:100CA000008009E04FF4004BC1F800B004E049F6C1
:100CB000404BC1F800B000BF00BFDFF88CB1DBF8DB
:100CC00010B00BF0020BBBF1000F01D05F4D00E044
:100CD0005E4DDFF874B1DBF810B00BF0010BBBF127
:100CE000000F00D06D082F46DFF85CB1DBF810B0C4
:100CF0000BF0040BBBF1000F0DD0DFF84CB1DBF8AB
:100D000004B0CBF3031B0BF1010BCDF800B0DDF801
:100D100000B007FB0BF7B946DFF82CB1DBF810B0D9
:100D20000BF0100BBBF1000F01D04FEA5909C1F8CD
:100D30000490DFF814B1DBF818B04FEA1B1000F094
:100D4000080BBBF1000F02D1DFF800C10BE000F08F
:100D5000070B0BF1010B4FF0010E0EFA0BF0DFF851
:100D6000ECB0BBFBF0FCC1F80CC0DFF8DCB0DBF88A
:100D7000180000F0080BBBF1000F04D1DFF8CCB075
:100D8000CDF804B00DE000F0070B0BF1010B4FF0B4
:100D9000010E0EFA0BF0DFF8B4B0BBFBF0FBCDF8A0
:100DA00004B0DDF804B0C1F810B0DFF89CB0DBF897
:100DB00014B00BF0030BBBF1000F06D0BBF1010F19
:100DC00005D0BBF1020F06D103E01E4605E02E461A
:100DD00003E0264601E03E4600BF00BFDFF868B0F2
:100DE000DBF814B0CBF3011BBBF1000F06D0BBF155
:100DF000010F06D0BBF1020F08D105E04FF400420D
:100E000006E049F6404203E0324601E0624600BF98
:100E100000BFDFF834B0DBF814B04FEA1B2000F05D
:100E2000080BBBF1000F01D1924609E000F0070B5F
:100E30000BF1010B4FF0010E0EFA0BF0B2FBF0FAC2
:100E4000C1F808A0BDE8FC8F0000024000127A0043
:100E500010B5014601F0E003202B02D1074B1A68C0
:100E600001E0074BDA6B01F01F040123A34013409C
:100E70000BB1012000E0002010BD00000000024086
:100E800000800D400D49896821F003010B4A9160F3
:100E9000012802D002280ED106E00849896841F0F5
:100EA0000101064A916007E00449896841F00301A5
:100EB000024A916000E000BF00BF7047000002409E
:100EC00038B50020009000BF2220FFF7C1FF054683
:100ED0000098401C00900098B0F5C06F01D2002D22
:100EE000F2D02220FFF7B4FF08B1012400E0002473
:100EF000204638BD29B1064AD2690243044BDA6163
:100F000004E0034AD2698243014BDA617047000072
:100F1000000002407047704710B500BFBF2080F34B
:100F20001188BFF34F8FBFF36F8F00BF02F058FCE3
:100F300018B14FF080500449086000BF002080F3D2
:100F4000118800BF10BD000004ED00E030B5204C5A
:100F5000E46804F00204022C01D11E4800E01D48A0
:100F60001B4CE46804F0010404B140080146184C2D
:100F7000E46804F00404042C05D1154C6468C4F33F
:100F80000324631C5943124CE468C4F3012424B1C4
:100F9000012C06D0022C13D10DE00E4C0E4D2C600E
:100FA00013E00B4CE468C4F30314641CB1FBF4F2CB
:100FB000094C226009E04FF40044074D2C6004E026
:100FC00049F64044044D2C6000BF00BF30BD000016
:100FD0000000024000127A009C00002000B50D487D
:100FE0000D49C8610846C0680020C86008464068CE
:100FF0000020486008468068002088600846006934
:10100000002008610846406900204861FFF79EFF04
:1010100000BD0000100000080000024015E00023A1
:101020005A1E0A490A48006802F0A8F901280CD1A2
:1010300000BF8021074800F06DF80128F9D103486E
:10104000008881B2034800F0DBF8E8E728000020C0
:1010500008000020008003407047704770477047C9
:1010600010B510210F4800F05DF8012803D11021C0
:101070000C4800F03FF80B4800F0BEF80A49087031
:1010800000230A4A0A48006802F0F2FA074800689A
:1010900038B14FF0805007490860BFF34F8FBFF35E
:1010A0006F8F10BD0080034010000020140000204E
:1010B0000400002004ED00E002460B4B986A0B4B45
:1010C0009A4205D140F0807020F0FF00084308E00C
:1010D000074B9A4205D140F0007020F47F4040EA6F
:1010E0000120014B9862704700000240000003405D
:1010F00000800340426C0A434264704721B1026B96
:1011000042F00102026304E0026B4FF6FE731A40E4
:1011100002637047024693690B400BB1012000E067
:10112000002070470246136C0B400BB1012000E019
:10113000002070471AB1836B0B43836302E0836B1B
:101140008B438363704700002DE9F04F87B004465E
:101150000D4601A8FFF742FD019F2448866A2448F6
:10116000844206D106F0070101208840B7FBF0F762
:1011700008E02048844205D1C6F3022101208840BE
:10118000B7FBF0F728688008B7FBF0F94FEA991829
:1011900009F03F0AB8000AEB8811B0FBF1FB2868A0
:1011A000ABEB0000C0012968B0FBF1F00690069897
:1011B000022803D9002007B0BDE8F08FC4F82480CE
:1011C000C4F828A0E66AA888E98808432989084362
:1011D000698908430643E662266B4FF680708643B2
:1011E000A889064326630120E5E7000000000240CD
:1011F00000000340008003400146086880B2704749
:10120000CAB202607047704710B5002008490870E4
:101210000846007800F0B8F90649086008460068FA
:1012200020B103210348006800F0E2FB10BD00007C
:10123000180000202400002090B000250024202168
:101240006846FEF7BEFF27E1002403E020200DF8EA
:101250000400641C1E2CF9DB0025002408A98FA0C3
:10126000FEF7E0FF8FA108A8FEF7B6FFE0B990A057
:1012700000F09CFD3F208DF8000063208DF80100F8
:1012800061208DF8020021208DF8030000BF08E0E6
:101290000DEB040100231A468B48006802F05CF94C
:1012A000641C052CF4DBF6E088A108A8FEF794FF87
:1012B000E0B988A000F07AFD3F208DF8000063209F
:1012C0008DF801006C208DF8020021208DF80300BC
:1012D000002408E00DEB040100231A467A48006858
:1012E00002F03AF9641C052CF4DBD4E00A227EA15A
:1012F00008A8FEF788FF002834D17EA000F056FD34
:101300003F208DF8000070208DF801006C208DF8D2
:1013100002000B24042505E008A8005D0DF8050077
:101320006D1C641C08A8005D2228F5D1A41C08A827
:10133000005D8DF803006D1C21200DF80500694645
:1013400072A000F033FD002408E00DEB040100233F
:101350001A465D48006802F0FFF8641CA81C84422D
:10136000F3DB98E005226DA108A8FEF74CFF0028EA
:1013700055D16CA000F01AFD3F208DF800007020C0
:101380008DF8010063208DF802009DF826008DF88D
:1013900003009DF82A002C280ED131208DF804007E
:1013A0009DF829008DF805009DF82B008DF80600AA
:1013B00021208DF8070020E09DF82900312818D160
:1013C0009DF82A00302814DB9DF82A0043F23511DD
:1013D00088420EDC32208DF804009DF82A008DF83A
:1013E00005009DF82C008DF8060021208DF80700DF
:1013F00003E051A000F0DAFC4EE0694643A000F0A3
:10140000D5FC002408E00DEB040100231A462E4809
:10141000006802F0A1F8641C072CF4DB3BE0052215
:101420004BA108A8FEF7EFFE88BB4BA000F0BEFC66
:10143000052508A8405D302825DB08A8405D39282F
:1014400021DC08A9681C085CE8B93F208DF8000081
:1014500070208DF8010067208DF8020008A8405D1B
:101460008DF8030021208DF80400002408E00DEB26
:10147000040100231A461448006802F06DF8641C49
:10148000052CF4DB07E039A000F090FC03E0FFE757
:101490003AA000F08BFC00BFD6E600002533307385
:1014A00000000000434C4541525F414C4C0000009D
:1014B00022434C45415220414C4C2220495320525A
:1014C0004541440D0A0000000C000020434C4541FA
:1014D0005200000022434C454152222049532052E1
:1014E0004541440D0A000000505554535452494E92
:1014F000473D000022505554535452494E47222034
:10150000495320524541440D0A000000434F4D4DC0
:10151000414E442049532025730D0A005055544331
:101520003D0000002250555443222049532052458B
:1015300041440D0A000000004E554D4245522049DD
:101540005320494E434F52524543540D0A00000068
:10155000504147453D000000225041474522204967
:101560005320524541440D0A0000000022504147DB
:101570004522206572726F720D0A00000A0D434DFC
:1015800044204552520A0D00014631B1012906D0CE
:10159000022906D0032908D105E005A0704706A05E
:1015A000FCE707A0FAE708A0F8E70020F6E700004C
:1015B000CFF3EDEAF2203000CFF3EDEAF220310074
:1015C000CFF3EDEAF2203200CFF3EDEAF220330060
:1015D00008B50020009002F0FDF800BF44E01420A0
:1015E00001F084FD214800F0DDFC01281BD11F48DB
:1015F00001F026FA3F208DF800006C208DF80100E4
:1016000062208DF8020021208DF80300002408E0FC
:101610000DEB040100231A461548006801F09CFFF9
:10162000641C052CF4DB134800F0BCFC01281BD122
:10163000104801F005FA3F208DF8000072208DF867
:10164000010062208DF8020021208DF803000024A3
:1016500008E00DEB040100231A460548006801F07C
:101660007BFF641C052CF4DBB9E700000C060020AE
:101670000C000020F405002070B50546002404E0AD
:10168000E1B2284600F004F8641C082CF8DB70BDB9
:1016900070B505460E463146284600F0B3FA0021E3
:1016A000284600F025FA00240CE000BF284600F090
:1016B000BBF900F080000028F8D10021284600F096
:1016C00009FB641C402CF0DB70BD08B5009000BF26
:1016D00000994A1E00920029FAD108BD10B50446AF
:1016E000012C04D180212C48FFF7FEF904E04FF4CF
:1016F00080712948FFF7F8F901212848FFF7E6F93A
:101700004FF480612448FFF7E1F90520FFF7DDFF82
:101710002348406840F03F00214948602148406824
:1017200040F00C001F4948603F2000F049FA0520B6
:10173000FFF7CBFF02211948FFF7D6F90520FFF785
:10174000C4FF02211548FFF7C1F90520FFF7BDFFCF
:1017500001211248FFF7BAF94FF480610E48FFF7F4
:10176000B5F90F4840684FF6C07108400C49486011
:101770000C4840684FF6F37108400A494860012C54
:1017800004D180210448FFF7A1F904E04FF48071EF
:101790000148FFF79BF910BD00000B4000800B4093
:1017A00000800A4000800E4008B500F053F800F0B9
:1017B0002FF800BF012000F037F900F0800000286A
:1017C000F8D10120FFF78AFF00BF022000F02CF9BA
:1017D00000F080000028F8D10220FFF77FFF0120F1
:1017E000FFF74AFF0220FFF747FF01210648006884
:1017F00000F0FEF801200346002211460090034845
:1018000000F0B0F808BD0000980000205442000825
:1018100010B54FF400710E48FFF758F9C820FFF7D4
:1018200054FF4FF400710A48FFF75EF90520FFF7F7
:101830004CFF00BF012000F0F7F800F0900030B13D
:10184000022000F0F1F800F090000028F2D110BD65
:1018500000000B400EB501211C48FFF74BFB002098
:101860008DF803008DF804008DF805008DF8060052
:101870008DF807003F20ADF8000000208DF8020031
:101880008DF8080001208DF80A0003208DF809006A
:1018900069460F48FFF72EF80C20ADF800006946A6
:1018A0000C48FFF727F84FF4F060ADF80000012076
:1018B0008DF8020069460848FFF71CF80320ADF8D0
:1018C000000069460548FFF715F80EBD0000E0204E
:1018D00000800A4000800E4000000B4000800B405A
:1018E0002DE9F05F05460C4691462046E11704EBD2
:1018F0005171C9104E1CCA462046E11704EB5171C4
:10190000C910A4EBC1014FEAC10B0AF0FF01F0B20C
:1019100000F078F90BF0FF01F0B200F0E9F8202DAB
:1019200006DBFF2D04DCA5F120004FEAC00801E032
:101930004FF0000847460DE000BFF0B200F074F829
:1019400000F080000028F8D1054AD15DF0B200F027
:10195000C1F97F1C08F108008742EDDBBDE8F09F6C
:10196000543B00082DE9FF4F83B0804689469246DC
:101970004FF0000B4E4635E054462FE02046E1176D
:1019800004EB5171C9104D1C0296E11704EB517123
:10199000C910A4EBC101CA000192029EF1B2E8B2E3
:1019A00000F030F9019AD1B2E8B200F0A1F80027B6
:1019B0000FE000BFE8B200F037F800F08000002828
:1019C000F8D10BEB070218F80210E8B200F082F928
:1019D0007F1C082FEDDB0BF1080B641C1098844270
:1019E000CCDD761C06988642C6DD07B0BDE8F08FD8
:1019F00070B505460E46002408E0285D00B907E0F2
:101A0000285D32462146FFF76BFF641C102CF4DB87
:101A100000BF05E0324621462020FFF761FF641C2D
:101A2000102CF7DB70BD000070B504462C484068F0
:101A30004FF6C07108402A4948602A4840684FF66E
:101A4000F371084027494860012C04D180212648C1
:101A5000FFF74AF804E04FF480712348FFF744F899
:101A600001212248FFF732F84FF480611E48FFF74A
:101A70003BF80520FFF729FE02211C48FFF734F848
:101A80000520FFF722FE1648006800F03F001549C8
:101A90000968C02202EA011140EA01050520FFF7AA
:101AA00014FE02211148FFF711F80520FFF70DFE83
:101AB00001210E48FFF70AF84FF480610A48FFF74A
:101AC00005F8012C04D180210748FEF7FFFF04E050
:101AD0004FF480710448FEF7F9FF284670BD0000FE
:101AE00000800A4000800E4000000B4000800B4048
:101AF00070B504460D46012C04D180212C48FEF718
:101B0000F3FF04E04FF480712948FEF7EDFF012157
:101B10002848FEF7DBFF4FF480612548FEF7D6FF2B
:101B20000520FFF7D2FD2448406840F03F002249DD
:101B300048602248406840F00C002049486045F069
:101B4000400000F03DF80520FFF7BFFD02211948D5
:101B5000FEF7CAFF0520FFF7B8FD02211548FEF782
:101B6000B5FF0520FFF7B1FD134840684FF6C0717F
:101B7000084011494860114840684FF6F371084029
:101B80000E49486001210B48FEF7A0FF4FF4806129
:101B90000748FEF79BFF012C04D180210448FEF783
:101BA00095FF04E04FF480710148FEF78FFF70BD90
:101BB00000000B4000800B4000800A4000800E4077
:101BC0000E4909684FF6C07211400C4A1160114667
:101BD000096800F03F021143084A1160084909688A
:101BE0004FF6F3721140064A1160114609680C2243
:101BF00002EA20121143024A1160704700800A4035
:101C000000800E4070B504460D46012C04D18021A1
:101C10002C48FEF769FF04E04FF480712948FEF775
:101C200063FF01212848FEF751FF4FF480612548EA
:101C3000FEF74CFF0520FFF748FD2448406840F0C0
:101C40003F00224948602248406840F00C0020498B
:101C5000486045F0B800FFF7B3FF0520FFF735FDFA
:101C600002211948FEF740FF0520FFF72EFD022153
:101C70001548FEF72BFF0520FFF727FD13484068A6
:101C80004FF6C071084011494860114840684FF64E
:101C9000F37108400E49486001210B48FEF716FF1A
:101CA0004FF480610748FEF711FF012C04D1802119
:101CB0000448FEF70BFF04E04FF480710148FEF783
:101CC00005FF70BD00000B4000800B4000800A4003
:101CD00000800E4070B504460D46012C04D18021D1
:101CE0002C48FEF701FF04E04FF480712948FEF70D
:101CF000FBFE01212848FEF7F7FE4FF480612548DE
:101D0000FEF7E4FE0520FFF7E0FC2448406840F0C1
:101D10003F00224948602248406840F00C002049BA
:101D200048602846FFF74CFF0520FFF7CEFC022154
:101D30001948FEF7D9FE0520FFF7C7FC0221164817
:101D4000FEF7C4FE0520FFF7C0FC144840684FF6BC
:101D5000C071084011494860114840684FF6F3715E
:101D600008400F49486001210B48FEF7AFFE4FF4D1
:101D700080610848FEF7AAFE012C04D180210548A5
:101D8000FEF7A4FE04E04FF480710248FEF79EFEC9
:101D900070BD000000000B4000800B4000800A4036
:101DA00000800E4000BFFEE7704700000FB4054BF7
:101DB00010B503A9044A029800F018F810BC5DF8A9
:101DC00014FB000045200008A400002002E008C821
:101DD000121F08C1002AFAD170477047002001E0A5
:101DE00001C1121F002AFBD1704700002DE9FF4FEF
:101DF0008BB09A460F460546002606E025280BD0F4
:101E000052460D9990476D1C761C28780028F5D114
:101E10000FB03046BDE8F08F0024A0460122604993
:101E200000E0044315F8013F203B02FA03F00842AA
:101E3000F7D128782E2817D115F8010F44F00404A3
:101E40002A280ED06FF02F022878A0F1300109293E
:101E50000AD808EB880102EB410100EB01086D1C78
:101E6000F2E757F8048B6D1C287869283ED006DC11
:101E70000028CDD063280BD0642804D136E0732825
:101E800010D075284BD052460D999047761C85E0AE
:101E900017F8040B8DF8000000208DF80100E946CA
:101EA000012003E057F8049B4FF0FF3061074FF02B
:101EB000000401D40AE0641C44450DDA8442FADBD4
:101EC00019F804100029F6D106E0641C8442FCDBFA
:101ED00019F804100029F8D1264404E019F8010B80
:101EE00052460D999047641EF8D257E001CF4FF04B
:101EF0000A0B002802DA40422D2102E0210504D518
:101F00002B218DF82410012103E0E10705D02021C9
:101F1000F7E70DF1200908910CE00021F9E701CF66
:101F20004FF00A0BF9E75946FEF7FCF901F13002D0
:101F300009F8012D0028F6D1ADEB090000F1200BC6
:101F4000600701D44FF00108D84502DDA8EB0B0073
:101F500000E000208046002406E009A85246005D0B
:101F60000D999047641C761C08988442F5DB04E0C8
:101F7000302052460D999047761CB8F10001A8F127
:101F80000108F5DC05E019F8010B52460D99904760
:101F9000761CBBF10001ABF1010BF4DC6D1C34E7E6
:101FA0000928010010B50446207A012806D002282D
:101FB0000FD0032816D004282FD11FE0D4E9000148
:101FC000FEF77CFD20B90220207201F003FCE060E6
:101FD00023E001F0FFFBE168401A142801D9032037
:101FE00020721AE0D4E90001FEF768FD012804D14F
:101FF0000420207201F0EEFB20610EE001F0EAFB0C
:102000002169401A142807D901202072D4E903104D
:10201000401A60610120607200BF00BF607A10BD8D
:1020200038B5044600235A1E69460548006801F089
:10203000A5F9012802D19DF8000038BD0020FCE779
:102040000400002038B504460D46E0B2009000239D
:102050001A4669460248006801F07EFA204638BDFB
:102060000800002010B500F0EEFC10BD1CB5FFF715
:10207000F9FFFEF773FBFFF797FBFFF7C5F800F0DA
:1020800003FD002201214FF4706001F05BF91E494D
:10209000086000220121C80201F054F91B490860C0
:1020A000002201214FF4706001F04CF918490860DA
:1020B0000020022103468022CDE9001015A1174817
:1020C00001F048FB0020022103468022CDE90010E8
:1020D00013A1154801F03EFB002001210346802298
:1020E000CDE9001011A1134801F034FB00200121BB
:1020F00003468022CDE900100FA1114801F02AFB10
:1021000001F08AF800201CBD040000200800002017
:102110000C0000205461736B31000000D1150008E1
:102120005461736B33000000391200085461736B03
:10213000350000001D1000085461736B360000006C
:10214000912C00082DE9F04105460E461648076817
:1021500016480068001D00F003FD681C38B936B150
:1021600012480168091D124800F039FD1AE07C1977
:102170000E4800684460BC4207D20C480168091D43
:102180000C48006800F011FD0CE008480168091DCA
:102190000948006800F009FD08480068844201D23F
:1021A00006480460BDE8F0815C0000204800002083
:1021B00028570020500000204C000020780000200C
:1021C00010B5044600F018FD22480068401C214963
:1021D00008602148006840B91F480460084600684C
:1021E00001280DD100F0AAF90AE01C48006838B9AE
:1021F00019480068C06AE16A884201D8164804603C
:1022000017480068401C164908601649E06A0968CA
:10221000884202D91349E06A0860E16A01EB810152
:10222000114A02EB8100211D00F0D9FC00F0F6FC00
:102230000A48006868B108480068C06AE16A8842D4
:1022400007D24FF0805009490860BFF34F8FBFF3AA
:102250006F8F10BD5800002048000020640000204F
:1022600074000020600000207456002004ED00E09F
:1022700010B500F0C1FC10480068D0B90F4800F05C
:1022800084FC0F4800F081FC0C480E4908600C48A3
:102290000D49086000220C210A2001F053F806497C
:1022A00008600846006820B108A10348006800F0F3
:1022B000E1FE00F0B3FC10BD8C0000203C57002074
:1022C000505700208400002088000020546D725177
:1022D0000000000070B523E000F0D6FF134800684E
:1022E00008B9012000E00020054601F06BFBBDB9F4
:1022F00000F082FC0D48C068C468201D00F030FC6E
:102300000B480068401E0A4908600A480068401EE1
:102310000849086000F082FC204600F060F800BF29
:10232000044800680028D7D170BD00001457002071
:10233000580000205400002070B504460D46206C63
:1023400070B1216CE0680844E0606168E068884230
:1023500001D32068E0602846226CE168FDF718FF91
:1023600070BD2DE9F04104460F4615464FF00008B8
:10237000A66B206C40B9206860BB606801F0B2FABF
:1023800080460020606025E07DB93946226CA06857
:10239000FDF7FEFE216CA0680844A060D4E901109E
:1023A000884217D32068A06014E03946226CE068A8
:1023B000FDF7EEFE216CE068401AE0602168E068FD
:1023C000884203D2216C6068401AE060022D01D17E
:1023D00006B1761E701CA0634046BDE8F08110B5C2
:1023E0000446206B00F02AFC204600F027FC10BDBC
:1023F0000146084A126812680AB9012200E0002268
:102400000A600A6822B9034A1268D268106800E0BC
:1024100000207047840000200A4A22F007000A4A80
:1024200010600022084B5A6044F6F872074B5A605D
:1024300000221A60014644F6F8724A601A460A60A1
:10244000704700002C0600202C00002034000020E3
:1024500000BFFFF73FFF07480068012807D94FF08A
:10246000805005490860BFF34F8FBFF36F8F00F0B6
:102470008BFBEEE77456002004ED00E02DE9F041FF
:1024800006460D4617469846069C0DB9246000E0A6
:102490002760E66325640121204601F01DF8BDE8B0
:1024A000F0812DE9FF5F80460F469146DDE90E6A17
:1024B000109CA9F10100216B01EB800B2BF0070BA5
:1024C000002507E0795D04F134004155785D00B9DD
:1024D00002E06D1C102DF5D300BF002143200155F3
:1024E000052E00D30426E66266640020A064201D49
:1024F00000F058FB04F1180000F054FB2461C6F111
:102500000500A0616462002505E0002104F14C0093
:1025100040F825106D1C052DF7D30020206684F8A7
:10252000640041465846039A00F078FA2060BAF1F8
:10253000000F01D0CAF80040BDE8FF9F10B500248D
:1025400007E004EB84010F4A02EB810000F01DFB61
:10255000641C052CF5D30C4800F017FB0B4800F069
:1025600014FB0B4800F011FB0A4800F00EFB0A4870
:1025700000F00BFB0448094908600448084908605A
:1025800010BD000074560020D8560020EC560020E4
:102590000057002014570020285700204C0000202E
:1025A000500000202DE9F04104460D4616461F4616
:1025B0004FF0000865602461B5420CD8F01BA1699A
:1025C000884202D34FF0010811E0211D094800683C
:1025D00000F0EBFA0BE0BE4204D2BD4202D34FF052
:1025E000010804E0211D0448006800F0DEFA4046BE
:1025F000BDE8F081880000208400002070B5054609
:1026000000F0FAFAA86B08B9012400E0002400F0F9
:1026100005FB204670BD70B5054600F0EDFAA86BCD
:10262000E96B884201D1012400E0002400F0F6FAB1
:10263000204670BDF8B505460E4610480068C068D3
:10264000C468201D00F08CFAE069012811D1A0694E
:1026500041192B4632462046FFF7A4FF48B100201F
:1026600003462A4601460090204601F03DFA0746FF
:1026700000BF2046616A8847F8BD00008400002042
:1026800070B586B04DE0039800284ADB059C606970
:1026900008B9012000E0002010B9201D00F060FA08
:1026A00002A800F09FF8054603980A2837D2DFE811
:1026B00000F00905072527320608262800BF00BFBD
:1026C00000BF00BF0498A269811803462A4620462D
:1026D000FFF768FF88B12046616A8847E0690128F2
:1026E0000BD1002000900498A169421800231946DC
:1026F000204601F0F9F9064600BF11E000BF0FE0E7
:1027000000BF0498A061A06941192B462A462046C3
:10271000FFF748FF04E0204600F090FA00E000BF19
:1027200000BF00231A4603A90348006800F026FEF4
:102730000028A8D106B070BD8C000020F8B5054671
:102740000C4600F0A1FD684600F04CF806460098E3
:1027500020BB44B9B54206D801F034F931462846C9
:10276000FFF768FF1CE03CB10E480068006808B93C
:10277000012000E000200446A91B22460A48006808
:1027800000F08EFC01F01EF950B94FF0805007495F
:102790000860BFF34F8FBFF36F8F01E001F012F9B4
:1027A000F8BD0000880000208C00002004ED00E04F
:1027B0000A490968096809B9012100E0002121B12D
:1027C0004FF0FF31064A116006E004490968C96804
:1027D000C868034A41681160704700004C0000203F
:1027E0007800002070B5044600F0F4FF0546074865
:1027F0000068854204D200F00BF80120206001E05F
:102800000020206001480560284670BD940000202B
:102810002DE9F84326E01D480068C06805681B489C
:102820000068C068C468201D00F09AF92046616AFB
:102830008847E069012815D1A0694619AE4207D939
:1028400066602461211D1148006800F0AEF909E0BE
:10285000002003462A4601460090204601F044F934
:10286000804600BF09480068006808B9012000E000
:1028700000200028CFD005480768054800680349B4
:10288000086003480760BDE8F8830000840000206A
:102890008800002000BFBF2080F31188BFF34F8F56
:1028A000BFF36F8F00BF00BFFEE708B500BF6846EB
:1028B000FFF79EFD044620460099FFF73FFFFFF714
:1028C000DFFEF4E770B5044600F096F994F9455040
:1028D00010E0606A08B9012000E0002038B904F176
:1028E000240001F02FF818B100F01AFC00E003E01A
:1028F000681E45B2002DECDC00BFFF2084F84500C7
:1029000000F08CF900F078F994F9445010E0206957
:1029100008B9012000E0002048B904F1100001F0DE
:1029200011F808B100F0FCFB681E45B200E001E0C0
:10293000002DECDC00BFFF2084F8440000F06EF9AD
:1029400070BD00002DE9F04104464FF0000800F092
:102950009BFC2648006820B9FFF75EFD0120234953
:10296000086044B1083404F0070020B104F0070007
:10297000C0F108000444002C32D044F6F8708442C0
:102980002ED21B4F3846056801E02F462D68686837
:10299000A04202D228680028F7D1164885421FD0ED
:1029A000386800F10808286838606868001B10283B
:1029B00010D92E196868001B70606C6071680C4833
:1029C00000E00068026852688A42FAD30268326006
:1029D000066000BF084968680968081A0649086067
:1029E00000F0F0FF4046BDE8F0810000400000200C
:1029F0002C000020340000203C0000200648006825
:102A000030B10549096801F14800896C491C016031
:102A1000014800687047000048000020001F4FF088
:102A200080730360001F21F001030360001F034B4C
:102A300003601438026020387047000095280008B1
:102A400000214172704710B50120FEF71BFAFEF716
:102A500037FA012814D109210220FEF769F8012074
:102A6000FEF760F8FEF784F8012809D10020FEF790
:102A70009FF80120FEF796F84FF48070FEF7A4F857
:102A8000FEF764FA10BD000000B587B001214807C9
:102A9000FEF730FA01214807FEF72CFA00208DF8E6
:102AA00013008DF814008DF815008DF816008DF8C0
:102AB000170003208DF818008DF8190001208DF8FB
:102AC0001A0000208DF812000120ADF8100004A9B2
:102AD0002148FDF70FFF01208DF812000220ADF80C
:102AE000100004A91C48FDF705FF01218020FEF716
:102AF00001FA00211948FEF7DFFA0720002809DB58
:102B000000F01F02012191404209920002F1E022EF
:102B1000C2F8001100BF4FF4E13000906020ADF822
:102B200004000020ADF80600ADF80800ADF80A007A
:102B30004FF44070ADF80C0069460848FEF704FBFE
:102B4000012210210548FEF7F5FA01210348FEF79E
:102B5000D5FA07B000BD000000800E4000800340A1
:102B600001460A69D1E901309860D1E90103586052
:102B70005068884201D18868506000200861106860
:102B8000401E106010687047704700F108014160F6
:102B90004FF0FF31816000F10801C1600161002147
:102BA0000160704700210161704710B502460B6853
:102BB0005C1C0CB9106907E002F1080000E04068F5
:102BC000446824689C42FAD944684C604C68A1600F
:102BD000886041600A611468641C146010BD42681A
:102BE0004A6093688B6093685960916008610368DC
:102BF0005B1C03607047000000BFBF2080F311889A
:102C0000BFF34F8FBFF36F8F00BF03480068401CB6
:102C10000149086070470000440000200648006831
:102C2000401E054908600846006820B9002080F36E
:102C3000118800BF00BF70474400002070B50646F1
:102C40003546B6B1083D2C4600F01EFB61680948C8
:102C500000E00068026852688A42FAD30268226083
:102C6000046005496068096808440349086000F089
:102C7000A9FE70BD2C0000203C00002003484FF04E
:102C8000E021486107200861704700007F3801009B
:102C90008AB00026002008900490059006900790C6
:102CA00000240025002730208DF8200000BF1DE003
:102CB000002410E0002703E020200DF807007F1C0F
:102CC000102FF9DBB24901EBC51101EB0410694685
:102CD000FDF790FA641C082CECDB05F13000C1B262
:102CE000AB4800EBC51080F87F106D1C0A2DDFDBB0
:102CF0004DE100231A4609A9A648006800F03EFBF2
:102D000001281AD19DF824003F2801D1002613E0A4
:102D1000122E11DA9DF8240021280DD0022E05DA9A
:102D20009DF8240008A98855761C05E09DF824101C
:102D3000B01E04AA1154761C29E1022296A108A80B
:102D4000FDF761FA50B99DF81000303893490860DA
:102D50000846016892A0FFF729F805E1022296A132
:102D600008A8FDF750FAB8B98C48006800280ADDB9
:102D70008A480068401E89490860084601688FA09B
:102D8000FFF714F8F0E0092084490860084601685C
:102D90008AA0FFF70BF8E7E002228EA108A8FDF752
:102DA00032FAB8B97D48006809280ADA7B48006819
:102DB000401C7A4908600846016880A0FEF7F6FFCB
:102DC000D2E0002075490860084601687BA0FEF744
:102DD000EDFFC9E0022280A108A8FDF714FA98B916
:102DE0007EA0FEF7E3FF00240BE069496B4A1268FE
:102DF00001EBC21101EB041020221021FDF7DAF9DA
:102E0000641C082CF1DBAFE0022279A108A8FDF7D1
:102E1000FAF9002838D177A0FEF7C8FF00250EE0A8
:102E2000002409E05A4901EBC51101EB04102022EE
:102E30001021FDF7BFF9641C082CF3DB6D1C0A2D73
:102E4000EEDB00251DE0002410E0002703E0202039
:102E50000DF807007F1C102FF9DB4D4901EBC51160
:102E600001EB04106946FDF7C5F9641C082CECDB86
:102E700005F13000C1B2464800EBC51080F87F1064
:102E80006D1C0A2DDFDB6FE002225FA108A8FDF7B1
:102E9000BAF9002848D15DA0FEF788FF9DF811001F
:102EA000A0F130049DF81200A0F130059DF810103B
:102EB0005AA0FEF77BFF9DF8111058A0FEF776FF91
:102EC0009DF8121055A0FEF771FF9DF8131053A046
:102ED000FEF76CFF9DF8141050A0FEF767FF08AADC
:102EE00004A94FA0FEF762FF9DF81100312808D118
:102EF0009DF81200A0F130049DF81300A0F13005F8
:102F000007E09DF81200A0F126049DF81300A0F13F
:102F100030059DF810001E49204A126801EBC211CD
:102F200001EB051108551FE0022246A108A8FDF794
:102F30006AF9C8B944A0FEF739FF04A946A0FEF714
:102F400035FF08A947A0FEF731FF9DF81000A0F15A
:102F500030050F49114A126801EBC21101EB05104F
:102F60000DF11101FDF746F900240AE008490B4A6A
:102F7000126801EBC21101EB04102146FEF738FD87
:102F8000641C082CF2DB30208DF8200000BFB0E676
:102F9000AC0000200C000020706700000000002042
:102FA00063757272656E745F706167652069732006
:102FB00025640D0A000000006C6200000A0D4375D4
:102FC0007272656E74207061676520697320256474
:102FD0000A0D000072620000636C0000706167659A
:102FE00020495320434C45415245440A0D000000FE
:102FF00063610000414C4C20495320434C454152F1
:1030000045440A0D0000000070630000434841522F
:10301000204953205345540A0D0000002563000049
:103020000D0A4D4553534147452049532025730D03
:103030000A434D445F4D53472069732025730D0AA1
:1030400000000000706C00004C494E452050555463
:1030500045440A0D000000006D7367206973202548
:10306000730D0A00636D64206D73672069732025FA
:10307000730D0A00024600200BE0084B53F8303075
:1030800033B9064B43F8301003EBC0035A6002E03B
:10309000401C0A28F1D300BF7047000024560020CE
:1030A0002DE9F04105460E4617462C46FFF7A4FDD4
:1030B00094F94400401C10B9002084F8440094F9AD
:1030C0004500401C10B9002084F84500FFF7A6FD1C
:1030D000A06B28B93A46314604F1240000F036F8D6
:1030E0002046FFF7EFFBBDE8F081000070B5044615
:1030F000002544B100F0C8F800212046FFF722F86F
:1031000000F060FC05463DB94FF08050034908606F
:10311000BFF34F8FBFF36F8F70BD000004ED00E071
:1031200001200149086070476C00002070B5054619
:103130000C460548016818312846FFF736FD012185
:103140002046FEF7FFFF70BD4800002070B5064620
:103150000D4614460648016818313046FFF73FFD1A
:103160000CB14FF0FF3521462846FEF7EBFF70BD4E
:103170004800002070B505462C46002D39D01D4969
:10318000E06A0968C96A884233D2A06900F0004049
:1031900028B918480068C06AC0F10500A061E16A5A
:1031A00001EB8101144A02EB81016069884201D17F
:1031B000012000E00020C0B1201DFFF7D1FC0D4828
:1031C0000068C06AE0620D49E06A0968884202D975
:1031D0000A49E06A0860E16A01EB8101064A02EBF4
:1031E0008100211DFFF7FBFC03E002480068C06A74
:1031F000E06270BD4800002074560020600000208E
:10320000034909680160034909684160704700008B
:10321000700000205C0000201CB5144800210B4603
:103220008022CDE9001012A1134800F093FA044661
:10323000012C02D100F03AFC0446012C14D100BF4D
:10324000BF2080F31188BFF34F8FBFF36F8F00BF94
:103250004FF0FF300949086001200949086000204B
:103260000849086000F054F81CBD00007C000020F4
:1032700049444C450000000051240008780000201B
:10328000640000205C00002002480068401C0149E6
:1032900008607047800000201848006818B10120BD
:1032A0001749086028E000201549086015480168A2
:1032B00000E0491E01EB8100134A52F8200008B9D2
:1032C000012000E000200028F3D101EB81020E4B29
:1032D00003EB820042685268426000F108024368D2
:1032E000934202D14268526842604268D268074BFA
:1032F0001A600448016000BF704700008000002091
:103300006C0000206000002074560020480000205F
:1033100010B50A48006840F47F0008490860084674
:10332000006840F07F400860FFF7A8FC00200449D7
:103330000860FCF7E1FE002010BD000020ED00E079
:10334000440000202DE9F84307460D4690460DB98C
:10335000002601E007FB05F606F14800FFF7F2FA48
:10336000044644B104F1480943464A4629463846D2
:103370000094FFF783F82046BDE8F8832DE9FF4766
:1033800082B0054689461E464FF0000A2C4600BF13
:10339000FFF732FCD4F83880B8F1000F3BD0E76873
:1033A00049462046FEF7C8FFDEB9A8F10100A06338
:1033B000206810B9FFF722FB6060206908B901207E
:1033C00000E0002008BB04F1100000F0BBFAE0B1FF
:1033D0004FF080503F490860BFF34F8FBFF36F8FAE
:1033E00013E0E760606A08B9012000E0002060B9DE
:1033F00004F1240000F0A6FA38B14FF080503549AE
:103400000860BFF34F8FBFF36F8FFFF707FC0120FA
:1034100006B0BDE8F087049818B9FFF7FFFB00205D
:10342000F6E7BAF1000F04D16846FFF7E9FE4FF066
:10343000010AFFF7F3FBFFF727FFFFF7DDFB94F926
:103440004400401C10B9002084F8440094F9450061
:10345000401C10B9002084F84500FFF7DFFB04A9E9
:10346000684600F049F940BB2046FFF7C7F8F0B1C5
:10347000206830B9FFF7C0FB6068FFF77BFEFFF7FD
:10348000CDFB04F124000499FFF750FE2046FFF71E
:1034900019FA00F097FA00287FF47AAF4FF08050C5
:1034A0000C490860BFF34F8FBFF36F8F70E7204662
:1034B000FFF708FA00F086FA6AE72046FFF702FAFB
:1034C00000F080FA2046FFF799F80028EED000209F
:1034D0009EE7000004ED00E070B505460E462C4660
:1034E000FFF78AFBD4E90F12206801FB020060603D
:1034F0000020A0632068A060E06B401E226C216861
:1035000000FB0210E060FF2084F8440084F84500CE
:103510009EB9206908B9012000E00020A8B904F193
:10352000100000F00FFA80B14FF080500949086098
:10353000BFF34F8FBFF36F8F07E004F11000FFF769
:1035400024FB04F12400FFF720FBFFF767FB0120B9
:1035500070BD000004ED00E02DE9FF4383B0074695
:1035600088461D464FF000093C4600BFFFF744FB6C
:10357000A06BE16B884201D3022D28D12A46414637
:103580002046FEF7EEFE0646606A08B9012000E01C
:10359000002068B904F1240000F0D4F988B14FF09C
:1035A000805032490860BFF34F8FBFF36F8F08E040
:1035B0003EB14FF080502D490860BFF34F8FBFF3ED
:1035C0006F8FFFF72BFB012007B0BDE8F083059854
:1035D00018B9FFF723FB0020F6E7B9F1000F04D17B
:1035E00001A8FFF70DFE4FF00109FFF717FBFFF7EA
:1035F0004BFEFFF701FB94F94400401C10B900207A
:1036000084F8440094F94500401C10B9002084F867
:103610004500FFF703FB05A901A800F06DF8F0B91C
:103620002046FEF7F8FFA0B104F110000599FFF75E
:103630007DFD2046FFF746F900F0C4F9002895D13A
:103640004FF0805009490860BFF34F8FBFF36F8F71
:103650008CE72046FFF736F900F0B4F986E72046FC
:10366000FFF730F900F0AEF90020ADE704ED00E01F
:103670002DE9F05F05468A4616461F462C4600BFD8
:10368000BF21EFF3118081F31188BFF34F8FBFF398
:103690006F8F00BF8146A06BE16B884201D3022F80
:1036A00020D194F945B03A4651462046FEF759FEDE
:1036B0000BF1010070B9606A08B9012000E0002038
:1036C00068B904F1240000F03DF940B13EB1012099
:1036D000306004E00BF1010040B284F845004FF087
:1036E000010801E04FF0000800BF89F3118800BF16
:1036F0004046BDE8F09F000070B504460D46FFF758
:103700007BFA124802682868401C08B9002619E0B4
:103710000F4920680968884204D06068904201D847
:1037200001260FE06068101A2968884209D22868CB
:103730006168511A401A28602046FFF761FD002693
:1037400000E00126FFF76AFA304670BD5C000020F9
:10375000700000202DE9FF4F85B08046894617464E
:10376000DDE912ABB800FFF7EDF8064656B1682068
:10377000FFF7E8F804460CB1266304E03046FFF793
:103780005DFA00E000247CB10020CDE900ABCDE97A
:1037900002403A4649464046089BFEF782FE2046D4
:1037A000FEF70EFD012501E04FF0FF35284609B078
:1037B000BDE8F08F0549096809B9012005E0044911
:1037C000096809B9022000E0002070476400002069
:1037D0008000002001490868704700005C0000205C
:1037E0002DE9F041002734480068002857D13348BC
:1037F0000068451C314805608DB93148D0F800801B
:10380000304800682E4908602E48C0F800802E48D5
:103810000068401C2C490860FEF7CAFF00BF2B4817
:10382000006885423AD300BF25480068006808B99F
:10383000012000E0002020B14FF0FF302349086054
:103840002BE01F480068C068C4686668B54202D2B1
:103850001E48066021E0201DFFF782F9A06A18B11A
:1038600004F11800FFF77CF91949E06A09688842F9
:1038700002D91749E06A0860E16A01EB8101154A43
:1038800002EB8100211DFFF7AAF91349E06A0968DC
:10389000C96A8842C8D30127C6E700BF04E00F48C1
:1038A0000068401C0D4908600D48006800B1012700
:1038B0003846BDE8F0810000800000205C00002058
:1038C0004C000020500000207000002078000020F4
:1038D000600000207456002048000020680000208E
:1038E0006C00002070B505462C4600261DB3A06C68
:1038F000401EA064616CE06A88421CD0A06CD0B904
:10390000201DFFF72DF9606CE062E06AC0F1050050
:10391000A0610A49E06A0968884202D90749E06A59
:103920000860E16A01EB8101054A02EB8100211D7B
:10393000FFF755F90126304670BD000060000020F9
:103940007456002070B50646F068C46804F118008B
:10395000FFF706F915480068A0B9201DFFF700F928
:103960001349E06A0968884202D91149E06A08608F
:10397000E16A01EB81010F4A02EB8100211DFFF793
:103980002EF904E004F118010B48FFF728F90B4960
:10399000E06A0968C96A884204D9012501200849FA
:1039A000086000E00025284670BD0000800000206F
:1039B00060000020745600200057002048000020BE
:1039C0006C00002070B500240026FFF715F92E4882
:1039D0000068401E2C4908600846006800284ED147
:1039E0002A48006800284AD023E02948C068C468F3
:1039F00004F11800FFF7B4F8201DFFF7B1F82549CE
:103A0000E06A0968884202D92249E06A0860E16AEE
:103A100001EB8101204A02EB8100211DFFF7DFF855
:103A20001E49E06A0968C96A884202D301201C491C
:103A300008601748006808B9012000E0002000284D
:103A4000D3D00CB1FEF7B4FE1648056865B100BFCF
:103A5000FFF7C6FE10B10120114908606D1E002D50
:103A6000F6D100200F4908600D48006838B10126E2
:103A700030070D490860BFF34F8FBFF36F8FFFF71B
:103A8000CDF8304670BD00008000002058000020B6
:103A900000570020600000207456002048000020DD
:103AA0006C0000206800002004ED00E01CB500243C
:103AB000FEF7DEFB0748006850B1074803210023EA
:103AC0008022CDE9001005A10648FFF743FE044619
:103AD00020461CBD8C00002090000020546D7220F8
:103AE00053766300AB2800082DE9FE4305460C46DB
:103AF00016461F46DDF828804FF00009144800687C
:103B000010B3009401960295062C15DAFFF752FEC9
:103B1000022808D10023424669460D480068FFF795
:103B20001BFD814610E000231A46694608480068DC
:103B3000FFF712FD814607E000233A466946044834
:103B40000068FFF795FD81464846BDE8FE8300000A
:103B50008C0000200000000000000000000000DFDA
:103B6000DF00000000070700070700002424FF24EF
:103B7000FF24240000000000000000000063331850
:103B80000C66630060F69F899F76D80000000007EE
:103B900007000000003C7EC381810000008181C3DA
:103BA0007E3C0000082A1C7F1C2A08000018187E92
:103BB0007E181800000080E060000000001818184F
:103BC0001818180000000060600000000000C0F03D
:103BD0003C0F03003E7F71594D7F3E0040427F7F86
:103BE00040400000627359496F66000022634949F2
:103BF0007F360000181C16537F7F5000276745450D
:103C00007D3900003C7E4B49793000000303717917
:103C10000F070000367F49497F360000064F49698B
:103C20003F1E000000000066660000000000806685
:103C30006600000000000814224100000028282827
:103C4000282828000000412214080000000203690F
:103C50006D07020000000000000000007C7E1313CE
:103C60007E7C0000417F7F49497F36001C3E6341D6
:103C700041632200417F7F41633E1C00417F7F49B9
:103C80005D416300417F7F491D0103001C3E63418C
:103C9000517372007F7F08087F7F000000417F7FA3
:103CA00041000000307040417F3F0100417F7F08AC
:103CB0001C776300417F7F41406070007F7F0E1C56
:103CC0000E7F7F007F7F060C187F7F001C3E6341C4
:103CD000633E1C00417F7F49090F06001E3F217192
:103CE0007F5E0000417F7F09197F6600266F4D5976
:103CF0007332000003417F7F410300003F7F60601B
:103D00007F3F00001F3F60603F1F00007F7F301833
:103D1000307F7F0063673C183C676300074F78780B
:103D20004F070000476371594D67730000000000A2
:103D30000000000000000000000000000000000083
:103D40000000000000000000000000000000000073
:103D50000000000000000000000000002074545427
:103D60003C784000417F3F4848783000387C4444EC
:103D70006C280000307848493F7F4000387C54541C
:103D80005C180000487E7F49030200004C5E5252DE
:103D90007C3E0200417F7F08047C780000447D7DEA
:103DA00040000000307040407D3D0000417F7F10AA
:103DB000386C440000417F7F400000007C7C183854
:103DC0001C7C78007C7C04047C780000387C4444B3
:103DD0007C38000044787C54141C0800081C1454DF
:103DE000787C4000447C784C041C1800485C545497
:103DF0007424000000043E7F442400003C7C4040CA
:103E00003C7C40001C3C60603C1C00003C7C7038EA
:103E1000707C3C00446C3810386C44004C5C505052
:103E20007C3C00004C64745C4C64000000000000AA
:103E30000000000000000000000000000000000082
:103E40000000000000000000000000000000000072
:103E50000000000000000000000000000000000062
:103E60000000000000000000000000000000000052
:103E70000000000000000000000000000000000042
:103E80000000000000000000000000000000000032
:103E90000000000000000000000000000000000022
:103EA0000000000000000000000000000000000012
:103EB0000000000000000000000000000000000002
:103EC00000000000000000000000000000000000F2
:103ED00000000000000000000000000000000000E2
:103EE00000000000000000000000000000000000D2
:103EF00000000000000000000000000000000000C2
:103F000000000000000000000000000000000000B1
:103F100000000000000000000000000000000000A1
:103F20000000000000000000000000000000000091
:103F30000000000000000000000000000000000081
:103F40000000000000000000000000000000000071
:103F50000000000000000000000000000000000061
:103F60000000000000000000000000000000000051
:103F70000000000000000000000000000000000041
:103F80000000000000000000000000000000000031
:103F90000000000000000000000000000000000021
:103FA0000000000000000000000000000000000011
:103FB0000000000000000000000000000000000001
:103FC00000000000000000000000000000000000F1
:103FD00000000000000006090906000000000000C3
:103FE00000000000000000000000000000000000D1
:103FF00000000000000000000000000000000000C1
:1040000000000000000000000000000000000000B0
:1040100000000000000000000000000000000000A0
:104020000000000000000000000000000000000090
:104030000000000000000000000000000000000080
:104040000000000000000000000000000000000070
:10405000000000007C7E13137E7C0000417F7F49BE
:1040600049793300417F7F49497F3600417F7F4155
:1040700001030300787E3733377E7800417F7F4924
:104080005D41630063147F7F1463000063634949EB
:104090006B7F36007F7F30180C7F7F007F7F301B67
:1040A0000C7F7F00417F7F081C776300607F1F03C8
:1040B0007F7F41007F7F0E1C0E7F7F007F7F08087F
:1040C0007F7F00001C3E6341633E1C007F7F030333
:1040D0007F7F0000417F7F49090F06001C3E63413E
:1040E0004163220003417F7F4103000063673C1866
:1040F0000C0703001E527F7F521E000063673C18AE
:104100003C6763003F3F20203F3F60000F1F18586F
:104110007F7F40007F7F607F607F7F003F203F3F49
:10412000203F6000017F7F48487830007F7F48480B
:1041300078007F007F7F4848783000003663494927
:104140006B7F3E007F083E6341633E00667F190936
:104150007F7F4100207454543C784000307C4A4AB0
:104160007A310000447C7C5454280000447C7C4418
:104170000C0800006038343438600000387C545437
:104180005C18000044287C7C284400002E445454D1
:104190007C2800007C7C20107C7C00007C7C211131
:1041A0007C7C0000447C7C10386C440040780C041B
:1041B0007C7C4000787C0810087C78007C7C1010A7
:1041C0007C7C0000387C44447C3800007C7C040407
:1041D0007C7C000044787C54141C0800387C4444E7
:1041E0006C28000008447C7C440800004C5C505063
:1041F0007C3C000008547C7C54080000446C38105F
:10420000386C44003C3C203C3C6000001C10507C5E
:104210007C4000007C407C407C0000003C203C2036
:104220003C600000443C505070200000403C505026
:1042300020007C00403C5050502000002844545442
:10424000380000007C103844443800004028141422
:104250007C7C0000FEFEFEFEFE7E1E06061E7EFE2E
:10426000FEFEFEFE7F5F47417C7870606070787C68
:1042700041475F7FDDDDDDDDDCBBBBDDDDDDDDDDC1
:10428000DDDDDDDD9888888888888888777777778E
:10429000778888888555555666666666666666665A
:1042A0006668888883333332222222222222222205
:1042B0002228888D202020C0CE2022CCE8EBE0ED03
:1042C000E4F02200E442000800000020AC000000FE
:1042D000CC1D000890430008AC000020BC5A000030
:1042E000DC1D0008000000000000000000000000CD
:1042F00000000000000000000000000000000000BE
:1043000000000000000000000000000000000000AD
:10431000000000000000000000000000000000009D
:10432000F84F000000000000AAAAAAAA000000009E
:10433000000000000000000000000000000000007D
:10434000000000000000000000000000000000006D
:10435000000000000000000000000000000000005D
:10436000000000000000000000000000000000004D
:10437000000000000000000000000000B44200083F
:1043800000127A00000000000000000000000000A1
:04000005080000C12E
:00000001FF
