:020000040800F2
:10000000685600206D010008C10900082508000895
:10001000BD09000811080008C11B0008000000000D
:10002000000000000000000000000000D5000008F3
:100030001B0800080000000019010008D90F000883
:100040001508000817080008C71200080000000083
:1000500000000000870100081F110008211100089E
:10006000D50F00080000000029080008E10B000877
:10007000C51B000800000000191100081B11000832
:100080001D1100080D0800080000000019080008F4
:10009000D70F000800000000000000000000000072
:1000A0000000000000000000000000000F08000831
:1000B0001D0800081F080008210800082308000880
:1000C000DFF80CD000F064F900480047151E000866
:1000D00068560020224B19680868B0E8F00F80F3DA
:1000E0000988BFF36F8F4FF0000080F311884EF046
:1000F0000D0E70470000000006480068006880F39D
:10010000088862B661B6BFF34F8FBFF36F8F00DF11
:1001100000BF00BF08ED00E0EFF30980BFF36F8F71
:100120000F4B1A6820E9F00F106008B54FF0BF00C0
:1001300080F31188BFF34F8FBFF36F8F02F06EFE15
:100140004FF0000080F31188BDE808401968086886
:10015000B0E8F00F80F30988BFF36F8F704700BFDE
:1001600044000020EFF305807047000006488047F8
:1001700006480047FEE7FEE7FEE7FEE7FEE7FEE78C
:10018000FEE7FEE7FEE7FEE79D100008C10000085D
:1001900040EA01039B0703D009E008C9121F08C009
:1001A000042AFAD203E011F8013B00F8013B521E89
:1001B000F9D27047421C10F8011B0029FBD1801AAC
:1001C000704700000FB400B589B00BA800906A46D4
:1001D00003480A9900F0D2F809B05DF814FB00005A
:1001E0009C0000202DE9FF5FD2E901A74FF0000835
:1001F000916999461446DDF838B04646019888471B
:10020000054659EA0B0005D009E0A169761C019862
:1002100088470546216A284688470028F5D1681C8A
:1002200003D05FEACA7005D015E04FF0FF3004B08C
:10023000BDE8F09F2068011D2160D0F800800AE031
:100240005FEACA7001D108F8015BA169761C7F1EC4
:10025000019888470546002F1ADD681C18D0B9F1AF
:10026000000F0DD0E81705EBD060421120F01F0001
:1002700059F822102A1A012090400142E0D107E0EB
:10028000BBF1000FDCD1216A284688470028D7D06F
:10029000E16901988847BBF1000F07D1002E05DD09
:1002A0005FEACA7002D1002188F80010A068B84245
:1002B00003DDBBF1000F03D017B16FF00100B6E70B
:1002C0003046B4E770B5064601F08EFC046805467A
:1002D0000A220021304600F018F82C6070BD30B5BD
:1002E0000B46014600202022012409E021FA02F5F4
:1002F0009D4205D303FA02F5491B04FA02F528448E
:10030000151EA2F10102F1DC30BD2DE9F047914646
:100310000F4680460446002614F8015B2DB100F01C
:100320005FF80068405DC007F6D12B2D02D02D2D5F
:1003300018D0641E4A463946204600F073F827B1AB
:100340003968A14201D1C7F8008071054FF002045D
:100350000BD54042002803DD01F046FC0460A007F5
:10036000BDE8F08746F48066E4E70028F8DA01F09B
:100370003BFC04606FF00040F2E70000024B936129
:10038000024BD36100F040B8C91D0008D10300083A
:10039000064C074D06E0E06840F0010394E80700D2
:1003A00098471034AC42F6D3FFF78EFE903E00081B
:1003B000B03E0008094910B508784C1C18B1401E21
:1003C0000870205C10BD00210720ABBE207010BD5E
:1003D00002490878421C0A7070470000A8000020FB
:1003E000004870477C3E000810B50446FFF7F8FF50
:1003F0000068005D00F0010010BD000002681144BB
:100400001378016018467047D1600449516104496E
:10041000116200211161114600F062B8FD0300086D
:10042000E90300082DE9F05F8246007800271546B1
:100430008B460AF10104B946302801D09DB113E082
:1004400014F8010B0127782803D0582801D045B1B2
:100450000AE00DB1102D07D10027102514F8010B6B
:1004600002E0082500E00A250026B0460EE005FB64
:10047000080005FB06F1012701EB10461FFA80F882
:10048000B6F5803F00D3B94614F8010B294600F0B9
:1004900018F80028EBDABBF1000F05D00FB1641E8D
:1004A00000E05446CBF80040B9F1000F06D001F04F
:1004B0009BFB02210160C81EBDE8F09F48EA064090
:1004C000FAE73A2800D2303820F02002412A01D33E
:1004D000A2F13700884201D34FF0FF30704700008F
:1004E0002DE9F34F8BB04FF0000801F10C000C46E2
:1004F0004FF0010B46460DF1080A01906269012197
:1005000001989047051E2DD0252D2CD0216A8847B3
:10051000C0B16269012101989047216A884700288B
:10052000F7D1411E62690198904700E0761CA169ED
:100530000B988847216A88470028F7D1E1690B9812
:100540008847DBE7A1690B9888470746A84201D195
:10055000761CD3E7E1690B9888477F1C02D1B8F17C
:10056000000F6FD046E1002762693D463946019889
:1005700090472A2804D162690121019890470125FA
:10058000DFF884926269012101989047A0F130015F
:100590000A290AD24F45E5DC07EB870100EB41074A
:1005A000303FDFD445F01005ECE7E90601D46FF0E9
:1005B00000476C280AD04C2814D0682815D06A2827
:1005C0000DD074281CD07A281AD01DE06269012150
:1005D000019890476C2802D045F0040514E045F0DE
:1005E00002050DE045F020050AE06269012101984D
:1005F0009047682802D045F0080505E045F40065FD
:100600006269012101989047C4E9015765283DD0EE
:1006100019DC58287AD00CDC452837D004DC252892
:1006200026D0412831D131E046282FD047282CD17F
:100630002CE05B2877D0612828D063287CD0642800
:1006400023D15AE0D0E06F2848D008DC66281DD0BE
:1006500067281BD0692821D06E2816D127E0702882
:1006600045D0732868D0752847D078280DD14DE043
:10067000A1690B988847054625283FF469AFE169D1
:100680000B9888476D1C3FF46AAFB3E023466A4677
:100690006FF001000B99AFF300809EE045F0400041
:1006A0006060A80723464FF0000236D43EE0E8071A
:1006B0007FF447AF2068011D21600068290501D53E
:1006C00006701BE7290701D5068017E7A90703D5A0
:1006D000F117C0E9006111E706600FE745F040003F
:1006E0006060A80723464FF0080216D41EE040F6CB
:1006F0000E0125EA0100606016E045F040006060F0
:10070000A80723464FF00A0207D40FE045F0400047
:100710006060A80708D5234610226FF001000B99EE
:10072000AFF3008059E007E0234610226FF001008C
:100730000B99AFF3008050E04FF000094F464B4655
:10074000632802D05B2806D040E0E80601D40120EF
:10075000A06001273AE062690121019890475E2874
:1007600005D14FF001096269494601989047216916
:1007700039B900210A46534643F82120491C08296B
:10078000FADBB0B3216969B9C11700EBD16253112B
:100790000AEB830122F01F02821A01200B689040AD
:1007A00003430B6062690121019890475D28E8D1FD
:1007B000B9F1000F09D00020514651F82020D24352
:1007C00041F82020401C0828F7DB02AB22460097A6
:1007D0006FF001000B99FFF705FD00280CDA401CB3
:1007E00008D1BBF1000F05D04FF0FF300DB0BDE8D0
:1007F000F08FFFE74046F9E7E90701D108F101086A
:1008000006444FF0000B79E6CCCCCC0C7047704717
:1008100000BFFEE7704770477047704770477047EA
:100820007047704700BFFEE7704700000EB501211A
:10083000880500F0BFFB0121C80500F0BBFB0121CA
:10084000480600F0B7FB5548554908600420486049
:100850000120087200204872524853490860202045
:1008600048600120087248725048514908600220CF
:10087000486001200872002048724A484D490860CB
:1008800040204860012008720020487247484A49C9
:1008900008600820486001200872002048726846FD
:1008A00000F090F93E48808880B2ADF80000012049
:1008B0008DF80A0000208DF808008DF802008DF8F0
:1008C00003008DF8040036490868694600F07AF89C
:1008D000684600F077F93448808880B2ADF80000AF
:1008E00001208DF80A0000208DF808008DF8020024
:1008F0008DF803008DF804002B490868694600F064
:1009000061F8684600F05EF92948808880B2ADF849
:10091000000001208DF80A0000208DF808008DF8F5
:1009200002008DF803008DF804002149086869462B
:1009300000F048F8684600F045F91E48808880B20B
:10094000ADF8000001208DF80A0000208DF80800A5
:100950008DF802008DF803008DF804001549086831
:10096000694600F02FF8684600F02CF9124880889C
:1009700080B2ADF8000001208DF80A0000208DF84B
:1009800008008DF802008DF803008DF804000A4974
:100990000868694600F016F80EBD000000800B40A4
:1009A000AC00002000000B40C400002000800C4080
:1009B000DC000020F40000200C01002000BFFEE756
:1009C000704700002DE9FE4F4768D0F808C0D0F806
:1009D0000C80D0F81090D0F814A0CDF808A0D0F872
:1009E00018A0CDF804A0D0F81CA0CDF800A00022DB
:1009F000012303254FF001160C885FE004F0010A83
:100A0000BAF1000F55D027EA030A91F802B00BFAA9
:100A100002FB4AEA0B0791F808A04FEA420B0AFAD8
:100A20000BFA2CEA050B4AEA0B0C28EA030A91F8A8
:100A30000AB00BFA02FB4AEA0B0829EA060A91F807
:100A400003B002F1100E0BFA0EFB4AEA0B0A91F802
:100A500004B00BFA02FB4AEA0B09DDF808A02AEA07
:100A6000060A91F805B00BFA0EFB4AEA0B0A91F858
:100A700006B00BFA02FB4AEA0B0ACDF808A091F87F
:100A800009A04FEA420B0AFA0BFADDF804B02BEA90
:100A9000050B4AEA0B0ACDF804A0DDF800A02AEA0B
:100AA000030A91F807B00BFA02FB4AEA0B0ACDF8E9
:100AB00000A05B00AD007600521C6408002C9DD1A4
:100AC000DFF8C4A0504502D14FF01F0A01E04FF0FB
:100AD000000A27EA0A0AC0F804A0DFF8ACA05045D3
:100AE00002D14FF01F0A01E04FF0000A2CEA0A0A77
:100AF000C0F808A0DFF890A0504502D14FF01F0ABF
:100B000001E04FF0000A28EA0A0AC0F80CA0DFF85A
:100B100078A0504502D14FF01F0A01E04FF0000AC3
:100B200029EA0A0AC0F810A0DFF85CA0504502D1FB
:100B30004FF01F0B01E04FF0000BDDF808A02AEA90
:100B40000B0AC0F814A0DFF840A0504502D14FF0C6
:100B50001F0B01E04FF0000BDDF804A02AEA0B0A9E
:100B6000C0F818A0DFF820A0504502D14FF01F0BAD
:100B700001E04FF0000BDDF800A02AEA0B0AC0F8F4
:100B80001CA0BDE8FE8F000000000C400268054B71
:100B9000984201D11F2300E000230B439A430260D7
:100BA0007047000000000C400268054B984201D1DC
:100BB0001F2300E000239A430A43026070470000AD
:100BC00000000C404FF6FF71018000218170C17060
:100BD000017141718171C1710172417281727047FD
:100BE00070470000014908607047000088004042DB
:100BF00010B502460C4BD86820F003001043D860B3
:100C0000586820F4706040EA01205860074B1B6868
:100C100043B10123054C241D23600023034C883C71
:100C2000C4F88C3010BD0000000002408800404233
:100C300038B50020009000BF212000F069F905467A
:100C40000098401C00900098B0F5C06F01D2002DB4
:100C5000F2D0212000F05CF908B1012400E000246A
:100C6000204638BD014908607047000088014042B5
:100C70000146044AD06820F0F00040EA0110D0603C
:100C800070470000000002400146034AD06820F48B
:100C900040700843D0607047000002402DE9FC4FCF
:100CA0000146DFF864B2DBF80CB00BF0020BBBF1CD
:100CB000000F01D0954B00E0944BDFF84CB2DBF80D
:100CC0000CB00BF0010BBBF1000F00D05B081C4611
:100CD000DFF834B2DBF80CB00BF0040BBBF1000F03
:100CE0000DD0DFF824B2DBF804B0CBF3032B0BF10B
:100CF000010BCDF800B0DDF800B004FB0BF4DFF819
:100D000008B2DBF80CB0CBF3012BBBF1000F06D01F
:100D1000BBF1010F08D0BBF1020F28D122E0DFF8B0
:100D2000ECB1C1F800B027E0DFF8DCB1DBF80CB0C3
:100D30004FF0080E0EEA1B1BBBF1000F01D1A046BD
:100D40000DE0DFF8C4B1DBF80CB0CBF3021B0BF104
:100D5000010B4FF0010E0EFA0BFEB4FBFEF8C1F8CA
:100D6000008009E04FF4004BC1F800B004E049F600
:100D7000404BC1F800B000BF00BFDFF88CB1DBF81A
:100D800010B00BF0020BBBF1000F01D05F4D00E083
:100D90005E4DDFF874B1DBF810B00BF0010BBBF166
:100DA000000F00D06D082F46DFF85CB1DBF810B003
:100DB0000BF0040BBBF1000F0DD0DFF84CB1DBF8EA
:100DC00004B0CBF3031B0BF1010BCDF800B0DDF841
:100DD00000B007FB0BF7B946DFF82CB1DBF810B019
:100DE0000BF0100BBBF1000F01D04FEA5909C1F80D
:100DF0000490DFF814B1DBF818B04FEA1B1000F0D4
:100E0000080BBBF1000F02D1DFF800C10BE000F0CE
:100E1000070B0BF1010B4FF0010E0EFA0BF0DFF890
:100E2000ECB0BBFBF0FCC1F80CC0DFF8DCB0DBF8C9
:100E3000180000F0080BBBF1000F04D1DFF8CCB0B4
:100E4000CDF804B00DE000F0070B0BF1010B4FF0F3
:100E5000010E0EFA0BF0DFF8B4B0BBFBF0FBCDF8DF
:100E600004B0DDF804B0C1F810B0DFF89CB0DBF8D6
:100E700014B00BF0030BBBF1000F06D0BBF1010F58
:100E800005D0BBF1020F06D103E01E4605E02E4659
:100E900003E0264601E03E4600BF00BFDFF868B031
:100EA000DBF814B0CBF3011BBBF1000F06D0BBF194
:100EB000010F06D0BBF1020F08D105E04FF400424C
:100EC00006E049F6404203E0324601E0624600BFD8
:100ED00000BFDFF834B0DBF814B04FEA1B2000F09D
:100EE000080BBBF1000F01D1924609E000F0070B9F
:100EF0000BF1010B4FF0010E0EFA0BF0B2FBF0FA02
:100F0000C1F808A0BDE8FC8F0000024000127A0082
:100F100010B5014601F0E003202B02D1074B1A68FF
:100F200001E0074BDA6B01F01F040123A3401340DB
:100F30000BB1012000E0002010BD000000000240C5
:100F400000800D400D49896821F003010B4A916032
:100F5000012802D002280ED106E00849896841F034
:100F60000101064A916007E00449896841F00301E4
:100F7000024A916000E000BF00BF704700000240DD
:100F800038B50020009000BF2220FFF7C1FF0546C2
:100F90000098401C00900098B0F5C06F01D2002D61
:100FA000F2D02220FFF7B4FF08B1012400E00024B2
:100FB000204638BD29B1064AD2690243044BDA61A2
:100FC00004E0034AD2698243014BDA6170470000B2
:100FD000000002407047704710B500BFBF2080F38B
:100FE0001188BFF34F8FBFF36F8F00BF02F0BAF9C4
:100FF00018B14FF080500449086000BF002080F312
:10100000118800BF10BD000004ED00E030B5204C99
:10101000E46804F00204022C01D11E4800E01D48DF
:101020001B4CE46804F0010404B140080146184C6C
:10103000E46804F00404042C05D1154C6468C4F37E
:101040000324631C5943124CE468C4F3012424B103
:10105000012C06D0022C13D10DE00E4C0E4D2C604D
:1010600013E00B4CE468C4F30314641CB1FBF4F20A
:10107000094C226009E04FF40044074D2C6004E065
:1010800049F64044044D2C6000BF00BF30BD000055
:101090000000024000127A009800002000B50D48C0
:1010A0000D49C8610846C0680020C860084640680D
:1010B0000020486008468068002088600846006973
:1010C000002008610846406900204861FFF79EFF44
:1010D00000BD0000100000080000024014E00023E2
:1010E0005A1E0A490A48006801F00AFF01280BD17C
:1010F00000BF8021074800F06DF80128F9D10348AE
:101100000178044800F0DCF8E9E700002400002042
:10111000040000200080034070477047704770470C
:1011200010B510210F4800F05DF8012803D11021FF
:101130000C4800F03FF80B4800F0BEF80A49087070
:1011400000230A4A0A48006802F054F80748006879
:1011500038B14FF0805007490860BFF34F8FBFF39D
:101160006F8F10BD008003400C0000201000002095
:101170000000002004ED00E002460B4B986A0B4B88
:101180009A4205D140F0807020F0FF00084308E04B
:10119000074B9A4205D140F0007020F47F4040EAAE
:1011A0000120014B9862704700000240000003409C
:1011B00000800340426C0A434264704721B1026BD5
:1011C00042F00102026304E0026B4FF6FE731A4024
:1011D00002637047024693690B400BB1012000E0A7
:1011E000002070470246136C0B400BB1012000E059
:1011F000002070471AB1836B0B43836302E0836B5B
:101200008B438363704700002DE9F04F87B004469D
:101210000D4601A8FFF742FD019F2448866A244835
:10122000844206D106F0070101208840B7FBF0F7A1
:1012300008E02048844205D1C6F3022101208840FD
:10124000B7FBF0F728688008B7FBF0F94FEA991868
:1012500009F03F0AB8000AEB8811B0FBF1FB2868DF
:10126000ABEB0000C0012968B0FBF1F006900698D6
:10127000022803D9002007B0BDE8F08FC4F824800D
:10128000C4F828A0E66AA888E988084329890843A1
:10129000698908430643E662266B4FF680708643F1
:1012A000A889064326630120E5E70000000002400C
:1012B00000000340008003400146086880B2704788
:1012C000CAB20260704770478EB000260024002525
:1012D00052E02A208DF800000F2001F079FC07A9C8
:1012E00026A0FEF76FFF07A8FEF764FF064604E09E
:1012F00007A8005D02A90855641C07A8005D2C28FA
:10130000F6D102A8FEF756FF0646002508E002A81F
:10131000411900231A461B48006801F0DFFE6D1CCE
:10132000B542F4DB241D012507A8FEF743FF06465E
:1013300005E007A8005D0DF805006D1C641CB442B3
:10134000F7DB002400256846FEF734FF064600BFA1
:1013500008E00DEB050100231A460A48006801F079
:10136000BDFE6D1CB542F4DB02A907A000F02CFC09
:1013700069460AA000F028FCABE70000253236736E
:101380000000000008000020594F555220535452CD
:1013900020495320272573270D0A0000594F555225
:1013A00020506572696F642069732025730D0A00EF
:1013B00086B000BF142205A101A8FEF7E9FE03E0F4
:1013C0004FF47A7001F004FCFAE70000576F726B7B
:1013D000207769746820627574746F6E7300000002
:1013E00070B50546002404E0E1B2284600F004F898
:1013F000641C082CF8DB70BD70B505460E463146FE
:10140000284600F0FBFA0021284600F06DFA00247F
:101410000CE000BF284600F0BBF900F08000002877
:10142000F8D10021284600F051FB641C402CF0DB71
:1014300070BD08B5009000BF00994A1E00920029B7
:10144000FAD108BD10B50446012C04D180212C48E6
:10145000FFF7AAFB04E04FF480712948FFF7A4FBD3
:1014600001212848FFF792FB4FF480612448FFF7E1
:101470008DFB0520FFF7DDFF2348406840F03F006B
:10148000214948602148406840F00C001F494860ED
:101490003F2000F091FA0520FFF7CBFF0221194809
:1014A000FFF782FB0520FFF7C4FF02211548FFF775
:1014B0006DFB0520FFF7BDFF01211248FFF766FB1A
:1014C0004FF480610E48FFF761FB0F4840684FF60C
:1014D000C07108400C4948600C4840684FF6F371F1
:1014E00008400A494860012C04D180210448FFF7D4
:1014F0004DFB04E04FF480710148FFF747FB10BD3E
:1015000000000B4000800B4000800A4000800E402D
:1015100008B500F053F800F02FF800BF012000F0EC
:1015200037F900F080000028F8D10120FFF78AFF8A
:1015300000BF022000F02CF900F080000028F8D154
:101540000220FFF77FFF0120FFF74AFF0220FFF78D
:1015500047FF01210648006800F0FEF8012003461D
:10156000002211460090034800F0B0F808BD0000CA
:1015700094000020D83D000810B54FF400710E48CB
:10158000FFF704FBC820FFF754FF4FF400710A482F
:10159000FFF70AFB0520FFF74CFF00BF012000F01A
:1015A000F7F800F0900030B1022000F0F1F800F000
:1015B00090000028F2D110BD00000B400EB50121B3
:1015C0001C48FFF7F7FC00208DF803008DF804009D
:1015D0008DF805008DF806008DF807003F20ADF866
:1015E000000000208DF802008DF8080001208DF821
:1015F0000A0003208DF8090069460F48FFF7E2F959
:101600000C20ADF8000069460C48FFF7DBF94FF4F9
:10161000F060ADF8000001208DF80200694608482E
:10162000FFF7D0F90320ADF8000069460548FFF741
:10163000C9F90EBD0000E02000800A4000800E4085
:1016400000000B4000800B402DE9F05F05460C4682
:1016500091462046E11704EB5171C9104E1CCA4651
:101660002046E11704EB5171C910A4EBC1014FEA08
:10167000C10B0AF0FF01F0B200F0C0F90BF0FF015E
:10168000F0B200F031F9202D06DBFF2D04DCA5F1CE
:1016900020004FEAC00801E04FF0000847460DE087
:1016A00000BFF0B200F074F800F080000028F8D11C
:1016B000054AD15DF0B200F009FA7F1C08F108007C
:1016C0008742EDDBBDE8F09FD83600082DE9FF4FDB
:1016D00083B08046894692464FF0000B4E4635E077
:1016E00054462FE02046E11704EB5171C9104D1C00
:1016F0000296E11704EB5171C910A4EBC101CA00B5
:101700000192029EF1B2E8B200F078F9019AD1B2EA
:10171000E8B200F0E9F800270FE000BFE8B200F0FF
:1017200037F800F080000028F8D10BEB070218F81A
:101730000210E8B200F0CAF97F1C082FEDDB0BF1B4
:10174000080B641C10988442CCDD761C06988642F7
:10175000C6DD07B0BDE8F08F70B505460E46002423
:1017600008E0285D00B907E0285D32462146FFF712
:101770006BFF641C102CF4DB00BF05E032462146F1
:101780002020FFF761FF641C102CF7DB70BD000008
:1017900070B504462C4840684FF6C07108402A498D
:1017A00048602A4840684FF6F3710840274948606E
:1017B000012C04D180212648FFF7F6F904E04FF40C
:1017C00080712348FFF7F0F901212248FFF7DEF985
:1017D0004FF480611E48FFF7E7F90520FFF729FE67
:1017E00002211C48FFF7E0F90520FFF722FE16480A
:1017F000006800F03F0015490968C02202EA0111A3
:1018000040EA01050520FFF714FE02211148FFF709
:10181000BDF90520FFF70DFE01210E48FFF7B6F9CF
:101820004FF480610A48FFF7B1F9012C04D18021FF
:101830000748FFF7ABF904E04FF480710448FFF765
:10184000A5F9284670BD000000800A4000800E40C7
:1018500000000B4000800B402DE9F04786B0804629
:10186000894617464046FEF7A5FC064600208DF83F
:10187000140016B906B0BDE8F08797FBF6F006FB3A
:101880001077102E19DA002414E0E519102D06DB6C
:101890002846E91705EB11710911A5EB0115B542B1
:1018A00002DA18F805A001E04FF0200A01A800F8BC
:1018B00004A0641C102CE8DB0FE000240BE0E51909
:1018C000B54203DB95FBF6F006FB105518F8050052
:1018D00001A90855641C102CF1DB494601A8FFF74B
:1018E0003BFF00BFC6E7000070B504460D46012C63
:1018F00004D180212C48FFF757F904E04FF48071A0
:101900002948FFF751F901212848FFF73FF94FF423
:1019100080612548FFF73AF90520FFF78AFD244842
:10192000406840F03F00224948602248406840F04B
:101930000C002049486045F0400000F03DF80520CB
:10194000FFF777FD02211948FFF72EF90520FFF771
:1019500070FD02211548FFF719F90520FFF769FD11
:10196000134840684FF6C07108401149486011485B
:1019700040684FF6F37108400E49486001210B485A
:10198000FFF704F94FF480610748FFF7FFF8012CD7
:1019900004D180210448FFF7F9F804E04FF4807186
:1019A0000148FFF7F3F870BD00000B4000800B40CA
:1019B00000800A4000800E400E4909684FF6C07250
:1019C00011400C4A11601146096800F03F021143B2
:1019D000084A1160084909684FF6F3721140064A37
:1019E0001160114609680C2202EA20121143024AD2
:1019F0001160704700800A4000800E4070B50446B8
:101A00000D46012C04D180212C48FFF7CDF804E0CD
:101A10004FF480712948FFF7C7F801212848FFF7E4
:101A2000B5F84FF480612548FFF7B0F80520FFF7BF
:101A300000FD2448406840F03F00224948602248A9
:101A4000406840F00C002049486045F0B800FFF7BE
:101A5000B3FF0520FFF7EDFC02211948FFF7A4F8BA
:101A60000520FFF7E6FC02211548FFF78FF8052057
:101A7000FFF7DFFC134840684FF6C071084011497A
:101A80004860114840684FF6F37108400E494860BD
:101A900001210B48FFF77AF84FF480610748FFF700
:101AA00075F8012C04D180210448FFF76FF804E099
:101AB0004FF480710148FFF769F870BD00000B40DA
:101AC00000800B4000800A4000800E4070B5044644
:101AD0000D46012C04D180212C48FFF765F804E065
:101AE0004FF480712948FFF75FF801212848FFF77C
:101AF0005BF84FF480612548FFF748F80520FFF7B1
:101B000098FC2448406840F03F0022494860224841
:101B1000406840F00C00204948602846FFF74CFF21
:101B20000520FFF786FC02211948FFF73DF8052044
:101B3000FFF77FFC02211648FFF728F80520FFF782
:101B400078FC144840684FF6C0710840114948605D
:101B5000114840684FF6F37108400F494860012171
:101B60000B48FFF713F84FF480610848FFF70EF8B1
:101B7000012C04D180210548FFF708F804E04FF458
:101B800080710248FFF702F870BD000000000B40B2
:101B900000800B4000800A4000800E4010B503A07A
:101BA00000F012F8002001F02DF810BD576F726B95
:101BB0002077697468205175657565730D0A00009A
:101BC00000BFFEE7704700000FB4054B10B503A936
:101BD000044A029800F01CF810BC5DF814FB0000E9
:101BE000ED1D0008A000002000487047A400002060
:101BF00002E008C8121F08C1002AFAD170477047D6
:101C0000002001E001C1121F002AFBD17047000033
:101C10002DE9FF4F8BB09A460F460546002606E099
:101C200025280BD052460D9990476D1C761C2878BC
:101C30000028F5D10FB03046BDE8F08F0024A04653
:101C40000122604900E0044315F8013F203B02FAFD
:101C500003F00842F7D128782E2817D115F8010F84
:101C600044F004042A280ED06FF02F022878A0F147
:101C7000300109290AD808EB880102EB410100EB89
:101C800001086D1CF2E757F8048B6D1C2878692851
:101C90003ED006DC0028CDD063280BD0642804D1C8
:101CA00036E0732810D075284BD052460D999047D6
:101CB000761C85E017F8040B8DF8000000208DF8E5
:101CC0000100E946012003E057F8049B4FF0FF3084
:101CD00061074FF0000401D40AE0641C44450DDAAA
:101CE0008442FADB19F804100029F6D106E0641CDE
:101CF0008442FCDB19F804100029F8D1264404E0E2
:101D000019F8010B52460D999047641EF8D257E01E
:101D100001CF4FF00A0B002802DA40422D2102E0E9
:101D2000210504D52B218DF82410012103E0E107C2
:101D300005D02021F7E70DF1200908910CE00021E2
:101D4000F9E701CF4FF00A0BF9E75946FEF7C7FA5A
:101D500001F1300209F8012D0028F6D1ADEB0900A0
:101D600000F1200B600701D44FF00108D84502DDD7
:101D7000A8EB0B0000E000208046002406E009A844
:101D80005246005D0D999047641C761C0898844269
:101D9000F5DB04E0302052460D999047761CB8F1EF
:101DA0000001A8F10108F5DC05E019F8010B524625
:101DB0000D999047761CBBF10001ABF1010BF4DCEF
:101DC0006D1C34E70928010038B5044600235A1E6B
:101DD00069460548006801F093F8012802D19DF892
:101DE000000038BD0020FCE70000002038B50446A4
:101DF0000D46E0B2009000231A466946024800688A
:101E000001F06CF9204638BD0400002010B500F048
:101E1000F7FC10BD1CB5FFF7F9FFFEF707FDFFF754
:101E200077FB00F00DFD00220121802001F04CF82D
:101E30002249086000220121C80201F045F820492A
:101E4000086000220121C80201F03EF81D49086027
:101E50000020022103468022CDE900101AA11C486F
:101E600001F03AFA0020022103468022CDE9001059
:101E700018A11A4801F030FA0020032103468022FD
:101E8000CDE9001016A1184801F026FA0020032120
:101E900003468022CDE9001014A1164801F01CFA77
:101EA0000020012103468022CDE9001012A1144830
:101EB00001F012FA00F072FF00201CBD00000020AB
:101EC00004000020080000205461736B3200000001
:101ED000B11300085461736B33000000C91200088D
:101EE0005461736B340000009D1B00085461736BD8
:101EF00035000000DD1000085461736B36000000EF
:101F0000492A00082DE9F04105460E4616480768A3
:101F100016480068001D00F0FFFC681C38B936B197
:101F200012480168091D124800F035FD1AE07C19BD
:101F30000E4800684460BC4207D20C480168091D85
:101F40000C48006800F00DFD0CE008480168091D10
:101F50000948006800F005FD08480068844201D285
:101F600006480460BDE8F0815800002044000020CD
:101F7000285200204C00002048000020740000205F
:101F800010B5044600F014FD22480068401C2149A9
:101F900008602148006840B91F480460084600688E
:101FA00001280DD100F0AAF90AE01C48006838B9F0
:101FB00019480068C06AE16A884201D8164804607E
:101FC00017480068401C164908601649E06A09680D
:101FD000884202D91349E06A0860E16A01EB810195
:101FE000114A02EB8100211D00F0D5FC00F0F2FC4B
:101FF0000A48006868B108480068C06AE16A884217
:1020000007D24FF0805009490860BFF34F8FBFF3EC
:102010006F8F10BD5400002044000020600000209D
:10202000700000205C0000207451002004ED00E0EE
:1020300010B500F0BDFC10480068D0B90F4800F0A2
:1020400080FC0F4800F07DFC0C480E4908600C48ED
:102050000D49086000220C210A2000F035FF0649D6
:1020600008600846006820B108A10348006800F035
:1020700073FD00F0AFFC10BD880000203C52002032
:10208000505200208000002084000020546D7251C6
:102090000000000070B523E000F0B8FE13480068AF
:1020A00008B9012000E00020054601F04DFABDB955
:1020B00000F07EFC0D48C068C468201D00F02CFCB8
:1020C0000B480068401E0A4908600A480068401E24
:1020D0000849086000F07EFC204600F060F800BF70
:1020E000044800680028D7D170BD000014520020B9
:1020F000540000205000002070B504460D46206CAE
:1021000070B1216CE0680844E0606168E068884272
:1021100001D32068E0602846226CE168FEF738F8B9
:1021200070BD2DE9F04104460F4615464FF00008FA
:10213000A66B206C40B9206860BB606801F094F920
:1021400080460020606025E07DB93946226CA06899
:10215000FEF71EF8216CA0680844A060D4E90110C5
:10216000884217D32068A06014E03946226CE068EA
:10217000FEF70EF8216CE068401AE0602168E06824
:10218000884203D2216C6068401AE060022D01D1C0
:1021900006B1761E701CA0634046BDE8F08110B504
:1021A0000446206B00F026FC204600F023FC10BD06
:1021B0000146084A126812680AB9012200E00022AA
:1021C0000A600A6822B9034A1268D268106800E0FF
:1021D00000207047800000200A4A22F007000A4AC7
:1021E00010600022084B5A6044F6F872074B5A60A0
:1021F00000221A60014644F6F8724A601A460A60E4
:10220000704700002C010020280000203000002032
:1022100000BFFFF73FFF07480068012807D94FF0CC
:10222000805005490860BFF34F8FBFF36F8F00F0F8
:1022300087FBEEE77451002004ED00E02DE9F0414A
:1022400006460D4617469846069C0DB9246000E0E8
:102250002760E66325640121204600F0FFFEBDE80B
:10226000F0812DE9FF5F80460F469146DDE90E6A59
:10227000109CA9F10100216B01EB800B2BF0070BE7
:10228000002507E0795D04F134004155785D00B91F
:1022900002E06D1C102DF5D300BF00214320015535
:1022A000052E00D30426E66266640020A064201D8B
:1022B00000F054FB04F1180000F050FB2461C6F15B
:1022C0000500A0616462002505E0002104F14C00D6
:1022D00040F825106D1C052DF7D30020206684F8EA
:1022E000640041465846039A00F078FA2060BAF13B
:1022F000000F01D0CAF80040BDE8FF9F10B50024D0
:1023000007E004EB84010F4A02EB810000F019FBA7
:10231000641C052CF5D30C4800F013FB0B4800F0AF
:1023200010FB0B4800F00DFB0A4800F00AFB0A48BE
:1023300000F007FB044809490860044808490860A0
:1023400010BD000074510020D8510020EC51002035
:102350000052002014520020285200204800002083
:102360004C0000202DE9F04104460D4616461F465C
:102370004FF0000865602461B5420CD8F01BA169DC
:10238000884202D34FF0010811E0211D094800687E
:1023900000F0E7FA0BE0BE4204D2BD4202D34FF098
:1023A000010804E0211D0448006800F0DAFA404604
:1023B000BDE8F081840000208000002070B5054653
:1023C00000F0F6FAA86B08B9012400E0002400F040
:1023D00001FB204670BD70B5054600F0E9FAA86B18
:1023E000E96B884201D1012400E0002400F0F2FAF8
:1023F000204670BDF8B505460E4610480068C06816
:10240000C468201D00F088FAE069012811D1A06994
:1024100041192B4632462046FFF7A4FF48B1002061
:1024200003462A4601460090204601F01FF9074660
:1024300000BF2046616A8847F8BD00008000002088
:1024400070B586B04DE0039800284ADB059C6069B2
:1024500008B9012000E0002010B9201D00F05CFA4E
:1024600002A800F09FF8054603980A2837D2DFE853
:1024700000F00905072527320608262800BF00BFFF
:1024800000BF00BF0498A269811803462A4620466F
:10249000FFF768FF88B12046616A8847E069012834
:1024A0000BD1002000900498A1694218002319461E
:1024B000204601F0DBF8064600BF11E000BF0FE048
:1024C00000BF0498A061A06941192B462A46204606
:1024D000FFF748FF04E0204600F08CFA00E000BF60
:1024E00000BF00231A4603A90348006800F008FD56
:1024F0000028A8D106B070BD88000020F8B50546B8
:102500000C4600F083FC684600F04CF80646009844
:1025100020BB44B9B54206D801F016F8314628462A
:10252000FFF768FF1CE03CB10E480068006808B97E
:10253000012000E000200446A91B22460A4800684A
:1025400000F020FB01F000F850B94FF0805007492F
:102550000860BFF34F8FBFF36F8F01E000F0F4FF0F
:10256000F8BD0000840000208800002004ED00E099
:102570000A490968096809B9012100E0002121B16F
:102580004FF0FF31064A116006E004490968C96846
:10259000C868034A41681160704700004800002085
:1025A0007400002070B5044600F0D6FE05460748CA
:1025B0000068854204D200F00BF80120206001E0A1
:1025C0000020206001480560284670BD9000002072
:1025D0002DE9F84326E01D480068C06805681B48DF
:1025E0000068C068C468201D00F096F92046616A42
:1025F0008847E069012815D1A0694619AE4207D97C
:1026000066602461211D1148006800F0AAF909E004
:10261000002003462A4601460090204601F026F895
:10262000804600BF09480068006808B9012000E042
:1026300000200028CFD005480768054800680349F6
:10264000086003480760BDE8F883000080000020B0
:102650008400002000BFBF2080F31188BFF34F8F9C
:10266000BFF36F8F00BF00BFFEE708B500BF68462D
:10267000FFF79EFD044620460099FFF73FFFFFF756
:10268000DFFEF4E770B5044600F092F994F9455086
:1026900010E0606A08B9012000E0002038B904F1B8
:1026A000240000F011FF18B100F0FCFA00E003E094
:1026B000681E45B2002DECDC00BFFF2084F8450009
:1026C00000F088F900F074F994F9445010E02069A2
:1026D00008B9012000E0002048B904F1100000F022
:1026E000F3FE08B100F0DEFA681E45B200E001E03A
:1026F000002DECDC00BFFF2084F8440000F06AF9F4
:1027000070BD00002DE9F04104464FF0000800F0D4
:102710007DFB2648006820B9FFF75EFD01202349B4
:10272000086044B1083404F0070020B104F0070049
:10273000C0F108000444002C32D044F6F870844202
:102740002ED21B4F3846056801E02F462D68686879
:10275000A04202D228680028F7D1164885421FD02F
:10276000386800F10808286838606868001B10287D
:1027700010D92E196868001B70606C6071680C4875
:1027800000E00068026852688A42FAD30268326048
:10279000066000BF084968680968081A06490860A9
:1027A00000F0D2FE4046BDE8F08100003C00002071
:1027B0002800002030000020380000200648006873
:1027C00030B10549096801F14800896C491C016074
:1027D000014800687047000044000020001F4FF0CF
:1027E00080730360001F21F001030360001F034B8F
:1027F0000360143802602038704700005526000836
:1028000010B50120FEF79EFBFEF7BAFB012814D19C
:1028100009210220FEF7ECF90120FEF7E3F9FEF7AB
:1028200007FA012809D10020FEF722FA0120FEF75D
:1028300019FA4FF48070FEF727FAFEF7E7FB10BD98
:1028400000B587B001214807FEF7B4FB0121480716
:10285000FEF7B0FB00208DF813008DF814008DF802
:1028600015008DF816008DF8170003208DF818005C
:102870008DF8190001208DF81A0000208DF8120043
:102880000120ADF8100004A92148FEF79BF80120B3
:102890008DF812000220ADF8100004A91C48FEF7C4
:1028A00091F801218020FEF785FB00211948FEF7F1
:1028B00063FC0720002809DB00F01F020121914082
:1028C0004209920002F1E022C2F8001100BF4FF469
:1028D000E13000906020ADF804000020ADF8060063
:1028E000ADF80800ADF80A004FF44070ADF80C00E8
:1028F00069460848FEF788FC012210210548FEF7CA
:1029000079FC01210348FEF759FC07B000BD000027
:1029100000800E400080034001460A69D1E9013081
:102920009860D1E9010358605068884201D18868F5
:102930005060002008611068401E106010687047E9
:10294000704700F1080141604FF0FF31816000F1F4
:102950000801C1600161002101607047002101612F
:10296000704710B502460B685C1C0CB9106907E093
:1029700002F1080000E04068446824689C42FAD9EB
:1029800044684C604C68A160886041600A611468CA
:10299000641C146010BD42684A6093688B60936841
:1029A00059609160086103685B1C03607047000018
:1029B00000BFBF2080F31188BFF34F8FBFF36F8F2D
:1029C00000BF03480068401C0149086070470000D0
:1029D0004000002006480068401E0549086008467F
:1029E000006820B9002080F3118800BF00BF704745
:1029F0004000002070B506463546B6B1083D2C466D
:102A000000F004FA6168094800E000680268526852
:102A10008A42FAD302682260046005496068096846
:102A200008440349086000F08FFD70BD28000020B5
:102A30003800002003484FF0E0214861072008617A
:102A4000704700007F38010088B00026002700256D
:102A500000244FF00108A1465AE000231A4607A9B6
:102A60002C48006800F04CFA012819D1B8F1000F89
:102A700009D09DF81C002A2805D09DF81C0003A948
:102A800048556D1C0BE0B8F1000F03D04FF0000863
:102A900000253DE09DF81C0001A948556D1C37E05C
:102AA00001A8FDF787FB002825D001A8FDF70AFC47
:102AB0000646314618A0FFF787F803A8FDF77AFB12
:102AC0000746102F07DA3C4603E0202003A90855EB
:102AD000641C112CF9DB03A917A0FFF775F800257A
:102AE000002403E0002001A90855641C01A8FDF79B
:102AF00061FBA042F6D84FF00108304600F068F8BC
:102B00004A4609F10109062103A8FEF7A5FE00BF08
:102B1000A3E70000080000205155455545205245C7
:102B200043494556454420706572696F64202725E6
:102B300064270D0A000000005155455545205245B7
:102B400043494556454420535452494E4720272572
:102B500073270D0A00000000024600200BE0084B1E
:102B600053F8303033B9064B43F8301003EBC00351
:102B70005A6002E0401C0A28F1D300BF70470000F1
:102B8000245100202DE9F04105460E4617462C46FB
:102B9000FFF70EFF94F94400401C10B9002084F8A0
:102BA000440094F94500401C10B9002084F8450009
:102BB000FFF710FFA06B28B93A46314604F1240014
:102BC00000F086F82046FFF75DFDBDE8F0810000CB
:102BD00070B50446002544B100F018F900212046E4
:102BE000FFF790F900F0B0FC05463DB94FF080507A
:102BF00003490860BFF34F8FBFF36F8F70BD0000B4
:102C000004ED00E070B50546FFF7D2FE15B91E4889
:102C1000006800E028460446201DFFF77DFEA06AFC
:102C200018B104F11800FFF777FE18480068401C3F
:102C30001649086014480068844209D1211D1448CF
:102C4000FFF7A9FE13480068401C1249086009E01C
:102C500011480068401E104908602046FFF79FFA9F
:102C6000FFF786FCFFF7B6FE0C48006858B106482F
:102C70000068844207D14FF0805009490860BFF3D3
:102C80004F8FBFF36F8F70BD440000207000002095
:102C9000145200205000002054000020600000204A
:102CA00004ED00E001200149086070476800002041
:102CB00070B505460C460548016818312846FFF7EF
:102CC00050FE01212046FFF71DF970BD4400002091
:102CD00070B506460D461446064801681831304660
:102CE000FFF759FE0CB14FF0FF3521462846FFF79C
:102CF00009F970BD4400002070B505462C46002D32
:102D000039D01D49E06A0968C96A884233D2A0698E
:102D100000F0004028B918480068C06AC0F10500FA
:102D2000A061E16A01EB8101144A02EB8101606953
:102D3000884201D1012000E00020C0B1201DFFF732
:102D4000EBFD0D480068C06AE0620D49E06A096861
:102D5000884202D90A49E06A0860E16A01EB810110
:102D6000064A02EB8100211DFFF715FE03E0024831
:102D70000068C06AE06270BD440000207451002009
:102D80005C0000200349096801600349096841604B
:102D9000704700006C000020580000201CB514484B
:102DA00000210B468022CDE9001012A1134800F04B
:102DB00093FA0446012C02D100F03AFC0446012C9F
:102DC00014D100BFBF2080F31188BFF34F8FBFF332
:102DD0006F8F00BF4FF0FF3009490860012009499B
:102DE000086000200849086000F054F81CBD00008D
:102DF0007800002049444C450000000011220008E2
:102E00007400002060000020580000200248006884
:102E1000401C0149086070477C0000201848006889
:102E200018B101201749086028E000201549086002
:102E30001548016800E0491E01EB8100134A52F871
:102E4000200008B9012000E000200028F3D101EBA8
:102E500081020E4B03EB820042685268426000F12F
:102E600008024368934202D1426852684260426855
:102E7000D268074B1A600448016000BF7047000029
:102E80007C000020680000205C00002074510020BD
:102E90004400002010B50A48006840F47F0008494B
:102EA00008600846006840F07F400860FFF7C2FDF8
:102EB000002004490860FDF71FF9002010BD000044
:102EC00020ED00E0400000202DE9F84307460D46C4
:102ED00090460DB9002601E007FB05F606F1480013
:102EE000FFF710FC044644B104F1480943464A4642
:102EF000294638460094FFF7A1F92046BDE8F8833B
:102F00002DE9FF4782B0054689461E464FF0000A6C
:102F10002C4600BFFFF74CFDD4F83880B8F1000F05
:102F20003BD0E76849462046FFF7E6F8DEB9A8F14E
:102F30000100A063206810B9FFF740FC60602069C1
:102F400008B9012000E0002008BB04F1100000F0E7
:102F5000BBFAE0B14FF080503F490860BFF34F8F9C
:102F6000BFF36F8F13E0E760606A08B9012000E0EB
:102F7000002060B904F1240000F0A6FA38B14FF047
:102F8000805035490860BFF34F8FBFF36F8FFFF755
:102F900021FD012006B0BDE8F087049818B9FFF7BD
:102FA00019FD0020F6E7BAF1000F04D16846FFF7DB
:102FB000E9FE4FF0010AFFF70DFDFFF727FFFFF7CE
:102FC000F7FC94F94400401C10B9002084F8440038
:102FD00094F94500401C10B9002084F84500FFF723
:102FE000F9FC04A9684600F049F940BB2046FFF708
:102FF000E5F9F0B1206830B9FFF7DAFC6068FFF757
:103000007BFEFFF7E7FC04F124000499FFF750FE74
:103010002046FFF737FB00F097FA00287FF47AAFDD
:103020004FF080500C490860BFF34F8FBFF36F8F94
:1030300070E72046FFF726FB00F086FA6AE7204695
:10304000FFF720FB00F080FA2046FFF7B7F90028D1
:10305000EED000209EE7000004ED00E070B50546CC
:103060000E462C46FFF7A4FCD4E90F12206801FBA2
:10307000020060600020A0632068A060E06B401E3A
:10308000226C216800FB0210E060FF2084F84400FD
:1030900084F845009EB9206908B9012000E00020AD
:1030A000A8B904F1100000F00FFA80B14FF0805081
:1030B00009490860BFF34F8FBFF36F8F07E004F13A
:1030C0001000FFF73EFC04F12400FFF73AFCFFF785
:1030D00081FC012070BD000004ED00E02DE9FF43FC
:1030E00083B0074688461D464FF000093C4600BFA6
:1030F000FFF75EFCA06BE16B884201D3022D28D163
:103100002A4641462046FFF70CF80646606A08B991
:10311000012000E0002068B904F1240000F0D4F997
:1031200088B14FF0805032490860BFF34F8FBFF332
:103130006F8F08E03EB14FF080502D490860BFF31B
:103140004F8FBFF36F8FFFF745FC012007B0BDE83D
:10315000F083059818B9FFF73DFC0020F6E7B9F1B8
:10316000000F04D101A8FFF70DFE4FF00109FFF792
:1031700031FCFFF74BFEFFF71BFC94F94400401CA9
:1031800010B9002084F8440094F94500401C10B99F
:10319000002084F84500FFF71DFC05A901A800F0F8
:1031A0006DF8F0B92046FFF716F9A0B104F1100050
:1031B0000599FFF77DFD2046FFF764FA00F0C4F99A
:1031C000002895D14FF0805009490860BFF34F8F18
:1031D000BFF36F8F8CE72046FFF754FA00F0B4F985
:1031E00086E72046FFF74EFA00F0AEF90020ADE783
:1031F00004ED00E02DE9F05F05468A4616461F46BD
:103200002C4600BFBF21EFF3118081F31188BFF37B
:103210004F8FBFF36F8F00BF8146A06BE16B884279
:1032200001D3022F20D194F945B03A4651462046A9
:10323000FEF777FF0BF1010070B9606A08B9012051
:1032400000E0002068B904F1240000F03DF940B12D
:103250003EB10120306004E00BF1010040B284F87F
:1032600045004FF0010801E04FF0000800BF89F36E
:10327000118800BF4046BDE8F09F000070B50446CD
:103280000D46FFF795FB124802682868401C08B9F4
:10329000002619E00F4920680968884204D0606858
:1032A000904201D801260FE06068101A2968884210
:1032B00009D228686168511A401A28602046FFF731
:1032C00061FD002600E00126FFF784FB304670BD5B
:1032D000580000206C0000202DE9FF4F85B080468B
:1032E00089461746DDE912ABB800FFF70BFA064630
:1032F00056B16820FFF706FA04460CB1266304E0D5
:103300003046FFF777FB00E000247CB10020CDE9D8
:1033100000ABCDE902403A4649464046089BFEF7DD
:10332000A0FF2046FEF72CFE012501E04FF0FF35FF
:10333000284609B0BDE8F08F0549096809B90120A0
:1033400005E00449096809B9022000E0002070473F
:10335000600000207C0000200149086870470000E0
:10336000580000202DE9F04100273448006800286B
:1033700057D133480068451C314805608DB9314844
:10338000D0F80080304800682E4908602E48C0F808
:1033900000802E480068401C2C490860FFF7E8F8C0
:1033A00000BF2B48006885423AD300BF254800681B
:1033B000006808B9012000E0002020B14FF0FF3084
:1033C000234908602BE01F480068C068C46866682D
:1033D000B54202D21E48066021E0201DFFF79CFA8C
:1033E000A06A18B104F11800FFF796FA1949E06ACB
:1033F0000968884202D91749E06A0860E16A01EB6E
:103400008101154A02EB8100211DFFF7C4FA13491F
:10341000E06A0968C96A8842C8D30127C6E700BFC5
:1034200004E00F480068401C0D4908600D48006822
:1034300000B101273846BDE8F08100007C00002083
:1034400058000020480000204C0000206C000020A4
:10345000740000205C000020745100204400002013
:10346000640000206800002070B505462C46002648
:103470001DB3A06C401EA064616CE06A88421CD041
:10348000A06CD0B9201DFFF747FA606CE062E06ADB
:10349000C0F10500A0610A49E06A0968884202D9C2
:1034A0000749E06A0860E16A01EB8101054A02EB25
:1034B0008100211DFFF76FFA0126304670BD000024
:1034C0005C0000207451002070B50646F068C468A6
:1034D00004F11800FFF720FA15480068A0B9201D74
:1034E000FFF71AFA1349E06A0968884202D91149BC
:1034F000E06A0860E16A01EB81010F4A02EB81009A
:10350000211DFFF748FA04E004F118010B48FFF70A
:1035100042FA0B49E06A0968C96A884204D9012560
:1035200001200849086000E00025284670BD000021
:103530007C0000205C00002074510020005200201C
:10354000440000206800002070B500240026FFF72A
:103550002FFA2E480068401E2C4908600846006873
:1035600000284ED12A48006800284AD023E0294884
:10357000C068C46804F11800FFF7CEF9201DFFF7FA
:10358000CBF92549E06A0968884202D92249E06AF4
:103590000860E16A01EB8101204A02EB8100211DF4
:1035A000FFF7F9F91E49E06A0968C96A884202D33F
:1035B00001201C4908601748006808B9012000E094
:1035C00000200028D3D00CB1FEF7D2FF16480568C2
:1035D00065B100BFFFF7C6FE10B1012011490860B8
:1035E0006D1E002DF6D100200F4908600D480068BF
:1035F00038B1012630070D490860BFF34F8FBFF384
:103600006F8FFFF7E7F9304670BD00007C000020A7
:1036100054000020005200205C0000207451002063
:1036200044000020680000206400002004ED00E059
:103630001CB50024FEF7FCFC0748006850B10748A1
:10364000032100238022CDE9001005A10648FFF7E1
:1036500043FE044620461CBD880000208C0000204C
:10366000546D7220537663006B2600082DE9FE43EB
:1036700005460C4616461F46DDF828804FF0000927
:103680001448006810B3009401960295062C15DAD0
:10369000FFF752FE022808D10023424669460D4832
:1036A0000068FFF71BFD814610E000231A466946BB
:1036B00008480068FFF712FD814607E000233A46FC
:1036C000694604480068FFF795FD81464846BDE815
:1036D000FE830000880000200000000000000000C1
:1036E000000000DFDF000000000707000707000000
:1036F0002424FF24FF242400000000000000000018
:10370000006333180C66630060F69F899F76D800CB
:103710000000000707000000003C7EC3818100001C
:10372000008181C37E3C0000082A1C7F1C2A0800FF
:103730000018187E7E181800000080E0600000006D
:103740000018181818181800000000606000000029
:103750000000C0F03C0F03003E7F71594D7F3E00DA
:1037600040427F7F40400000627359496F6600000D
:10377000226349497F360000181C16537F7F500092
:10378000276745457D3900003C7E4B497930000074
:10379000030371790F070000367F49497F36000027
:1037A000064F49693F1E00000000006666000000E9
:1037B000000080666600000000000814224100003E
:1037C000002828282828280000004122140800008A
:1037D000000203696D070200000000000000000005
:1037E0007C7E13137E7C0000417F7F49497F360039
:1037F0001C3E634141632200417F7F41633E1C00C8
:10380000417F7F495D416300417F7F491D01030086
:103810001C3E6341517372007F7F08087F7F000068
:1038200000417F7F41000000307040417F3F010038
:10383000417F7F081C776300417F7F4140607000BB
:103840007F7F0E1C0E7F7F007F7F060C187F7F001E
:103850001C3E6341633E1C00417F7F49090F060007
:103860001E3F21717F5E0000417F7F09197F660046
:10387000266F4D597332000003417F7F41030000E2
:103880003F7F60607F3F00001F3F60603F1F000080
:103890007F7F3018307F7F0063673C183C67630090
:1038A000074F78784F070000476371594D677300E1
:1038B0000000000000000000000000000000000008
:1038C00000000000000000000000000000000000F8
:1038D00000000000000000000000000000000000E8
:1038E000207454543C784000417F3F484878300071
:1038F000387C44446C280000307848493F7F4000C1
:10390000387C54545C180000487E7F490302000054
:103910004C5E52527C3E0200417F7F08047C78005E
:1039200000447D7D40000000307040407D3D00003F
:10393000417F7F10386C440000417F7F40000000D1
:103940007C7C18381C7C78007C7C04047C7800002B
:10395000387C44447C38000044787C54141C0800B3
:10396000081C1454787C4000447C784C041C1800DB
:10397000485C54547424000000043E7F442400003A
:103980003C7C40403C7C40001C3C60603C1C000097
:103990003C7C7038707C3C00446C3810386C4400BF
:1039A0004C5C50507C3C00004C64745C4C640000E7
:1039B0000000000000000000000000000000000007
:1039C00000000000000000000000000000000000F7
:1039D00000000000000000000000000000000000E7
:1039E00000000000000000000000000000000000D7
:1039F00000000000000000000000000000000000C7
:103A000000000000000000000000000000000000B6
:103A100000000000000000000000000000000000A6
:103A20000000000000000000000000000000000096
:103A30000000000000000000000000000000000086
:103A40000000000000000000000000000000000076
:103A50000000000000000000000000000000000066
:103A60000000000000000000000000000000000056
:103A70000000000000000000000000000000000046
:103A80000000000000000000000000000000000036
:103A90000000000000000000000000000000000026
:103AA0000000000000000000000000000000000016
:103AB0000000000000000000000000000000000006
:103AC00000000000000000000000000000000000F6
:103AD00000000000000000000000000000000000E6
:103AE00000000000000000000000000000000000D6
:103AF00000000000000000000000000000000000C6
:103B000000000000000000000000000000000000B5
:103B100000000000000000000000000000000000A5
:103B20000000000000000000000000000000000095
:103B30000000000000000000000000000000000085
:103B40000000000000000000000000000000000075
:103B50000000000000000000000006090906000047
:103B60000000000000000000000000000000000055
:103B70000000000000000000000000000000000045
:103B80000000000000000000000000000000000035
:103B90000000000000000000000000000000000025
:103BA0000000000000000000000000000000000015
:103BB0000000000000000000000000000000000005
:103BC00000000000000000000000000000000000F5
:103BD00000000000000000007C7E13137E7C0000CB
:103BE000417F7F4949793300417F7F49497F3600D2
:103BF000417F7F4101030300787E3733377E7800B1
:103C0000417F7F495D41630063147F7F146300003F
:103C1000636349496B7F36007F7F30180C7F7F00DC
:103C20007F7F301B0C7F7F00417F7F081C77630004
:103C3000607F1F037F7F41007F7F0E1C0E7F7F0010
:103C40007F7F08087F7F00001C3E6341633E1C00AD
:103C50007F7F03037F7F0000417F7F49090F0600BC
:103C60001C3E63414163220003417F7F410300000A
:103C700063673C180C0703001E527F7F521E000032
:103C800063673C183C6763003F3F20203F3F600074
:103C90000F1F18587F7F40007F7F607F607F7F000D
:103CA0003F203F3F203F6000017F7F484878300041
:103CB0007F7F484878007F007F7F48487830000049
:103CC000366349496B7F3E007F083E6341633E0097
:103CD000667F19097F7F4100207454543C7840006E
:103CE000307C4A4A7A310000447C7C5454280000DD
:103CF000447C7C440C080000603834343860000098
:103D0000387C54545C18000044287C7C2844000013
:103D10002E4454547C2800007C7C20107C7C0000C5
:103D20007C7C21117C7C0000447C7C10386C44003D
:103D300040780C047C7C4000787C0810087C78007B
:103D40007C7C10107C7C0000387C44447C38000073
:103D50007C7C04047C7C000044787C54141C0800A7
:103D6000387C44446C28000008447C7C44080000F3
:103D70004C5C50507C3C000008547C7C5408000093
:103D8000446C3810386C44003C3C203C3C600000E3
:103D90001C10507C7C4000007C407C407C0000007B
:103DA0003C203C203C600000443C5050702000000F
:103DB000403C505020007C00403C505050200000BF
:103DC00028445454380000007C1038444438000023
:103DD000402814147C7C0000FEFEFEFEFE7E1E06C3
:103DE000061E7EFEFEFEFEFE7F5F47417C78706011
:103DF0006070787C41475F7F0040404040404040D9
:103E000040404141414141404040404040404040AD
:103E10004040404040404040400502020202020251
:103E200002020202020202020220202020202020A0
:103E300020202002020202020202909090909090B4
:103E40001010101010101010101010101010101072
:103E500010101010020202020202888888888888E6
:103E600008080808080808080808080808080808D2
:103E7000080808080202020240000000F93D00089C
:103E8000202020C0CE2022CCE8EBE0EDE4F02200A0
:103E9000B03E000800000020AC000000F01B00084D
:103EA0005C3F0008AC000020BC550000001C00086E
:103EB0000000000000000000000000000000000002
:103EC00000000000000000000000000000000000F2
:103ED00000000000000000000000000000000000E2
:103EE0000000000000000000F84F0000000000008B
:103EF000AAAAAAAA0000000000000000000000001A
:103F000000000000000000000000000000000000B1
:103F100000000000000000000000000000000000A1
:103F20000000000000000000000000000000000091
:103F30000000000000000000000000000000000081
:103F400000000000803E000800127A00000000001F
:0C3F500000000000000000000000000065
:04000005080000C12E
:00000001FF
