:020000040800F2
:10000000006000206D01000865130008CB11000896
:10001000611300082F0F0008092B000800000000E2
:10002000000000000000000000000000D5000008F3
:10003000C111000800000000190100088D19000816
:10004000330F0008350F000853210008000000009E
:1000500000000000E50F0008A91F0008AD1F000800
:100060008919000800000000CF110008951500084C
:100070000D2B000800000000F51E0008A51F000859
:10008000A71F0008690E000800000000370F0008D5
:100090008B190008000000000000000000000000B4
:1000A0000000000000000000000000002D0F00080C
:1000B000C3110008C5110008C7110008C9110008C4
:1000C000DFF80CD000F08EFC00480047DD3500085A
:1000D00000600020224B19680868B0E8F00F80F338
:1000E0000988BFF36F8F4FF0000080F311884EF046
:1000F0000D0E70470000000006480068006880F39D
:10010000088862B661B6BFF34F8FBFF36F8F00DF11
:1001100000BF00BF08ED00E0EFF30980BFF36F8F71
:100120000F4B1A6820E9F00F106008B54FF0BF00C0
:1001300080F31188BFF34F8FBFF36F8F04F026FA5F
:100140004FF0000080F31188BDE808401968086886
:10015000B0E8F00F80F30988BFF36F8F704700BFDE
:1001600044000020EFF305807047000006488047F8
:1001700006480047FEE7FEE7FEE7FEE7FEE7FEE78C
:10018000FEE7FEE7FEE7FEE7511A0008C10000089F
:1001900040EA01039B0703D009E008C9121F08C009
:1001A000042AFAD203E011F8013B00F8013B521E89
:1001B000F9D27047421C10F8011B0029FBD1801AAC
:1001C000704700000FB400B589B00BA800906A46D4
:1001D00003480A9900F0FEFA09B05DF814FB00002C
:1001E000980000202DE9FF5FD2E901A74FF0000839
:1001F000916999461446DDF838B04646019888471B
:10020000054659EA0B0005D009E0A169761C019862
:1002100088470546216A284688470028F5D1681C8A
:1002200003D05FEACA7005D015E04FF0FF3004B08C
:10023000BDE8F09F2068011D2160D0F800800AE031
:100240005FEACA7001D108F8015BA169761C7F1EC4
:10025000019888470546002F1ADD681C18D0B9F1AF
:10026000000F0DD0E81705EBD060421120F01F0001
:1002700059F822102A1A012090400142E0D107E0EB
:10028000BBF1000FDCD1216A284688470028D7D06F
:10029000E16901988847BBF1000F07D1002E05DD09
:1002A0005FEACA7002D1002188F80010A068B84245
:1002B00003DDBBF1000F03D017B16FF00100B6E70B
:1002C0003046B4E780EA010210B502F00043400076
:1002D00022D04A001FD0010E01EB1261C0F356007C
:1002E000C2F3560240F4000042F40002A0FB0220D8
:1002F00000047F39140400D0401C50EA124001D49D
:100300004000491EC2B20C0604EBD010401C40084D
:10031000802A02D003E0002010BD20F00100002957
:1003200000DA0020184310BD2DE9FE4F804681EA17
:100330000300C00F0C46009021F0004123F000455F
:10034000B8EB0200A94105D24046214690461C4622
:100350000B46024623F00040104347D0270DC7F359
:100360000A00C3F30A510290401A019040286BDA48
:10037000C3F3130040F4801B0098924620B1002381
:10038000D2EB030A63EB0B0B01985946C0F1400214
:10039000504600F0FEF906460D4650465946019A71
:1003A00000F006FA10EB08006141002487EA1152C0
:1003B00084EAE7731A4340D0009A62B3019A012A93
:1003C0004FEA075215DC001B61EB02014FF00042BF
:1003D00002EA0752CDE90042001C41F58011324685
:1003E0002B4600F047FA03B0BDE8F08F40462146A7
:1003F000F9E7001B61EB0201001C41F580130018B6
:100400005B412018A2F5001747EB030140EAD570C5
:10041000B6196D4111E06D084FEA360645EAC07520
:100420004FEA0752001B61EB0201001C41F58011ED
:1004300049084FEA30000019514132462B4603B0BB
:10044000BDE8F04F00F007BA0098012240000023F9
:10045000D0EB020263EBE073009821464FEAE074B0
:10046000B8EB000061EB0401E9E783F000435BE7D0
:1004700081F0004158E72DE9FE4F81EA030404F0C2
:10048000004421F0004100944FF0000B23F00043A2
:1004900050EA01045ED052EA03045BD0C3F30A546D
:1004A000C1F30A552C44A4F2F3340194A0FB025486
:1004B000C1F3130141F48011C3F3130343F4801318
:1004C00001FB024400FB034E840A970A44EA81546C
:1004D00047EA8357A4FB076802958D0A05FB078549
:1004E0004FEA932C04FB0C542705029D4FEA065853
:1004F00047EA1637B5EB08056EEB070C870E920E30
:1005000047EA811742EA8312A7FB0201B6EB0B010F
:1005100064EB00042B0D43EA0C335E1844EB1C50D3
:10052000DA465146E7FB0201C5F313044FEA0B33E9
:1005300043EA14534FEA0432019C43EA0603A4F150
:100540000C040294009CCDE900B400F093F903B0D0
:10055000BDE8F08F00200146F9E72DE9F04D81EA72
:10056000030404F0004B21F0004514464FF0000A4C
:1005700023F0004150EA050220D054EA01021DD0C8
:10058000C5F30A570246C5F31303C1F31300C1F3C1
:100590000A5640F4801543F48013A7EB0608101B9D
:1005A000D64608F2FD3873EB050002D308F10108C6
:1005B00001E092185B41B8F1000F03DA0020014618
:1005C000BDE8F08D00204FF48011064684460EE011
:1005D000171B73EB050705D3121B63EB05030643DB
:1005E0004CEA010C49084FEA300092185B4150EA8E
:1005F0000107EDD152EA030012D082EA040083EA37
:100600000501084305D0101BAB4106D2012200238F
:1006100006E000224FF0004302E06FF001025310A9
:100620001AEB06004CEB085110EB0A0041EB0B01F2
:10063000BDE8F04D00F00FB996230022114600F0FE
:10064000DCB80EB5C10F80EAE0700844CA0700218B
:1006500040F233438DE80E000A460B4600F00AF9DB
:1006600003B000BD0EB540F2334102910021CDE947
:1006700000110A460B4600F0FDF803B000BD00F083
:10068000004230F000400AD0C10D01F56071C0F3A6
:10069000160042EA0151C20840071143704700208A
:1006A0000146704730B5041E71F1000404DB4FF0C1
:1006B0000044404264EB0101141E73F1000405DBA9
:1006C0001C464FF00043524263EB04038B4208BFC9
:1006D000824230BD30B5041E71F1000404DB4FF0DE
:1006E0000044404264EB0101141E73F1000405DB79
:1006F0001C464FF00043524263EB0403994208BF8B
:10070000904230BD30B50B46014600202022012426
:1007100009E021FA02F59D4205D303FA02F5491BCF
:1007200004FA02F52844151EA2F10102F1DC30BDE5
:100730002DE9F05F0546002092469B468846064616
:10074000814640241BE0284641464746224600F0A9
:1007500071F953465A46C01A914110D311461846B2
:10076000224600F016F82D1A67EB01084F46224684
:100770000120002100F00DF817EB00094E41201E6A
:10078000A4F10104DFDC484631462A464346BDE871
:10079000F09F202A04DB203A00FA02F10020704783
:1007A0009140C2F1200320FA03F3194390407047AF
:1007B000202A06DBCB17203A41FA02F043EAE07325
:1007C00006E041FA02F3D040C2F120029140084312
:1007D00019467047024B9361024BD36100F040B958
:1007E00091350008250A00080029A8BF7047401C61
:1007F000490008BF20F00100704710B4B0FA80FC37
:1008000000FA0CF050EA010404BF10BC704749B173
:10081000CCF1200421FA04F411FA0CF118BF0121E3
:1008200021430843A3EB0C01CB1D4FEA00614FEAC3
:10083000102042BF002010BC704700EBC350104492
:100840000029A4BF10BC7047401C490008BF20F01D
:10085000010010BC704710B5141E73F1000408DAD3
:10086000401C41F1000192185B411A4301D120F074
:10087000010010BD2DE9F04D92469B4611B1B1FA31
:1008800081F202E0B0FA80F220329046FFF781FF59
:1008900004460F4640EA0A0041EA0B0153465A4615
:1008A000084313D0114653EA010019D0C8F14002A1
:1008B000504600F0BFF805460E465046594642469F
:1008C000FFF767FF084305D0012004E020463946C2
:1008D000BDE8F08D0020054346EAE0762C4337431F
:1008E0000A986305E40AA0EB08000022FD0A44EA26
:1008F00047540A3002D500200146E9E701051019E6
:100900006941DDE9084500196941BDE8F04DA2E7FC
:100910002DE9F04D00231A461B1A8A4103DB002003
:100920000146BDE8F08DC1F30A52C1F3130141F451
:1009300080154FF0000BD10702D100186D41521EF7
:100940000027044640F2FF11384601EB620A3E469A
:100950008046024600204FF4801100F06BF8C21967
:100960007141BB1846EB0100B4EB030C75EB000CB6
:1009700004D3E41A65EB000517460E46241908F166
:1009800001006D4180463428E3DDF91946EB06008D
:10099000091BA84103D24FF0FF32134601E00022A9
:1009A00013461BEB070046EB0A51BDE8F04DFFF77D
:1009B00052BFC1F30A52C1F3130140F2FF3341F4B5
:1009C00080119A4202DA00200146704740F2334318
:1009D0009A42A2F2334202DC524200F02BB8FFF7F7
:1009E000D8BE0000064C074D06E0E06840F0010369
:1009F00094E8070098471034AC42F6D3FFF764FB45
:100A0000A0570008C0570008094910B508784C1CC9
:100A100018B1401E0870205C10BD00210720ABBE3D
:100A2000207010BD02490878421C0A70704700000F
:100A3000A4000020202A04DB203A21FA02F0002141
:100A4000704721FA02F3D040C2F1200291400843DE
:100A500019467047026811441378016018467047C0
:100A6000D1600449516104491162002111611146AC
:100A700000F00AB8550A00087D0A0008C0B24FF419
:100A8000F05100F097B900002DE9F34F8BB04FF013
:100A9000000801F10C000C464FF0010B46460DF129
:100AA000080A01906269012101989047051E2DD026
:100AB000252D2CD0216A8847C0B162690121019897
:100AC0009047216A88470028F7D1411E6269019842
:100AD000904700E0761CA1690B988847216A8847F7
:100AE0000028F7D1E1690B988847DBE7A1690B98EB
:100AF00088470746A84201D1761CD3E7E1690B98E5
:100B000088477F1C02D1B8F1000F6FD046E1002763
:100B100062693D463946019890472A2804D16269A6
:100B20000121019890470125DFF884926269012133
:100B300001989047A0F130010A290AD24F45E5DC1F
:100B400007EB870100EB4107303FDFD445F010058C
:100B5000ECE7E90601D46FF000476C280AD04C2876
:100B600014D0682815D06A280DD074281CD07A2893
:100B70001AD01DE062690121019890476C2802D0CB
:100B800045F0040514E045F002050DE045F02005B0
:100B90000AE06269012101989047682802D045F077
:100BA000080505E045F40065626901210198904758
:100BB000C4E9015765283DD019DC58287AD00CDCEF
:100BC000452837D004DC252826D0412831D131E012
:100BD00046282FD047282CD12CE05B2877D06128DD
:100BE00028D063287CD0642823D15AE0D0E06F2835
:100BF00048D008DC66281DD067281BD0692821D082
:100C00006E2816D127E0702845D0732868D0752843
:100C100047D078280DD14DE0A1690B98884705464B
:100C200025283FF469AFE1690B9888476D1C3FF4B4
:100C30006AAFB3E023466A466FF001000B99AFF349
:100C400000809EE045F040006060A80723464FF01A
:100C5000000236D43EE0E8077FF447AF2068011D6C
:100C600021600068290501D506701BE7290701D519
:100C7000068017E7A90703D5F117C0E9006111E75E
:100C800006600FE745F040006060A80723464FF07C
:100C9000080216D41EE040F60E0125EA010060604D
:100CA00016E045F040006060A80723464FF00A02B6
:100CB00007D40FE045F040006060A80708D5234640
:100CC00010226FF001000B99AFF3008059E007E0AC
:100CD000234610226FF001000B99AFF3008050E023
:100CE0004FF000094F464B46632802D05B2806D0E0
:100CF00040E0E80601D40120A06001273AE06269E3
:100D00000121019890475E2805D14FF001096269E1
:100D1000494601989047216939B900210A4653464E
:100D200043F82120491C0829FADBB0B3216969B9CD
:100D3000C11700EBD16253110AEB830122F01F02AD
:100D4000821A01200B68904003430B606269012105
:100D5000019890475D28E8D1B9F1000F09D0002033
:100D6000514651F82020D24341F82020401C082849
:100D7000F7DB02AB224600976FF001000B99FFF7FB
:100D800031FA00280CDA401C08D1BBF1000F05D065
:100D90004FF0FF300DB0BDE8F08FFFE74046F9E7B8
:100DA000E90701D108F1010806444FF0000B79E68C
:100DB000CCCCCC0C7F2801D9002208E0064A02EBFB
:100DC0005002C007127800D1120902F00F02012070
:100DD0009040084070470000605700080146054AEF
:100DE000106811B140F0010001E020F00100014A5B
:100DF000106070470080084010B5144B1A68144BFF
:100E00001A40D0E90034234484682344C46803EBC7
:100E1000041344692344C4692344446A234490F876
:100E2000284003EB44631A44084B596821F400310D
:100E3000038C01EB4341054B1A605960038B034C53
:100E40002361438BA3600369A36210BD0080084047
:100E50000300FFF10348006840F002000149086008
:100E600070470000008008407047000010B504790A
:100E7000836803EB0473C46823440469234444690E
:100E80001919048B036803EB44531944044A054BB6
:100E90001A43054B1B6893430B44034C236010BD5E
:100EA00000001EF00000E1010080084000B595B090
:100EB00001214FF0817000F057FD684600F05CFBA7
:100EC0008020ADF8000000208DF80A006946164821
:100ED00000F04AFA00200E900F901090119012909E
:100EE000139014900EA8FFF7C1FF002003904FF459
:100EF00080400C9000200490059007200690002070
:100F0000079007200D9000200890ADF82400ADF860
:100F100026000A900B9003A8FFF76EFF0120FFF751
:100F20005DFF15B000BD000000000C40704700BF21
:100F3000FEE7704770477047012904D101228240C3
:100F4000034B9A6203E001228240014BDA62704750
:100F5000008002408268B2F1406F02D102680A60EC
:100F600007E08269521E83689B0E9A4003681A4408
:100F70000A604269042A03D142680C324A600EE0DA
:100F8000C268B2F1404F02D142684A6007E082690C
:100F9000521EC3689B0F9A4043681A444A60D0E9C6
:100FA00003231A4383681A43436A1A43036A1A43A2
:100FB000C3691A4383695B1E42EA031243691A43F9
:100FC0008A60704700200649486088604861401E7A
:100FD00088610862C8624863C8630120C8647047BA
:100FE0000080024010B51248006830B9114812491B
:100FF000486001200E49086005E010480E4948602D
:1010000000200B4908600E49082000F021F80D4926
:101010000D48006803F0E9FC0A48006838B14FF059
:1010200080500A490860BFF34F8FBFF36F8F10BD28
:101030000C0000203802002080040020A8000020BE
:10104000A8040020180000200800002004ED00E0A3
:1010500070B504460D46214821498860286828B1AA
:101060001E4A02EB04112868FFF774FF686840B15C
:101070001B48C06800EB041631466868FFF76AFF3A
:1010800000BFA86840F0010015494860687B01284E
:1010900002D1A040886103E00120A0401049C8614E
:1010A0000120A0400E4948620120A0408862A87B30
:1010B00018B90120A040486303E00120A04008497E
:1010C0000863287B012803D1A0400549886303E019
:1010D0000120A0400249C86370BD000000580020F4
:1010E0000080024000210160416081600173417312
:1010F0008173704710B50121294800F035FCFFF7D6
:1011000061FF2848FFF7EEFF274828490860284874
:101110004860C82088614FF0406088604FF0804090
:10112000C8604FF0885008610020C8614FF48020EB
:101130000862C000486201204861084619490860F9
:1011400000200873487388730820FFF781FF4FF46D
:10115000807018494862C86105200421002804DB1A
:101160004A07130E144A135406E04A07140E134A92
:1011700000F00F031B1FD45400BF0520002809DB1B
:1011800000F01F02012191404209920002F1E02289
:10119000C2F8001100BF01210820FFF7CDFE10BDED
:1011A00020011000A80400201880084080040020BE
:1011B000A80000200080024000E400E018ED00E0FC
:1011C0007047704770477047704700BFFEE7704731
:1011D0000EB50121880500F0C7FB0121C80500F00C
:1011E000C3FB0121480600F0BFFB55485549086084
:1011F0000420486001200872002048725248534978
:101200000860202048600120087248725048514907
:1012100008600220486001200872002048724A4895
:101220004D49086040204860012008720020487243
:1012300047484A4908600820486001200872002099
:101240004872684600F098F93E48808880B2ADF850
:10125000000001208DF80A0000208DF808008DF8AC
:1012600002008DF803008DF80400364908686946CD
:1012700000F07AF8684600F07FF93448808880B240
:10128000ADF8000001208DF80A0000208DF808005C
:101290008DF802008DF803008DF804002B490868D2
:1012A000694600F061F8684600F066F929488088D0
:1012B00080B2ADF8000001208DF80A0000208DF802
:1012C00008008DF802008DF803008DF80400214914
:1012D0000868694600F048F8684600F04DF91E4875
:1012E000808880B2ADF8000001208DF80A0000204F
:1012F0008DF808008DF802008DF803008DF80400C9
:1013000015490868694600F02FF8684600F034F97E
:101310001248808880B2ADF8000001208DF80A00E4
:1013200000208DF808008DF802008DF803008DF87C
:1013300004000A490868694600F016F80EBD00006E
:1013400000800B40C803002000000B40E003002099
:1013500000800C40F8030020100400202804002026
:1013600000BFFEE7704700002DE9FE4F4768D0F848
:1013700008C0D0F80C80D0F81090D0F814A0CDF8A8
:1013800008A0D0F818A0CDF804A0D0F81CA0CDF883
:1013900000A00022012303254FF001160C885FE016
:1013A00004F0010ABAF1000F55D027EA030A91F8B8
:1013B00002B00BFA02FB4AEA0B0791F808A04FEAC9
:1013C000420B0AFA0BFA2CEA050B4AEA0B0C28EA44
:1013D000030A91F80AB00BFA02FB4AEA0B0829EA61
:1013E000060A91F803B002F1100E0BFA0EFB4AEA5E
:1013F0000B0A91F804B00BFA02FB4AEA0B09DDF87C
:1014000008A02AEA060A91F805B00BFA0EFB4AEA90
:101410000B0A91F806B00BFA02FB4AEA0B0ACDF868
:1014200008A091F809A04FEA420B0AFA0BFADDF87E
:1014300004B02BEA050B4AEA0B0ACDF804A0DDF84C
:1014400000A02AEA030A91F807B00BFA02FB4AEA65
:101450000B0ACDF800A05B00AD007600521C6408BA
:10146000002C9DD1DFF8C4A0504502D14FF01F0AD7
:1014700001E04FF0000A27EA0A0AC0F804A0DFF8EA
:10148000ACA0504502D14FF01F0A01E04FF0000A16
:101490002CEA0A0AC0F808A0DFF890A0504502D153
:1014A0004FF01F0A01E04FF0000A28EA0A0AC0F8CC
:1014B0000CA0DFF878A0504502D14FF01F0A01E0E0
:1014C0004FF0000A29EA0A0AC0F810A0DFF85CA071
:1014D000504502D14FF01F0B01E04FF0000BDDF83B
:1014E00008A02AEA0B0AC0F814A0DFF840A0504573
:1014F00002D14FF01F0B01E04FF0000BDDF804A00C
:101500002AEA0B0AC0F818A0DFF820A0504502D143
:101510004FF01F0B01E04FF0000BDDF800A02AEAAE
:101520000B0AC0F81CA0BDE8FE8F000000000C40B4
:10153000024613680B400BB1012000E00020704709
:101540000268054B984201D11F2300E000230B43A2
:101550009A4302607047000000000C400268054B8F
:10156000984201D11F2300E000239A430A430260FE
:101570007047000000000C404FF6FF710180002111
:101580008170C170017141718171C17101724172CB
:101590008172704770470000014908607047000081
:1015A0008800404210B502460C4BD86820F003007A
:1015B0001043D860586820F4706040EA01205860F9
:1015C000074B1B6843B10123054C241D23600023F6
:1015D000034C883CC4F88C3010BD00000000024071
:1015E0008800404238B50020009000BF212000F064
:1015F00069F905460098401C00900098B0F5C06F4E
:1016000001D2002DF2D0212000F05CF908B10124B4
:1016100000E00024204638BD014908607047000002
:10162000880140420146044AD06820F0F00040EAB8
:101630000110D06070470000000002400146034ADC
:10164000D06820F440700843D0607047000002402A
:101650002DE9FC4F0146DFF864B2DBF80CB00BF06B
:10166000020BBBF1000F01D0954B00E0944BDFF86B
:101670004CB2DBF80CB00BF0010BBBF1000F00D04B
:101680005B081C46DFF834B2DBF80CB00BF0040B3F
:10169000BBF1000F0DD0DFF824B2DBF804B0CBF3C0
:1016A000032B0BF1010BCDF800B0DDF800B004FB0B
:1016B0000BF4DFF808B2DBF80CB0CBF3012BBBF175
:1016C000000F06D0BBF1010F08D0BBF1020F28D1EB
:1016D00022E0DFF8ECB1C1F800B027E0DFF8DCB1C0
:1016E000DBF80CB04FF0080E0EEA1B1BBBF1000F2D
:1016F00001D1A0460DE0DFF8C4B1DBF80CB0CBF3AC
:10170000021B0BF1010B4FF0010E0EFA0BFEB4FBA6
:10171000FEF8C1F8008009E04FF4004BC1F800B0BA
:1017200004E049F6404BC1F800B000BF00BFDFF84D
:101730008CB1DBF810B00BF0020BBBF1000F01D045
:101740005F4D00E05E4DDFF874B1DBF810B00BF0D8
:10175000010BBBF1000F00D06D082F46DFF85CB124
:10176000DBF810B00BF0040BBBF1000F0DD0DFF86D
:101770004CB1DBF804B0CBF3031B0BF1010BCDF83C
:1017800000B0DDF800B007FB0BF7B946DFF82CB16D
:10179000DBF810B00BF0100BBBF1000F01D04FEADB
:1017A0005909C1F80490DFF814B1DBF818B04FEA1A
:1017B0001B1000F0080BBBF1000F02D1DFF800C1D5
:1017C0000BE000F0070B0BF1010B4FF0010E0EFACE
:1017D0000BF0DFF8ECB0BBFBF0FCC1F80CC0DFF89D
:1017E000DCB0DBF8180000F0080BBBF1000F04D1EF
:1017F000DFF8CCB0CDF804B00DE000F0070B0BF132
:10180000010B4FF0010E0EFA0BF0DFF8B4B0BBFB8A
:10181000F0FBCDF804B0DDF804B0C1F810B0DFF88B
:101820009CB0DBF814B00BF0030BBBF1000F06D03B
:10183000BBF1010F05D0BBF1020F06D103E01E463C
:1018400005E02E4603E0264601E03E4600BF00BF0D
:10185000DFF868B0DBF814B0CBF3011BBBF1000F6D
:1018600006D0BBF1010F06D0BBF1020F08D105E095
:101870004FF4004206E049F6404203E0324601E000
:10188000624600BF00BFDFF834B0DBF814B04FEAA7
:101890001B2000F0080BBBF1000F01D1924609E0BC
:1018A00000F0070B0BF1010B4FF0010E0EFA0BF0DD
:1018B000B2FBF0FAC1F808A0BDE8FC8F00000240BE
:1018C00000127A0010B5014601F0E003202B02D18E
:1018D000074B1A6801E0074BDA6B01F01F04012384
:1018E000A34013400BB1012000E0002010BD000018
:1018F0000000024000800D400D49896821F003017D
:101900000B4A9160012802D002280ED106E0084956
:10191000896841F00101064A916007E0044989683D
:1019200041F00301024A916000E000BF00BF704730
:101930000000024038B50020009000BF2220FFF7D1
:10194000C1FF05460098401C00900098B0F5C06F9C
:1019500001D2002DF2D02220FFF7B4FF08B10124FC
:1019600000E00024204638BD29B1064AD26902436E
:10197000044BDA6104E0034AD2698243014BDA6125
:1019800070470000000002407047704710B500BF6C
:10199000BF2080F31188BFF34F8FBFF36F8F00BF5D
:1019A00003F0D4F818B14FF080500449086000BF2C
:1019B000002080F3118800BF10BD000004ED00E09E
:1019C00030B5204CE46804F00204022C01D11E481A
:1019D00000E01D481B4CE46804F0010404B1400819
:1019E0000146184CE46804F00404042C05D1154C9D
:1019F0006468C4F30324631C5943124CE468C4F3C1
:101A0000012424B1012C06D0022C13D10DE00E4C80
:101A10000E4D2C6013E00B4CE468C4F30314641CFB
:101A2000B1FBF4F2094C226009E04FF40044074D89
:101A30002C6004E049F64044044D2C6000BF00BF18
:101A400030BD00000000024000127A009400002027
:101A500000B50D480D49C8610846C0680020C8603F
:101A6000084640680020486008468068002088607A
:101A70000846006900200861084640690020486166
:101A8000FFF79EFF00BD00001000000800000240AC
:101A90000246104B586A104B9A4205D120F0FF00C5
:101AA000084340F0807012E00C4B9A4206D120F4BB
:101AB0007F4040EA012040F0007008E0084B9A4265
:101AC00005D120F47F0040EA014040F08060014BE6
:101AD0005862704700000240000007400080074045
:101AE00000000840CA43426570470A46C16812B107
:101AF00041F0010101E021F00101C160704730B502
:101B00000C8804604C8844608C888460CC880D8983
:101B10002C444D892C448D892C44CD896319C36094
:101B20004C8A0D8A04EB05148D8A2C44CD8A6219E7
:101B3000026530BD0021018041808180C18001812A
:101B400041818181C181018241828182C18270474C
:101B50000021C16001604160816001624162816277
:101B6000C162016341638163C1630166416681664D
:101B7000C166016141618161C1610167416781673E
:101B8000C167016441648164C16401654165816527
:101B9000C165704710B51346826D0BB10A4300E072
:101BA0008A43826510BD000092B05FE100200F9073
:101BB0000E90834600BF0023421E1946AC480068C1
:101BC00002F056FDAB48006800B9AB4DA94800686B
:101BD000012800D1A94D00201190109028880F9065
:101BE00028880E904FF0FF39CA46002415E035F8DA
:101BF00014100F98814202DB35F814000F9035F86D
:101C000014100E98814202DC35F814000E9035F85D
:101C10001410119808441190641CC82CE7D3DDE916
:101C20000E21881A00EBD0714E10022427E009F132
:101C3000010080B935F81400B0420CD9601E35F8A7
:101C40001000B04207D2A01E35F81000B04202D2F8
:101C50000FFA84F912E00AF1010078B935F814009E
:101C6000B0420BD2601E35F81000B04206D9A01E5B
:101C700035F81000B04201D90FFA84FA641CC82C60
:101C8000D5D3D1450EDDA9EB0A0040064FEA106B13
:101C900042F2107090FBFBF00890FEF7D2FCCDE909
:101CA0000A010DE0AAEB090040064FEA106B42F270
:101CB000107090FBFBF00890FEF7C3FCCDE90A0121
:101CC000002408E035F81400404390FBFBF1109825
:101CD00008441090641C5C45F4D31098FEF7C2FCD5
:101CE000CDE9060102F092F90746884664A16748EB
:101CF000DDE90A2300F01CFF0521644800F0CEFC5A
:101D000000204FF0804102F081F9CDE902010F98E7
:101D1000FEF7A8FCCDE90001DDE90223FEF71DFC7A
:101D20003A464346CDE90401FEF79FFB0022584B9B
:101D3000CDE90601FEF7B6FC1FD200204FF080412E
:101D400002F064F9CDE902010F98FEF78BFCCDE9B2
:101D50000001DDE90223FEF700FC3A464346CDE9E7
:101D60000401FEF782FB00224A4BCDE90601FEF793
:101D7000B1FC02D201F064FB56E00020464902F0BB
:101D800045F9CDE902010F98FEF76CFCCDE90001A1
:101D9000DDE90223FEF7E1FB3A464346CDE90401C3
:101DA000FEF763FB00223A4BCDE90601FEF77AFC11
:101DB0001ED20020384902F029F9CDE902010F981E
:101DC000FEF750FCCDE90001DDE90223FEF7C5FB7B
:101DD0003A464346CDE90401FEF747FB00222D4B6E
:101DE000CDE90601FEF776FC02D201F099FB1BE07B
:101DF00000240CE035F81400801B0990099840433A
:101E0000C82190FBF1F1109808441090641CC82C74
:101E1000F0D31098FEF726FCCDE9060102F0F6F8A3
:101E20000746884601F044FB3046FEF705FC1B4997
:101E30000790FEF747FA0890FEF721FCCDE90C0168
:101E40003A4643464FF0C0401549FEF714FB07469B
:101E50008846CDE9007813A10C48DDE90C2300F099
:101E600067FE0721094800F019FC00BF9EE600004C
:101E7000080000200C00002038020020A8000020EC
:101E8000663D25342E3266487A000000400400206A
:101E900000002E4000002EC0000008403333533AAB
:101EA00066664A3F55613D25332E32665655723D72
:101EB00025332E326656000014E000235A1E0A49CC
:101EC0000A48006802F0D4FB01280BD100BF802132
:101ED000074800F0C5F80128F9D103480178044803
:101EE00000F034F9E9E7000024000020040000209D
:101EF0000080034010B5FEF7ADFF02210148FFF757
:101F0000F1FD10BD0000074010B501218803FFF767
:101F10002BFD2048FFF71CFE00211E48FFF7B8FDEF
:101F20001D48FFF707FE07201B49488040F2E730B5
:101F300088800020C8800881C8811648FFF7DFFD2F
:101F4000012202211348FFF725FE0E20032100285D
:101F500004DB4A07130E114A135406E04A07140E15
:101F60000F4A00F00F031B1FD45400BF0E2000289F
:101F700009DB00F01F02012191404209920002F1A9
:101F8000E022C2F8001100BF01210248FFF7ADFDB9
:101F900010BD000000000740B804002000E400E08D
:101FA00018ED00E0704770477047000010B5102131
:101FB0000F4800F05DF8012803D110210C4800F013
:101FC0003FF80B4800F0BEF80A49087000230A4A9F
:101FD0000A48006802F0C6FC0748006838B14FF0B4
:101FE000805007490860BFF34F8FBFF36F8F10BD5C
:101FF000008003401000002014000020000000209A
:1020000004ED00E002460B4B986A0B4B9A4205D157
:1020100040F0807020F0FF00084308E0074B9A4230
:1020200005D140F0007020F47F4040EA0120014BD0
:1020300098627047000002400000034000800340A7
:10204000426C0A434264704721B1026B42F00102C4
:10205000026304E0026B4FF6FE731A40026370479E
:10206000024693690B400BB1012000E0002070474D
:102070000246136C0B400BB1012000E000207047BA
:102080001AB1836B0B43836302E0836B8B438363DF
:10209000704700002DE9F04F87B004460D4601A8B7
:1020A000FFF7D6FA019F2448866A2448844206D165
:1020B00006F0070101208840B7FBF0F708E0204850
:1020C000844205D1C6F3022101208840B7FBF0F716
:1020D00028688008B7FBF0F94FEA991809F03F0A21
:1020E000B8000AEB8811B0FBF1FB2868ABEB0000ED
:1020F000C0012968B0FBF1F006900698022803D9C8
:10210000002007B0BDE8F08FC4F82480C4F828A0F0
:10211000E66AA888E9880843298908436989084349
:102120000643E662266B4FF680708643A889064315
:1021300026630120E5E700000000024000000340A4
:10214000008003400146086880B27047CAB202604E
:102150007047704710B520210348FFF7E9F908B12F
:10216000002010BD0120FCE700000B4000B500205E
:10217000044908700846007800F02CF8024908600D
:1021800000BD00001C0000202000002086B00AE0F6
:1021900001A905A0FEF716F8042101A800F07EFAB7
:1021A00003A000F0B5FCF3E7253136730000000012
:1021B0005472616E736D6974204D657373616765E8
:1021C00020546F204C4344202D2053756363657366
:1021D000730D0A00014631B1012906D0022906D04B
:1021E000032908D105E005A0704706A0FCE707A079
:1021F000FAE708A0F8E70020F6E70000CFF3EDEAE1
:10220000F2203000CFF3EDEAF2203100CFF3EDEA17
:10221000F2203200CFF3EDEAF220330086B0002442
:10222000142208A101A8FDF7B3FF09E04FF47A706A
:1022300002F086F82246641C062101A800F0AEFADE
:10224000F4E70000576F726B20776974682062753D
:1022500074746F6E7300000002F072FC0446002577
:1022600036E0142002F06CF8FFF774FF012809D162
:1022700045B902F065FC001B322803D3012502F0AA
:102280005FFC0446012D23D1FFF764FF00BB02F081
:1022900057FC001B32281BD30E480078401CC0B2EC
:1022A0000C490870042801D1002008700948007802
:1022B000FFF790FF084908600846006820B1032135
:1022C0000548006800F0EAF9002502F039FC0446F0
:1022D000C7E700001C0000202000002070B5054664
:1022E000002404E0E1B2284600F004F8641C082C45
:1022F000F8DB70BD70B505460E463146284600F045
:102300001FFB0021284600F091FA00240CE000BFDA
:10231000284600F0DFF900F080000028F8D1002105
:10232000284600F075FB641C402CF0DB70BD08B53E
:10233000009000BF00994A1E00920029FAD108BD02
:1023400010B50446012C04D180212C48FFF706F972
:1023500004E04FF480712948FFF700F90121284873
:10236000FFF7EEF84FF480612448FFF7E9F8052005
:10237000FFF7DDFF2348406840F03F0021494860F7
:102380002148406840F00C001F4948603F2000F0A1
:10239000B5FA0520FFF7CBFF02211948FFF7DEF859
:1023A0000520FFF7C4FF02211548FFF7C9F80520F3
:1023B000FFF7BDFF01211248FFF7C2F84FF480611B
:1023C0000E48FFF7BDF80F4840684FF6C07108404F
:1023D0000C4948600C4840684FF6F37108400A49C0
:1023E0004860012C04D180210448FFF7A9F804E0DB
:1023F0004FF480710148FFF7A3F810BD00000B40B7
:1024000000800B4000800A4000800E4008B500F0BC
:1024100077F800F053F800BF012000F05BF900F0FE
:1024200080000028F8D10120FFF78AFF00BF0220BA
:1024300000F050F900F080000028F8D10220FFF7EA
:102440007FFF0120FFF74AFF0220FFF747FF082028
:1024500003231A4619460090154800F0D9F80820C1
:102460000223032219460090124800F0D1F80820F8
:1024700001230322194600900F4800F0C9F80C20F0
:102480000323082219460090094800F0C1F80C20E7
:102490000223082219460090064800F0B9F80C20E3
:1024A0000123082219460090034800F0B1F808BD46
:1024B000E8560008105700083857000810B54FF4C8
:1024C00000710E48FFF73CF8C820FFF730FF4FF4CB
:1024D00000710A48FFF742F80520FFF728FF00BF08
:1024E000012000F0F7F800F0900030B1022000F079
:1024F000F1F800F090000028F2D110BD00000B4070
:102500000EB501211C48FFF72FFA00208DF80300BB
:102510008DF804008DF805008DF806008DF8070091
:102520003F20ADF8000000208DF802008DF8080073
:1025300001208DF80A0003208DF8090069460F4834
:10254000FEF712FF0C20ADF8000069460C48FEF7BC
:102550000BFF4FF4F060ADF8000001208DF8020091
:1025600069460848FEF700FF0320ADF80000694601
:102570000548FEF7F9FE0EBD0000E02000800A408D
:1025800000800E4000000B4000800B402DE9F05F02
:1025900005460C4691462046E11704EB5171C910DF
:1025A0004E1CCA462046E11704EB5171C910A4EB3A
:1025B000C1014FEAC10B0AF0FF01F0B200F0C0F90F
:1025C0000BF0FF01F0B200F031F9202D06DBFF2DFA
:1025D00004DCA5F120004FEAC00801E04FF000083C
:1025E00047460DE000BFF0B200F074F800F0800044
:1025F0000028F8D1054AD15DF0B200F009FA7F1C3D
:1026000008F108008742EDDBBDE8F09FC04E0008EE
:102610002DE9FF4F83B08046894692464FF0000B6C
:102620004E4635E054462FE02046E11704EB517149
:10263000C9104D1C0296E11704EB5171C910A4EBAF
:10264000C101CA000192029EF1B2E8B200F078F92D
:10265000019AD1B2E8B200F0E9F800270FE000BF1C
:10266000E8B200F037F800F080000028F8D10BEB5A
:10267000070218F80210E8B200F0CAF97F1C082F10
:10268000EDDB0BF1080B641C10988442CCDD761C4A
:1026900006988642C6DD07B0BDE8F08F70B50546E6
:1026A0000E46002408E0285D00B907E0285D3246A8
:1026B0002146FFF76BFF641C102CF4DB00BF05E024
:1026C000324621462020FFF761FF641C102CF7DB07
:1026D00070BD000070B504462C4840684FF6C071CC
:1026E00008402A4948602A4840684FF6F37108407C
:1026F00027494860012C04D180212648FEF72EFF8F
:1027000004E04FF480712348FEF728FF012122489E
:10271000FEF716FF4FF480611E48FEF71FFF0520ED
:10272000FFF705FE02211C48FEF718FF0520FFF702
:10273000FEFD1648006800F03F0015490968C022F8
:1027400002EA011140EA01050520FFF7F0FD022130
:102750001148FEF7F5FE0520FFF7E9FD01210E48BF
:10276000FEF7EEFE4FF480610A48FEF7E9FE012C09
:1027700004D180210748FEF7E3FE04E04FF48071A6
:102780000448FEF7DDFE284670BD000000800A40C8
:1027900000800E4000000B4000800B402DE9F04708
:1027A00086B08046894617464046FDF703FD06463B
:1027B00000208DF8140016B906B0BDE8F08797FB2D
:1027C000F6F006FB1077102E19DA002414E0E51954
:1027D000102D06DB2846E91705EB11710911A5EB51
:1027E0000115B54202DA18F805A001E04FF0200A01
:1027F00001A800F804A0641C102CE8DB0FE0002402
:102800000BE0E519B54203DB95FBF6F006FB10552E
:1028100018F8050001A90855641C102CF1DB494685
:1028200001A8FFF73BFF00BFC6E7000070B50446F4
:102830000D46012C04D180212C48FEF78FFE04E0C8
:102840004FF480712948FEF789FE01212848FEF7E0
:1028500077FE4FF480612548FEF772FE0520FFF7F2
:1028600066FD2448406840F03F0022494860224805
:10287000406840F00C002049486045F0400000F0FE
:102880003DF80520FFF753FD02211948FEF766FECB
:102890000520FFF74CFD02211548FEF751FE0520EB
:1028A000FFF745FD134840684FF6C07108401149D5
:1028B0004860114840684FF6F37108400E4948607F
:1028C00001210B48FEF73CFE4FF480610748FEF7FC
:1028D00037FE012C04D180210448FEF731FE04E0CC
:1028E0004FF480710148FEF72BFE70BD00000B40D5
:1028F00000800B4000800A4000800E400E490968AD
:102900004FF6C07211400C4A11601146096800F080
:102910003F021143084A1160084909684FF6F372F3
:102920001140064A1160114609680C2202EA201281
:102930001143024A1160704700800A4000800E4037
:1029400070B504460D46012C04D180212C48FEF7B9
:1029500005FE04E04FF480712948FEF7FFFD0121D8
:102960002848FEF7EDFD4FF480612548FEF7E8FDAD
:102970000520FFF7DCFC2448406840F03F00224976
:1029800048602248406840F00C002049486045F00B
:10299000B800FFF7B3FF0520FFF7C9FC0221194873
:1029A000FEF7DCFD0520FFF7C2FC02211548FEF70B
:1029B000C7FD0520FFF7BBFC134840684FF6C07108
:1029C000084011494860114840684FF6F3710840CB
:1029D0000E49486001210B48FEF7B2FD4FF48061BB
:1029E0000748FEF7ADFD012C04D180210448FEF715
:1029F000A7FD04E04FF480710148FEF7A1FD70BD12
:102A000000000B4000800B4000800A4000800E4018
:102A100070B504460D46012C04D180212C48FEF7E8
:102A20009DFD04E04FF480712948FEF797FD0121D8
:102A30002848FEF793FD4FF480612548FEF780FD9E
:102A40000520FFF774FC2448406840F03F0022490D
:102A500048602248406840F00C0020494860284601
:102A6000FFF74CFF0520FFF762FC02211948FEF733
:102A700075FD0520FFF75BFC02211648FEF760FD9F
:102A80000520FFF754FC144840684FF6C071084019
:102A900011494860114840684FF6F37108400F49EA
:102AA000486001210B48FEF74BFD4FF48061084858
:102AB000FEF746FD012C04D180210548FEF740FDBC
:102AC00004E04FF480710248FEF73AFD70BD00004B
:102AD00000000B4000800B4000800A4000800E4048
:102AE00010B503A000F014F8002001F043FC10BD65
:102AF000576F726B20776974682053656D617068D9
:102B00006F72730D0A00000000BFFEE770470000FF
:102B10000FB4054B10B503A9044A029800F0F4F86D
:102B200010BC5DF814FB0000B53500089C000020C7
:102B30000FB4084B10B504A902AA039800F0E4F8FA
:102B4000044602A9002000F076FC204610BC5DF887
:102B500014FB00003734000802E008C8121F08C147
:102B6000002AFAD170477047002001E001C1121F0E
:102B7000002AFBD17047000001490860704700003F
:102B8000A00000202DE9FF5F82B00021DDE90430C4
:102B9000020DDDF840B0034318D044F61050A2F205
:102BA000FF3242431514119801281FD0A5EB0B00EA
:102BB000401C5FEA000A4FF000064E4FDFF83891E4
:102BC000B046504615D5CAF1000413E0119801240F
:102BD0004AA3012801D16FEA0B010298119AC0E9BA
:102BE0000031C0E9024206B0BDE8F09FCBF1000021
:102BF000DFE704460021404A491842EB0450CDE982
:102C0000001012E0E00707D032463B4640464946F6
:102C1000FDF731FC8046894632463B461046194650
:102C2000FDF729FC06460F466410002CEAD1DDE9C9
:102C30000401DDE90023BAF1000F06DAFDF71BFC01
:102C400042464B46FDF717FC05E0FDF786FC424681
:102C50004B46FDF782FC04460E460022284BFDF74A
:102C600039FD03D84FF0FF30014607E00022254B25
:102C700020463146FDF758FBFDF79BFE102409E086
:102C8000002C0ADB0A220023FDF752FD039B3032A1
:102C90001A55641E50EA0102F2D1641C039AC4F171
:102CA00011031444119A012A03D0012208430DD1C3
:102CB0000AE0084304D000204FF0110B119072E796
:102CC000A3EB0B056D1E0DE05B4504DD4FF000022C
:102CD00005F1010504E003DA4FF00002A5F101055A
:102CE000002AECD002981199C0E90231C0E90045F0
:102CF00079E70000000014400000F03F30000000C1
:102D00000000F0430000E03F2DE9FF4F95B09B46E7
:102D10008946064600250FE2252877D1002427465C
:102D2000F84A0121059400E0044316F8013F203BD6
:102D300001FA03F01042F7D130782A2811D06FF051
:102D40002F033078A0F13002092A16D8059A44F0F2
:102D5000020402EB820203EB42021044761C05904F
:102D6000EFE759F8042B0592002A03DA504244F4A5
:102D70000054059044F00204761C30782E2816D1B9
:102D800016F8010F44F004042A280DD06FF02F022A
:102D90003078A0F13003092B09D807EB870302EB49
:102DA0004303C718761CF3E759F8047B761C307888
:102DB0006C280FD006DC4C2817D068280DD06A2864
:102DC00014D104E0742810D07A280FD10DE044F417
:102DD00000140AE044F4801401E044F440147278D2
:102DE000824202D104F58014761C761C3078662865
:102DF0000BD013DC582877D009DC002875D0452883
:102E0000F6D04628F4D047281AD19DE118E063286F
:102E100035D0642879D0652812D195E1702873D017
:102E200008DC6728F1D069286FD06E280DD06F2894
:102E300006D1B5E073282CD0752875D0782874D0C9
:102E40005A46179990476D1C75E1C4F30250022849
:102E500009D003280DD0D9F8001004280DD00D603A
:102E600009F1040967E1D9F80010EA17C1E9005235
:102E7000F6E7D9F800100D80F2E70D70F0E719F8C9
:102E8000041B8DF8001000208DF80100EA46012097
:102E900003E059F804AB4FF0FF3061074FF0000139
:102EA00002D40DE008F101018846B9420FDA8045ED
:102EB000F8DB1AF808100029F4D108E008F1010144
:102EC00088468142FADB1AF808100029F6D10598E5
:102ED0005B46A0EB080721463846179A00F094FAA3
:102EE000284400EB080507E04DE029E10DE01AF861
:102EF000010B5A4617999047B8F10108F7D25B4683
:102F000021463846179A13E142E00A220092C4F3A0
:102F100002524FF0000A022A08D059F804CB032AC3
:102F20004FEAEC710AD00DE029E02AE009F107012F
:102F300021F00702F2E802C1914609E00FFA8CFC89
:102F40004FEAEC71042A03D14FFA8CFC4FEAEC7182
:102F5000002907DA0A460021DCF1000C61EB0201CE
:102F60002D2202E0220504D52B228DF80420012217
:102F700003E0E20701D02022F7E7904659E00A215A
:102F800002E010220DE010214FF0000A00910BE04A
:102F900010224FF0000A44F004040827009203E0D6
:102FA00008224FF0000A0092C4F30252022A05D010
:102FB00059F804CB0021032A08D009E009F10701E0
:102FC00021F00702F2E802C1914605E01FFA8CFCED
:102FD000042A01D10CF0FF0C4FF00008220728D57D
:102FE000702806D0009B83F0100353EA0A0305D033
:102FF0000EE040228DF80420012208E05CEA010284
:1030000006D030228DF804208DF80500022290466B
:10301000009B83F0080353EA0A030AD15CEA010229
:1030200001D1620705D530228DF804204FF0010848
:103030007F1E582804D034A003900EA802900DE003
:1030400036A0F9E753466046009AFDF771FB8446C7
:103050000398825C0298401E029002705CEA0100B4
:10306000F0D1029806A9081A00F1200A600702D5DB
:1030700024F4803400E00127574502DDA7EB0A0065
:1030800000E0002000EB0A01009005984144401A3E
:103090000590E00306D45B462146179A059800F098
:1030A000B3F90544002706E001A85A46C05D179908
:1030B00090476D1C7F1C4745F6DBE0030CD55B4653
:1030C0002146179A059800F09FF9054404E0302046
:1030D0005A46179990476D1C0099481E0090002988
:1030E000F5DC08E0029802995A460078491C0291E2
:1030F000179990476D1CBAF10001AAF1010AF1DCA1
:1031000065E10000092801003031323334353637AB
:103110003839616263646566000000003031323323
:1031200034353637383941424344454600000000C3
:1031300000F058F90544761C307800287FF4ECAD97
:1031400019B02846BDE8F08F620700D4062709F1C0
:10315000070222F0070CFCE80223E14603F00048D6
:103160005FEA080C02D00FF2702C0DE05FEA045CFD
:1031700002D50FF2682C07E05FEAC47C02D00FF2A0
:10318000602C01E0AFF2700C4FF0FF3823F00043E9
:10319000CDF850C065280CD006DC452809D046285B
:1031A0001DD047283DD13DE0662818D067287ED144
:1031B00038E00021112F01DB112000E0781CCDE95F
:1031C000000106A90EA8FFF7DDFCDDE90F010E9A4C
:1031D00003910021009207F1010A04914DE04FF0A4
:1031E00000400097CDE9011006A90EA8FFF7CAFC20
:1031F000DDE90F0203920E9B11990022DDF80CA06D
:103200000093049211B9791C00EB010AB7EB0A0094
:1032100004D4C0F1FF3007F1010A0490AAEB0700C3
:10322000019044E0012F00DA01270021112F01DD78
:10323000112000E03846CDE9000106A90EA8FFF7ED
:10324000A1FCDDE90F010E9A039100210491009287
:10325000BA4621070CD40399514500DA8A46BAF1DF
:10326000010F05DD009AAAF10101515C302908D057
:10327000B84202DA10F1040F06DA0121CDE901109B
:1032800015E0AAF10101E9E7002805DC04990144F1
:103290000491AAEB000102E0411C514500DD8A4681
:1032A0000499401A401C01904FF000400290200702
:1032B00004D40198504501DBCDF8048000208DF83E
:1032C0004F0002980DF14F07B0F1004F25D02B2091
:1032D0000E9002984FF0020800280CDA404202904B
:1032E0002D200E9007E00A210298FDF70BFA3031ED
:1032F000029007F8011DB8F10001A8F10108F2DC05
:1033000002980028EFD1791E0E980870307800F0EE
:10331000200040F0450007F8020D12A8C01B00F184
:1033200007081498007800B1012000EB0A01019809
:1033300001EBE07105984144401A401E0590E003FE
:1033400006D45B462146179A059800F05DF80544BF
:103350001498007818B15A46179990476D1CE003ED
:1033600024D55B462146179A059800F04DF8054490
:103370001CE00498002807DBDDE90301884203DD37
:103380000098405C179901E0179930205A46904701
:10339000049805F10105401C04900198401E01901D
:1033A00004D12E205A46179990476D1CBAF100019E
:1033B000AAF1010ADDDC05E017F8010B5A4617995E
:1033C00090476D1CB8F10001A8F10108F4DC5B46E0
:1033D0002146179A0598ABE62D0000002B0000004F
:1033E000200000002DE9F041044600251E46174646
:1033F000880404D405E039462020B0476D1C641EC3
:10340000F9D52846BDE8F0812DE9F04104460025B4
:103410001E469046C80301D5302700E020278804C7
:1034200004D505E041463846B0476D1C641EF9D509
:103430002846BDE8F0810A68531C0B601070704785
:1034400008B5072003231A46194600901548FFF7D0
:10345000DFF8072002230322194600901248FFF7E5
:10346000D7F8072001230322194600900F48FFF7E1
:10347000CFF80C2003230822194600900948FFF7D3
:10348000C7F80C2002230822194600900648FFF7CF
:10349000BFF80C2001230822194600900348FFF7CB
:1034A000B7F808BDE856000810570008385700085C
:1034B00008B5072003231A46194600901548FFF760
:1034C000A7F8072002230322194600901248FFF7AD
:1034D0009FF8072001230322194600900F48FFF7A9
:1034E00097F80C2003230822194600900948FFF79B
:1034F0008FF80C2002230822194600900648FFF797
:1035000087F80C2001230822194600900348FFF792
:103510007FF808BDE0550008105600084056000826
:1035200008B5072003231A46194600901548FFF7EF
:103530006FF8072002230322194600901248FFF774
:1035400067F8072001230322194600900F48FFF770
:103550005FF80C2003230822194600900948FFF762
:1035600057F80C2002230822194600900648FFF75E
:103570004FF80C2001230822194600900348FFF75A
:1035800047F808BD7056000898560008C056000855
:1035900038B5044600235A1E69460548006801F004
:1035A00067F8012802D19DF8000038BD0020FCE733
:1035B0000000002038B504460D46E0B2009000231C
:1035C0001A4669460248006801F040F9204638BDB5
:1035D0000400002010B500F03FFD10BD1CB5FFF742
:1035E000F9FFFDF7F5FD00F057FDFEF78DFCFDF747
:1035F0005DFCFDF77FFDFEF709FFFEF7B7FD032237
:103600000021012001F018F82C49086008460068E4
:1036100030B100231A4619462848006801F016F90F
:1036200000220121802001F007F8254908600022CE
:103630000121C80201F000F822490860002002219F
:1036400003468022CDE900101FA1214801F038FA7D
:103650000020022103468022CDE900101DA11F4851
:1036600001F02EFA0020022103468022CDE900104D
:103670001BA11D4801F024FA0020032103468022EB
:10368000CDE9001019A11B4801F01AFA0020012110
:1036900003468022CDE9001017A1194801F010FA65
:1036A0000020012103468022CDE9001015A1174812
:1036B00001F006FA00F02AFF00201CBD08000020DF
:1036C00000000020040000205461736B31000000F2
:1036D000592200085461736B320000001D2200085B
:1036E0005461736B330000008D2100085461736BCB
:1036F00034000000E12A00085461736B35000000BB
:10370000B91E00085461736B36000000A91B000845
:103710002DE9F04105460E46164807681648006830
:10372000001D00F039FD681C38B936B11248016837
:10373000091D124800F06FFD1AE07C190E48006860
:103740004460BC4207D20C480168091D0C4800685F
:1037500000F047FD0CE008480168091D09480068B1
:1037600000F03FFD08480068844201D2064804602A
:10377000BDE8F0815800002044000020D45500200E
:103780004C000020480000207400002010B50446C2
:1037900000F04EFD22480068401C21490860214885
:1037A000006840B91F4804600846006801280DD130
:1037B00000F0AAF90AE01C48006838B91948006806
:1037C000C06AE16A884201D8164804601748006858
:1037D000401C164908601649E06A0968884202D907
:1037E0001349E06A0860E16A01EB8101114A02EBCA
:1037F0008100211D00F00FFD00F02CFD0A4800683B
:1038000068B108480068C06AE16A884207D24FF090
:10381000805009490860BFF34F8FBFF36F8F10BD11
:1038200054000020440000206000002070000020B0
:103830005C0000202055002004ED00E010B500F0F1
:10384000F7FC10480068D0B90F4800F0BAFC0F48E8
:1038500000F0B7FC0C480E4908600C480D490860A0
:1038600000220C210A2000F0E7FE06490860084605
:10387000006820B108A10348006800F025FD00F0B1
:10388000E9FC10BD88000020E8550020FC55002010
:103890008000002084000020546D72510000000060
:1038A00070B523E000F06AFE1348006808B90120F3
:1038B00000E00020054601F03BFABDB900F0B8FC7D
:1038C0000D48C068C468201D00F066FC0B48006805
:1038D000401E0A4908600A480068401E08490860FE
:1038E00000F0B8FC204600F060F800BF0448006813
:1038F0000028D7D170BD0000C05500205400002022
:103900005000002070B504460D46206C70B1216C4B
:10391000E0680844E0606168E068884201D320689C
:10392000E0602846226CE168FCF732FC70BD2DE9AE
:10393000F04104460F4615464FF00008A66B206C78
:1039400040B9206860BB606801F082F980460020C1
:10395000606025E07DB93946226CA068FCF718FC50
:10396000216CA0680844A060D4E90110884217D3F4
:103970002068A06014E03946226CE068FCF708FC7F
:10398000216CE068401AE0602168E068884203D258
:10399000216C6068401AE060022D01D106B1761EEC
:1039A000701CA0634046BDE8F08110B50446206B52
:1039B00000F060FC204600F05DFC10BD0146084AA6
:1039C000126812680AB9012200E000220A600A683F
:1039D00022B9034A1268D268106800E000207047DC
:1039E000800000200A4A22F007000A4A10600022E4
:1039F000084B5A6044F6F872074B5A6000221A606E
:103A0000014644F6F8724A601A460A6070470000A0
:103A1000D8040020280000203000002000BFFFF75D
:103A20003FFF07480068012807D94FF0805005493B
:103A30000860BFF34F8FBFF36F8F00F0C1FBEEE75D
:103A40002055002004ED00E02DE9F04106460D462A
:103A500017469846069C0DB9246000E02760E6638F
:103A600025640121204600F0B1FEBDE8F0812DE97A
:103A7000FF5F80460F469146DDE90E6A109CA9F172
:103A80000100216B01EB800B2BF0070B002507E0F9
:103A9000795D04F134004155785D00B902E06D1C98
:103AA000102DF5D300BF002143200155052E00D372
:103AB0000426E66266640020A064201D00F08EFBF0
:103AC00004F1180000F08AFB2461C6F10500A06132
:103AD0006462002505E0002104F14C0040F8251047
:103AE0006D1C052DF7D30020206684F86400414644
:103AF0005846039A00F078FA2060BAF1000F01D01E
:103B0000CAF80040BDE8FF9F10B5002407E004EBB1
:103B100084010F4A02EB810000F053FB641C052C6A
:103B2000F5D30C4800F04DFB0B4800F04AFB0B4866
:103B300000F047FB0A4800F044FB0A4800F041FB54
:103B400004480949086004480849086010BD00009D
:103B5000205500208455002098550020AC550020A9
:103B6000C0550020D4550020480000204C00002003
:103B70002DE9F04104460D4616461F464FF0000859
:103B800065602461B5420CD8F01BA169884202D35C
:103B90004FF0010811E0211D0948006800F021FBE9
:103BA0000BE0BE4204D2BD4202D34FF0010804E054
:103BB000211D0448006800F014FB4046BDE8F08178
:103BC000840000208000002070B5054600F030FB26
:103BD000A86B08B9012400E0002400F03BFB20465C
:103BE00070BD70B5054600F023FBA86BE96B8842F9
:103BF00001D1012400E0002400F02CFB204670BD20
:103C0000F8B505460E4610480068C068C468201D17
:103C100000F0C2FAE069012811D1A06941192B46D0
:103C200032462046FFF7A4FF48B1002003462A464B
:103C300001460090204601F00DF9074600BF2046DE
:103C4000616A8847F8BD00008000002070B586B02A
:103C50004DE0039800284ADB059C606908B9012003
:103C600000E0002010B9201D00F096FA02A800F034
:103C70009FF8054603980A2837D2DFE800F00905C7
:103C8000072527320608262800BF00BF00BF00BF57
:103C90000498A269811803462A462046FFF768FF68
:103CA00088B12046616A8847E06901280BD100206D
:103CB00000900498A169421800231946204601F09B
:103CC000C9F8064600BF11E000BF0FE000BF04982E
:103CD000A061A06941192B462A462046FFF748FFFC
:103CE00004E0204600F0C6FA00E000BF00BF002359
:103CF0001A4603A90348006800F0BAFC0028A8D1BE
:103D000006B070BD88000020F8B505460C4600F0EE
:103D100035FC684600F04CF80646009820BB44B9D4
:103D2000B54206D801F004F831462846FFF768FF8F
:103D30001CE03CB10E480068006808B9012000E0B2
:103D400000200446A91B22460A48006800F0D2FA67
:103D500000F0EEFF50B94FF0805007490860BFF304
:103D60004F8FBFF36F8F01E000F0E2FFF8BD00005E
:103D7000840000208800002004ED00E00A49096862
:103D8000096809B9012100E0002121B14FF0FF319C
:103D9000064A116006E004490968C968C868034A10
:103DA0004168116070470000480000207400002046
:103DB00070B5044600F0C4FE054607480068854219
:103DC00004D200F00BF80120206001E00020206008
:103DD00001480560284670BD900000202DE9F84399
:103DE00026E01D480068C06805681B480068C06878
:103DF000C468201D00F0D0F92046616A8847E06958
:103E0000012815D1A0694619AE4207D96660246120
:103E1000211D1148006800F0E4F909E00020034684
:103E20002A4601460090204601F014F8804600BF63
:103E300009480068006808B9012000E00020002857
:103E4000CFD0054807680548006803490860034863
:103E50000760BDE8F8830000800000208400002097
:103E600000BFBF2080F31188BFF34F8FBFF36F8F68
:103E700000BF00BFFEE708B500BF6846FFF79EFD24
:103E8000044620460099FFF73FFFFFF7DFFEF4E707
:103E900070B5044600F0CCF994F9455010E0606A22
:103EA00008B9012000E0002038B904F1240000F036
:103EB000FFFE18B100F0AEFA00E003E0681E45B264
:103EC000002DECDC00BFFF2084F8450000F0C2F9B3
:103ED00000F0AEF994F9445010E0206908B90120CF
:103EE00000E0002048B904F1100000F0E1FE08B144
:103EF00000F090FA681E45B200E001E0002DECDC15
:103F000000BFFF2084F8440000F0A4F970BD000059
:103F10002DE9F04104464FF0000800F02FFB264841
:103F2000006820B9FFF75EFD01202349086044B115
:103F3000083404F0070020B104F00700C0F10800C5
:103F40000444002C32D044F6F87084422ED21B4F29
:103F50003846056801E02F462D686868A04202D205
:103F600028680028F7D1164885421FD0386800F12C
:103F70000808286838606868001B102810D92E19B6
:103F80006868001B70606C6071680C4800E0006835
:103F9000026852688A42FAD302683260066000BF43
:103FA000084968680968081A0649086000F0C0FEF8
:103FB0004046BDE8F08100003C00002028000020C1
:103FC00030000020380000200648006830B1054964
:103FD000096801F14800896C491C016001480068CA
:103FE0007047000044000020001F4FF08073036002
:103FF000001F21F001030360001F034B036014380E
:104000000260203870470000613E00082DE9F04151
:1040100006460F46FCF77CFC041E0D4618BF012027
:10402000284320F00040C0F17F6000F1E040C00F65
:104030000ED0301C18BF0120384320F00040C0F1E2
:104040007F6000F1E040C00F04BF0120FEF794FD47
:1040500020462946BDE8F08110B50120FDF74CFC53
:10406000FDF768FC012814D109210220FDF79AFA16
:104070000120FDF791FAFDF7B5FA012809D10020DA
:10408000FDF7D0FA0120FDF7C7FA4FF48070FDF775
:10409000D5FAFDF795FC10BD10B588B00121480791
:1040A000FDF762FC01214807FDF75EFC00208DF85A
:1040B00017008DF818008DF819008DF81A008DF88A
:1040C0001B0003208DF81C008DF81D0001208DF8C9
:1040D0001E0000208DF816000120ADF8140005A97F
:1040E0002948FDF741F901208DF816000220ADF8AE
:1040F000140005A92448FDF737F901218020FDF7B8
:1041000033FC00212148FDF77DFF4FF4E1300190A1
:104110006020ADF808000020ADF80A00ADF80C00F2
:10412000ADF80E004FF44070ADF8100001A917482B
:10413000FDF7B0FF012210211448FDF7A1FF072071
:104140000221002804DB4A07130E114A135406E02B
:104150004A07140E0F4A00F00F031B1FD45400BF70
:104160000720002809DB00F01F02012191404209CD
:10417000920002F1E022C2F8001100BF01210348C1
:10418000FDF762FF08B010BD00800E4000800340C4
:1041900000E400E018ED00E001460A69D1E90130D1
:1041A0009860D1E9010358605068884201D188685D
:1041B0005060002008611068401E10601068704751
:1041C000704700F1080141604FF0FF31816000F15C
:1041D0000801C16001610021016070470021016197
:1041E000704710B502460B685C1C0CB9106907E0FB
:1041F00002F1080000E04068446824689C42FAD953
:1042000044684C604C68A160886041600A61146831
:10421000641C146010BD42684A6093688B609368A8
:1042200059609160086103685B1C0360704700007F
:1042300000BFBF2080F31188BFF34F8FBFF36F8F94
:1042400000BF03480068401C014908607047000037
:104250004000002006480068401E054908600846E6
:10426000006820B9002080F3118800BF00BF7047AC
:104270004000002070B506463546B6B1083D2C46D4
:1042800000F07CF96168094800E000680268526843
:104290008A42FAD3026822600460054960680968AE
:1042A00008440349086000F043FD70BD2800002069
:1042B0003800002003484FF0E021486107200861E2
:1042C000704700007F380100024600200BE0084BD9
:1042D00053F8303033B9064B43F8301003EBC003CA
:1042E0005A6002E0401C0A28F1D300BF704700006A
:1042F000D05400202DE9F04105460E4617462C46C5
:10430000FFF796FF94F94400401C10B9002084F890
:10431000440094F94500401C10B9002084F8450081
:10432000FFF798FFA06B28B93A46314604F1240004
:1043300000F086F82046FFF7ABFDBDE8F0810000F5
:1043400070B50446002544B100F018F9002120465C
:10435000FFF7DEF900F0ECFC05463DB94FF0805068
:1043600003490860BFF34F8FBFF36F8F70BD00002C
:1043700004ED00E070B50546FFF75AFF15B91E4879
:10438000006800E028460446201DFFF705FFA06AEC
:1043900018B104F11800FFF7FFFE18480068401C30
:1043A0001649086014480068844209D1211D144848
:1043B000FFF731FF13480068401C1249086009E00C
:1043C00011480068401E104908602046FFF7EDFACA
:1043D000FFF7D4FCFFF73EFF0C48006858B10648D1
:1043E0000068844207D14FF0805009490860BFF34C
:1043F0004F8FBFF36F8F70BD44000020700000200E
:10440000C055002050000020540000206000002013
:1044100004ED00E0012001490860704768000020B9
:1044200070B505460C460548016818312846FFF767
:10443000D8FE01212046FFF76BF970BD4400002033
:1044400070B506460D4614460648016818313046D8
:10445000FFF7E1FE0CB14FF0FF3521462846FFF78C
:1044600057F970BD4400002070B505462C46002D5C
:1044700039D01D49E06A0968C96A884233D2A06907
:1044800000F0004028B918480068C06AC0F1050073
:10449000A061E16A01EB8101144A02EB81016069CC
:1044A000884201D1012000E00020C0B1201DFFF7AB
:1044B00073FE0D480068C06AE0620D49E06A096851
:1044C000884202D90A49E06A0860E16A01EB810189
:1044D000064A02EB8100211DFFF79DFE03E0024822
:1044E0000068C06AE06270BD4400002020550020D2
:1044F0005C000020034909680160034909684160C4
:10450000704700006C000020580000201CB51448C3
:1045100000210B468022CDE9001012A1134800F0C3
:10452000CFFA0446012C02D100F076FC0446012C9F
:1045300014D100BFBF2080F31188BFF34F8FBFF3AA
:104540006F8F00BF4FF0FF30094908600120094913
:10455000086000200849086000F054F81CBD000005
:104560007800002049444C45000000001D3A000836
:1045700074000020600000205800002002480068FD
:10458000401C0149086070477C0000201848006802
:1045900018B101201749086028E00020154908607B
:1045A0001548016800E0491E01EB8100134A52F8EA
:1045B000200008B9012000E000200028F3D101EB21
:1045C00081020E4B03EB820042685268426000F1A8
:1045D00008024368934202D14268526842604268CE
:1045E000D268074B1A600448016000BF70470000A2
:1045F0007C000020680000205C0000202055002086
:104600004400002010B50A48006840F47F000849C3
:1046100008600846006840F07F400860FFF74AFEE7
:10462000002004490860FBF767FD002010BD000072
:1046300020ED00E0400000202DE9F84307460D463C
:1046400090460DB9002601E007FB05F606F148008B
:10465000FFF75EFC044644B104F1480943464A466C
:10466000294638460094FFF7EFF92046BDE8F88365
:104670002DE9FF4782B0054689461E464FF0000AE5
:104680002C4600BFFFF7D4FDD4F83880B8F1000FF6
:104690003BD0E76849462046FFF734F9DEB9A8F178
:1046A0000100A063206810B9FFF78EFC60602069EC
:1046B00008B9012000E0002008BB04F1100000F060
:1046C000F7FAE0B14FF080503F490860BFF34F8FD9
:1046D000BFF36F8F13E0E760606A08B9012000E064
:1046E000002060B904F1240000F0E2FA38B14FF084
:1046F000805035490860BFF34F8FBFF36F8FFFF7CE
:10470000A9FD012006B0BDE8F087049818B9FFF7AD
:10471000A1FD0020F6E7BAF1000F04D16846FFF7CB
:10472000E9FE4FF0010AFFF795FDFFF727FFFFF7BE
:104730007FFD94F94400401C10B9002084F8440027
:1047400094F94500401C10B9002084F84500FFF79B
:1047500081FD04A9684600F085F940BB2046FFF7BB
:1047600033FAF0B1206830B9FFF762FD6068FFF7F7
:104770007BFEFFF76FFD04F124000499FFF750FE64
:104780002046FFF785FB00F0D3FA00287FF47AAFCC
:104790004FF080500C490860BFF34F8FBFF36F8F0D
:1047A00070E72046FFF774FB00F0C2FA6AE7204684
:1047B000FFF76EFB00F0BCFA2046FFF705FA002871
:1047C000EED000209EE7000004ED00E070B5054645
:1047D0000E462C46FFF72CFDD4E90F12206801FB92
:1047E000020060600020A0632068A060E06B401EB3
:1047F000226C216800FB0210E060FF2084F8440076
:1048000084F845009EB9206908B9012000E0002025
:10481000A8B904F1100000F04BFA80B14FF08050BD
:1048200009490860BFF34F8FBFF36F8F07E004F1B2
:104830001000FFF7C6FC04F12400FFF7C2FCFFF7ED
:1048400009FD012070BD000004ED00E02DE9FF43EB
:1048500083B0074688461D464FF000093C4600BF1E
:10486000FFF7E6FCA06BE16B884201D3022D28D153
:104870002A4641462046FFF75AF80646606A08B9BC
:10488000012000E0002068B904F1240000F010FAD3
:1048900088B14FF0805032490860BFF34F8FBFF3AB
:1048A0006F8F08E03EB14FF080502D490860BFF394
:1048B0004F8FBFF36F8FFFF7CDFC012007B0BDE82E
:1048C000F083059818B9FFF7C5FC0020F6E7B9F1A9
:1048D000000F04D101A8FFF70DFE4FF00109FFF70B
:1048E000B9FCFFF74BFEFFF7A3FC94F94400401C12
:1048F00010B9002084F8440094F94500401C10B918
:10490000002084F84500FFF7A5FC05A901A800F0E8
:10491000A9F8F0B92046FFF764F9A0B104F110003E
:104920000599FFF77DFD2046FFF7B2FA00F000FA87
:10493000002895D14FF0805009490860BFF34F8F90
:10494000BFF36F8F8CE72046FFF7A2FA00F0F0F973
:1049500086E72046FFF79CFA00F0EAF90020ADE771
:1049600004ED00E02DE9F05F05468A4616461F4635
:104970002C4600BFBF21EFF3118081F31188BFF3F4
:104980004F8FBFF36F8F00BF8146A06BE16B8842F2
:1049900001D3022F20D194F945B03A465146204622
:1049A000FEF7C5FF0BF1010070B9606A08B901207C
:1049B00000E0002068B904F1240000F079F940B16A
:1049C0003EB10120306004E00BF1010040B284F8F8
:1049D00045004FF0010801E04FF0000800BF89F3E7
:1049E000118800BF4046BDE8F09F2DE9F04705461D
:1049F0000E462C4600BFBF21EFF3118081F31188D2
:104A0000BFF34F8FBFF36F8F00BF8046D4F838904D
:104A1000E06B48451DD994F945A009F10100A06358
:104A20000AF1010070B9606A08B9012000E00020B5
:104A300068B904F1240000F03BF940B13EB1012017
:104A4000306004E00AF1010040B284F8450001271B
:104A500000E0002700BF88F3118800BF3846BDE89A
:104A6000F087000070B504460D46FFF7E1FB1248E1
:104A700002682868401C08B9002619E00F49206820
:104A80000968884204D06068904201D801260FE08E
:104A90006068101A2968884209D228686168511A2A
:104AA000401A28602046FFF725FD002600E0012679
:104AB000FFF7D0FB304670BD580000206C0000208E
:104AC0002DE9FF4F85B0804689461746DDE912ABD8
:104AD000B800FFF71DFA064656B16820FFF718FA2E
:104AE00004460CB1266304E03046FFF7C3FB00E048
:104AF00000247CB10020CDE900ABCDE902403A466C
:104B000049464046089BFEF7B2FF2046FEF73EFEB0
:104B1000012501E04FF0FF35284609B0BDE8F08FD0
:104B20000549096809B9012005E00449096809B97E
:104B3000022000E000207047600000207C00002080
:104B40000149086870470000580000202DE9F04135
:104B5000002734480068002857D133480068451CB6
:104B6000314805608DB93148D0F800803048006880
:104B70002E4908602E48C0F800802E480068401C6E
:104B80002C490860FFF7FAF800BF2B4800688542FF
:104B90003AD300BF25480068006808B9012000E04A
:104BA000002020B14FF0FF30234908602BE01F4860
:104BB0000068C068C4686668B54202D21E480660D4
:104BC00021E0201DFFF7E8FAA06A18B104F11800EF
:104BD000FFF7E2FA1949E06A0968884202D91749E1
:104BE000E06A0860E16A01EB8101154A02EB81008D
:104BF000211DFFF710FB1349E06A0968C96A884262
:104C0000C8D30127C6E700BF04E00F480068401C76
:104C10000D4908600D48006800B101273846BDE81D
:104C2000F08100007C000020580000204800002097
:104C30004C0000206C000020740000205C0000206C
:104C4000205500204400002064000020680000205F
:104C500070B505462C4600261DB3A06C401EA0640E
:104C6000616CE06A88421CD0A06CD0B9201DFFF7AF
:104C700093FA606CE062E06AC0F10500A0610A4945
:104C8000E06A0968884202D90749E06A0860E16A77
:104C900001EB8101054A02EB8100211DFFF7BBFA00
:104CA0000126304670BD00005C0000202055002029
:104CB00070B50646F068C46804F11800FFF76CFA96
:104CC00015480068A0B9201DFFF766FA1349E06A8D
:104CD0000968884202D91149E06A0860E16A01EB7B
:104CE00081010F4A02EB8100211DFFF794FA04E0D5
:104CF00004F118010B48FFF78EFA0B49E06A0968C6
:104D0000C96A884204D9012501200849086000E0E9
:104D10000025284670BD00007C0000205C000020BB
:104D200020550020AC5500204400002068000020E1
:104D300070B500240026FFF77BFA2E480068401E5D
:104D40002C4908600846006800284ED12A480068AF
:104D500000284AD023E02948C068C46804F118003C
:104D6000FFF71AFA201DFFF717FA2549E06A0968CC
:104D7000884202D92249E06A0860E16A01EB8101B8
:104D8000204A02EB8100211DFFF745FA1E49E06A27
:104D90000968C96A884202D301201C490860174883
:104DA000006808B9012000E000200028D3D00CB131
:104DB000FEF7E4FF1648056865B100BFFFF7C6FEC1
:104DC00010B10120114908606D1E002DF6D10020A0
:104DD0000F4908600D48006838B1012630070D49B9
:104DE0000860BFF34F8FBFF36F8FFFF733FA304682
:104DF00070BD00007C00002054000020AC55002055
:104E00005C000020205500204400002068000020A5
:104E10006400002004ED00E01CB50024FEF70EFD48
:104E20000748006850B10748032100238022CDE9DC
:104E3000001005A10648FFF743FE044620461CBDAE
:104E4000880000208C000020546D7220537663008F
:104E5000773E00082DE9FE4305460C4616461F46E0
:104E6000DDF828804FF000091448006810B3009462
:104E700001960295062C15DAFFF752FE022808D19A
:104E80000023424669460D480068FFF7DFFC814673
:104E900010E000231A46694608480068FFF7D6FC70
:104EA000814607E000233A46694604480068FFF758
:104EB00059FD81464846BDE8FE8300008800002079
:104EC0000000000000000000000000DFDF00000024
:104ED00000070700070700002424FF24FF24240004
:104EE0000000000000000000006333180C6663003F
:104EF00060F69F899F76D800000000070700000039
:104F0000003C7EC381810000008181C37E3C0000A3
:104F1000082A1C7F1C2A08000018187E7E1818001A
:104F2000000080E060000000001818181818180031
:104F300000000060600000000000C0F03C0F0300B3
:104F40003E7F71594D7F3E0040427F7F40400000D0
:104F5000627359496F660000226349497F36000039
:104F6000181C16537F7F5000276745457D39000088
:104F70003C7E4B4979300000030371790F07000034
:104F8000367F49497F360000064F49693F1E0000C1
:104F900000000066660000000000806666000000F9
:104FA0000000081422410000002828282828280092
:104FB0000000412214080000000203696D0702008E
:104FC00000000000000000007C7E13137E7C0000C7
:104FD000417F7F49497F36001C3E63414163220087
:104FE000417F7F41633E1C00417F7F495D416300FB
:104FF000417F7F491D0103001C3E634151737200D4
:105000007F7F08087F7F000000417F7F4100000014
:10501000307040417F3F0100417F7F081C77630073
:10502000417F7F41406070007F7F0E1C0E7F7F00BC
:105030007F7F060C187F7F001C3E6341633E1C008F
:10504000417F7F49090F06001E3F21717F5E0000EE
:10505000417F7F09197F6600266F4D59733200002A
:1050600003417F7F410300003F7F60607F3F00007E
:105070001F3F60603F1F00007F7F3018307F7F0040
:1050800063673C183C676300074F78784F07000060
:10509000476371594D677300000000000000000075
:1050A0000000000000000000000000000000000000
:1050B00000000000000000000000000000000000F0
:1050C0000000000000000000207454543C784000B0
:1050D000417F3F4848783000387C44446C280000C9
:1050E000307848493F7F4000387C54545C180000B9
:1050F000487E7F49030200004C5E52527C3E020013
:10510000417F7F08047C780000447D7D40000000E2
:10511000307040407D3D0000417F7F10386C44007E
:1051200000417F7F400000007C7C18381C7C7800A8
:105130007C7C04047C780000387C44447C3800008B
:1051400044787C54141C0800081C1454787C4000DB
:10515000447C784C041C1800485C545474240000AF
:1051600000043E7F442400003C7C40403C7C4000E6
:105170001C3C60603C1C00003C7C7038707C3C0037
:10518000446C3810386C44004C5C50507C3C00003F
:105190004C64745C4C6400000000000000000000DF
:1051A00000000000000000000000000000000000FF
:1051B00000000000000000000000000000000000EF
:1051C00000000000000000000000000000000000DF
:1051D00000000000000000000000000000000000CF
:1051E00000000000000000000000000000000000BF
:1051F00000000000000000000000000000000000AF
:10520000000000000000000000000000000000009E
:10521000000000000000000000000000000000008E
:10522000000000000000000000000000000000007E
:10523000000000000000000000000000000000006E
:10524000000000000000000000000000000000005E
:10525000000000000000000000000000000000004E
:10526000000000000000000000000000000000003E
:10527000000000000000000000000000000000002E
:10528000000000000000000000000000000000001E
:10529000000000000000000000000000000000000E
:1052A00000000000000000000000000000000000FE
:1052B00000000000000000000000000000000000EE
:1052C00000000000000000000000000000000000DE
:1052D00000000000000000000000000000000000CE
:1052E00000000000000000000000000000000000BE
:1052F00000000000000000000000000000000000AE
:10530000000000000000000000000000000000009D
:10531000000000000000000000000000000000008D
:10532000000000000000000000000000000000007D
:10533000000000000000000000000000000000006D
:10534000000006090906000000000000000000003F
:10535000000000000000000000000000000000004D
:10536000000000000000000000000000000000003D
:10537000000000000000000000000000000000002D
:10538000000000000000000000000000000000001D
:10539000000000000000000000000000000000000D
:1053A00000000000000000000000000000000000FD
:1053B00000000000000000000000000000000000ED
:1053C0007C7E13137E7C0000417F7F494979330046
:1053D000417F7F49497F3600417F7F4101030300C0
:1053E000787E3733377E7800417F7F495D416300A7
:1053F00063147F7F14630000636349496B7F360049
:105400007F7F30180C7F7F007F7F301B0C7F7F00F9
:10541000417F7F081C776300607F1F037F7F41000F
:105420007F7F0E1C0E7F7F007F7F08087F7F00003C
:105430001C3E6341633E1C007F7F03037F7F0000AF
:10544000417F7F49090F06001C3E634141632200F2
:1054500003417F7F4103000063673C180C07030092
:105460001E527F7F521E000063673C183C6763003A
:105470003F3F20203F3F60000F1F18587F7F4000B4
:105480007F7F607F607F7F003F203F3F203F600045
:10549000017F7F48487830007F7F484878007F0050
:1054A0007F7F484878300000366349496B7F3E0073
:1054B0007F083E6341633E00667F19097F7F41009C
:1054C000207454543C784000307C4A4A7A310000C1
:1054D000447C7C5454280000447C7C440C0800002C
:1054E0006038343438600000387C54545C18000054
:1054F00044287C7C284400002E4454547C2800001E
:105500007C7C20107C7C00007C7C21117C7C000059
:10551000447C7C10386C440040780C047C7C400057
:10552000787C0810087C78007C7C10107C7C000063
:10553000387C44447C3800007C7C04047C7C000083
:1055400044787C54141C0800387C44446C280000C7
:1055500008447C7C440800004C5C50507C3C0000BB
:1055600008547C7C54080000446C3810386C4400AB
:105570003C3C203C3C6000001C10507C7C40000007
:105580007C407C407C0000003C203C203C600000D3
:10559000443C505070200000403C505020007C00A3
:1055A000403C505050200000284454543800000023
:1055B0007C10384444380000402814147C7C0000DF
:1055C000FEFEFEFEFE7E1E06061E7EFEFEFEFEFEAB
:1055D0007F5F47417C7870606070787C41475F7F77
:1055E000000106081020204040808040402020100C
:1055F000080601000000000000000000000000009C
:10560000000000000000000000000000000000009A
:10561000708000000000000000000000000000009A
:10562000000080700E01000000000000000000007B
:10563000000000000000010E00000000000000005B
:10564000000000000000000000000000000000005A
:105650000000000000806010080404020201010242
:105660000204040810608000000000000000000038
:10567000804030080402010000000000000000002B
:10568000000000000000000000000000000000001A
:10569000000102040830408000000000000000808B
:1056A000601008040201000000000000000000007B
:1056B00000000102040810608000000000000000EB
:1056C00000000000000000000000000000804020FA
:1056D00010080402020408102040800000000000AE
:1056E0000000000000000000FF00000000000000BB
:1056F0000000000000000000000000FF80808080AB
:105700008080808080808080808080808080808099
:10571000FF0000000000000000000000000000008A
:10572000000000FF0000000000000000000000007A
:105730000000000000000000FF0101010101010163
:105740000101010101010101010101FF000000004F
:105750000000000000000000000000000000000049
:10576000DDDDDDDDDCBBBBDDDDDDDDDDDDDDDDDDAE
:1057700098888888888888887777777777888888EE
:105780008555555666666666666666666668888886
:105790008333333222222222222222222228888D7F
:1057A000C057000800000020A8000000582B000887
:1057B00068580008A8000020585F0000682B000807
:1057C00000000000000000000000000000000000D9
:1057D00000000000000000000000000000000000C9
:1057E00000000000000000000000000000000000B9
:1057F0000000000000000000F84F00000000000062
:10580000AAAAAAAA000000000000000000000000F0
:105810000000000000000000000000000000000088
:105820000000000000000000000000000000000078
:105830000000000000000000000000000000000068
:105840000000000000000000000000000000000058
:105850000000000000127A000000000000000000BC
:08586000000000000000000040
:04000005080000C12E
:00000001FF
