:020000040800F2
:10000000405600206D010008C90300082D020008B9
:10001000C503000819020008C11000080000000014
:10002000000000000000000000000000D5000008F3
:100030002302000800000000190100087D070008E5
:100040001D0200081F0200088B08000800000000C5
:1000500000000000870100088708000889080008E0
:10006000790700080000000031020008F9050008C7
:10007000C51000080000000081080008830800087F
:100080008508000815020008000000002102000891
:100090007B070008000000000000000000000000D6
:1000A000000000000000000000000000170200082F
:1000B0002502000827020008290200082B02000878
:1000C000DFF80CD000F094F800480047F512000863
:1000D00040560020224B19680868B0E8F00F80F302
:1000E0000988BFF36F8F4FF0000080F311884EF046
:1000F0000D0E70470000000006480068006880F39D
:10010000088862B661B6BFF34F8FBFF36F8F00DF11
:1001100000BF00BF08ED00E0EFF30980BFF36F8F71
:100120000F4B1A6820E9F00F106008B54FF0BF00C0
:1001300080F31188BFF34F8FBFF36F8F01F0F6FF8D
:100140004FF0000080F31188BDE808401968086886
:10015000B0E8F00F80F30988BFF36F8F704700BFDE
:100160002C000020EFF30580704700000648804710
:1001700006480047FEE7FEE7FEE7FEE7FEE7FEE78C
:10018000FEE7FEE7FEE7FEE741080008C1000008C1
:1001900040EA01039B0703D009E008C9121F08C009
:1001A000042AFAD203E011F8013B00F8013B521E89
:1001B000F9D27047421C10F8011B0029FBD1801AAC
:1001C000704730B50B46014600202022012409E08B
:1001D00021FA02F59D4205D303FA02F5491B04FA00
:1001E00002F52844151EA2F10102F1DC30BD000029
:1001F000064C074D06E0E06840F0010394E8070074
:1002000098471034AC42F6D3FFF75EFF1831000870
:10021000383100087047704700BFFEE770477047ED
:1002200070477047704770477047704700BFFEE7E0
:10023000704700000EB50121880500F08DFA0121FC
:10024000C80500F089FA0121480600F085FA5548F2
:100250005549086004204860012008720020487257
:1002600052485349086020204860012008724872B3
:10027000504851490860022048600120087200205F
:1002800048724A484D490860402048600120087281
:100290000020487247484A49086008204860012009
:1002A000087200204872684600F098F93E4880883D
:1002B00080B2ADF8000001208DF80A0000208DF812
:1002C00008008DF802008DF803008DF8040036490F
:1002D0000868694600F07AF8684600F07FF934480B
:1002E000808880B2ADF8000001208DF80A0000205F
:1002F0008DF808008DF802008DF803008DF80400D9
:100300002B490868694600F061F8684600F066F914
:100310002948808880B2ADF8000001208DF80A00DD
:1003200000208DF808008DF802008DF803008DF88C
:10033000040021490868694600F048F8684600F062
:100340004DF91E48808880B2ADF8000001208DF87C
:100350000A0000208DF808008DF802008DF80300D7
:100360008DF8040015490868694600F02FF86846C2
:1003700000F034F91248808880B2ADF80000012006
:100380008DF80A0000208DF808008DF802008DF825
:1003900003008DF804000A490868694600F016F861
:1003A0000EBD000000800B408400002000000B40C8
:1003B0009C00002000800C40B4000020CC000020F5
:1003C000E400002000BFFEE7704700002DE9FE4F6B
:1003D0004768D0F808C0D0F80C80D0F81090D0F85A
:1003E00014A0CDF808A0D0F818A0CDF804A0D0F83B
:1003F0001CA0CDF800A00022012303254FF0011618
:100400000C885FE004F0010ABAF1000F55D027EA2A
:10041000030A91F802B00BFA02FB4AEA0B0791F8C3
:1004200008A04FEA420B0AFA0BFA2CEA050B4AEA3B
:100430000B0C28EA030A91F80AB00BFA02FB4AEA0D
:100440000B0829EA060A91F803B002F1100E0BFA24
:100450000EFB4AEA0B0A91F804B00BFA02FB4AEAD7
:100460000B09DDF808A02AEA060A91F805B00BFA94
:100470000EFB4AEA0B0A91F806B00BFA02FB4AEAB5
:100480000B0ACDF808A091F809A04FEA420B0AFA2E
:100490000BFADDF804B02BEA050B4AEA0B0ACDF89B
:1004A00004A0DDF800A02AEA030A91F807B00BFACD
:1004B00002FB4AEA0B0ACDF800A05B00AD00760013
:1004C000521C6408002C9DD1DFF8C4A0504502D115
:1004D0004FF01F0A01E04FF0000A27EA0A0AC0F8AD
:1004E00004A0DFF8ACA0504502D14FF01F0A01E094
:1004F0004FF0000A2CEA0A0AC0F808A0DFF890A022
:10050000504502D14FF01F0A01E04FF0000A28EADF
:100510000A0AC0F80CA0DFF878A0504502D14FF0CD
:100520001F0A01E04FF0000A29EA0A0AC0F810A0E9
:10053000DFF85CA0504502D14FF01F0B01E04FF0F7
:10054000000BDDF808A02AEA0B0AC0F814A0DFF8B7
:1005500040A0504502D14FF01F0B01E04FF0000BBF
:10056000DDF804A02AEA0B0AC0F818A0DFF820A0E2
:10057000504502D14FF01F0B01E04FF0000BDDF8AA
:1005800000A02AEA0B0AC0F81CA0BDE8FE8F0000FC
:1005900000000C40024613680B400BB1012000E044
:1005A000002070470268054B984201D11F2300E0EC
:1005B00000230B439A4302607047000000000C4088
:1005C0000268054B984201D11F2300E000239A43A3
:1005D0000A4302607047000000000C404FF6FF71B4
:1005E000018000218170C170017141718171C171FF
:1005F00001724172817270477047000001490860C2
:10060000704700008800404210B502460C4BD86885
:1006100020F003001043D860586820F4706040EA6E
:1006200001205860074B1B6843B10123054C241D72
:1006300023600023034C883CC4F88C3010BD0000BC
:10064000000002408800404238B50020009000BF02
:10065000212000F02FF805460098401C00900098DB
:10066000B0F5C06F01D2002DF2D0212000F022F8A9
:1006700008B1012400E00024204638BD014908608B
:1006800070470000880140420146044AD06820F0CB
:10069000F00040EA0110D060704700000000024006
:1006A0000146034AD06820F440700843D060704788
:1006B0000000024010B5014601F0E003202B02D1FA
:1006C000074B1A6801E0074BDA6B01F01F040123A6
:1006D000A34013400BB1012000E0002010BD00003A
:1006E0000000024000800D400D49896821F003019F
:1006F0000B4A9160012802D002280ED106E0084979
:10070000896841F00101064A916007E0044989685F
:1007100041F00301024A916000E000BF00BF704752
:100720000000024038B50020009000BF2220FFF7F3
:10073000C1FF05460098401C00900098B0F5C06FBE
:1007400001D2002DF2D02220FFF7B4FF08B101241E
:1007500000E00024204638BD29B1064AD269024390
:10076000044BDA6104E0034AD2698243014BDA6147
:1007700070470000000002407047704710B500BF8E
:10078000BF2080F31188BFF34F8FBFF36F8F00BF7F
:1007900001F070FF18B14FF080500449086000BFAD
:1007A000002080F3118800BF10BD000004ED00E0C0
:1007B00030B5204CE46804F00204022C01D11E483C
:1007C00000E01D481B4CE46804F0010404B140083B
:1007D0000146184CE46804F00404042C05D1154CBF
:1007E0006468C4F30324631C5943124CE468C4F3E3
:1007F000012424B1012C06D0022C13D10DE00E4CA3
:100800000E4D2C6013E00B4CE468C4F30314641C1D
:10081000B1FBF4F2094C226009E04FF40044074DAB
:100820002C6004E049F64044044D2C6000BF00BF3A
:1008300030BD00000000024000127A00800000205D
:1008400000B50D480D49C8610846C0680020C86061
:10085000084640680020486008468068002088609C
:100860000846006900200861084640690020486188
:10087000FFF79EFF00BD00001000000800000240CE
:1008800070477047704770477047704710B5002039
:10089000084908700846007800F010F8064908601A
:1008A0000846006820B103210348006800F0E6F91B
:1008B00010BD0000000000200C000020014631B1F6
:1008C000012906D0022906D0032908D105E005A098
:1008D000704706A0FCE707A0FAE708A0F8E70020A9
:1008E000F6E70000CFF3EDEAF2203000CFF3EDEAB7
:1008F000F2203100CFF3EDEAF2203200CFF3EDEA3F
:10090000F220330070B50546002404E0E1B2284629
:1009100000F004F8641C082CF8DB70BD70B50546C7
:100920000E463146284600F0FBFA0021284600F02A
:100930006DFA00240CE000BF284600F0BBF900F07F
:1009400080000028F8D10021284600F051FB641CEB
:10095000402CF0DB70BD08B5009000BF00994A1E26
:1009600000920029FAD108BD10B50446012C04D12B
:1009700080212C48FFF724FE04E04FF480712948C1
:10098000FFF71EFE01212848FFF70CFE4FF480619F
:100990002448FFF707FE0520FFF7DDFF23484068E6
:1009A00040F03F00214948602148406840F00C0079
:1009B0001F4948603F2000F091FA0520FFF7CBFF68
:1009C00002211948FFF7FCFD0520FFF7C4FF0221B3
:1009D0001548FFF7E7FD0520FFF7BDFF012112488D
:1009E000FFF7E0FD4FF480610E48FFF7DBFD0F4895
:1009F00040684FF6C07108400C4948600C48406898
:100A00004FF6F37108400A494860012C04D1802157
:100A10000448FFF7C7FD04E04FF480710148FFF779
:100A2000C1FD10BD00000B4000800B4000800A405B
:100A300000800E4008B500F053F800F02FF800BF1A
:100A4000012000F037F900F080000028F8D10120E3
:100A5000FFF78AFF00BF022000F02CF900F08000B1
:100A60000028F8D10220FFF77FFF0120FFF74AFF9F
:100A70000220FFF747FF01210648006800F0FEF85A
:100A800001200346002211460090034800F0B0F810
:100A900008BD00007C000020E830000810B54FF4CD
:100AA00000710E48FFF77EFDC820FFF754FF4FF49A
:100AB00000710A48FFF784FD0520FFF74CFF00BFD7
:100AC000012000F0F7F800F0900030B1022000F0B3
:100AD000F1F800F090000028F2D110BD00000B40AA
:100AE0000EB501211C48FFF737FE00208DF80300EA
:100AF0008DF804008DF805008DF806008DF80700CC
:100B00003F20ADF8000000208DF802008DF80800AD
:100B100001208DF80A0003208DF8090069460F486E
:100B2000FFF754FC0C20ADF8000069460C48FFF7B5
:100B30004DFC4FF4F060ADF8000001208DF802008C
:100B400069460848FFF742FC0320ADF800006946FB
:100B50000548FFF73BFC0EBD0000E02000800A4086
:100B600000800E4000000B4000800B402DE9F05F3C
:100B700005460C4691462046E11704EB5171C91019
:100B80004E1CCA462046E11704EB5171C910A4EB74
:100B9000C1014FEAC10B0AF0FF01F0B200F0C0F949
:100BA0000BF0FF01F0B200F031F9202D06DBFF2D34
:100BB00004DCA5F120004FEAC00801E04FF0000876
:100BC00047460DE000BFF0B200F074F800F080007E
:100BD0000028F8D1054AD15DF0B200F009FA7F1C77
:100BE00008F108008742EDDBBDE8F09FE829000826
:100BF0002DE9FF4F83B08046894692464FF0000BA7
:100C00004E4635E054462FE02046E11704EB517183
:100C1000C9104D1C0296E11704EB5171C910A4EBE9
:100C2000C101CA000192029EF1B2E8B200F078F967
:100C3000019AD1B2E8B200F0E9F800270FE000BF56
:100C4000E8B200F037F800F080000028F8D10BEB94
:100C5000070218F80210E8B200F0CAF97F1C082F4A
:100C6000EDDB0BF1080B641C10988442CCDD761C84
:100C700006988642C6DD07B0BDE8F08F70B5054620
:100C80000E46002408E0285D00B907E0285D3246E2
:100C90002146FFF76BFF641C102CF4DB00BF05E05E
:100CA000324621462020FFF761FF641C102CF7DB41
:100CB00070BD000070B504462C4840684FF6C07106
:100CC00008402A4948602A4840684FF6F3710840B6
:100CD00027494860012C04D180212648FFF770FC89
:100CE00004E04FF480712348FFF76AFC0121224899
:100CF000FFF758FC4FF480611E48FFF761FC0520A8
:100D0000FFF729FE02211C48FFF75AFC0520FFF7D8
:100D100022FE1648006800F03F0015490968C0220D
:100D200002EA011140EA01050520FFF714FE022145
:100D30001148FFF737FC0520FFF70DFE01210E4893
:100D4000FFF730FC4FF480610A48FFF72BFC012CC1
:100D500004D180210748FFF725FC04E04FF480719F
:100D60000448FFF71FFC284670BD000000800A40C1
:100D700000800E4000000B4000800B402DE9F04742
:100D800086B08046894617464046FFF713FA064666
:100D900000208DF8140016B906B0BDE8F08797FB67
:100DA000F6F006FB1077102E19DA002414E0E5198E
:100DB000102D06DB2846E91705EB11710911A5EB8B
:100DC0000115B54202DA18F805A001E04FF0200A3B
:100DD00001A800F804A0641C102CE8DB0FE000243C
:100DE0000BE0E519B54203DB95FBF6F006FB105569
:100DF00018F8050001A90855641C102CF1DB4946C0
:100E000001A8FFF73BFF00BFC6E7000070B504462E
:100E10000D46012C04D180212C48FFF7D1FB04E0C2
:100E20004FF480712948FFF7CBFB01212848FFF7D9
:100E3000B9FB4FF480612548FFF7B4FB0520FFF7AD
:100E40008AFD2448406840F03F002249486022481B
:100E5000406840F00C002049486045F0400000F038
:100E60003DF80520FFF777FD02211948FFF7A8FBA1
:100E70000520FFF770FD02211548FFF793FB0520C1
:100E8000FFF769FD134840684FF6C07108401149EB
:100E90004860114840684FF6F37108400E494860B9
:100EA00001210B48FFF77EFB4FF480610748FFF7F5
:100EB00079FB012C04D180210448FFF773FB04E087
:100EC0004FF480710148FFF76DFB70BD00000B40CF
:100ED00000800B4000800A4000800E400E490968E7
:100EE0004FF6C07211400C4A11601146096800F0BB
:100EF0003F021143084A1160084909684FF6F3722E
:100F00001140064A1160114609680C2202EA2012BB
:100F10001143024A1160704700800A4000800E4071
:100F200070B504460D46012C04D180212C48FFF7F2
:100F300047FB04E04FF480712948FFF741FB012192
:100F40002848FFF72FFB4FF480612548FFF72AFB65
:100F50000520FFF700FD2448406840F03F0022498B
:100F600048602248406840F00C002049486045F045
:100F7000B800FFF7B3FF0520FFF7EDFC0221194889
:100F8000FFF71EFB0520FFF7E6FC02211548FFF7DF
:100F900009FB0520FFF7DFFC134840684FF6C071DE
:100FA000084011494860114840684FF6F371084005
:100FB0000E49486001210B48FFF7F4FA4FF48061B5
:100FC0000748FFF7EFFA012C04D180210448FFF70E
:100FD000E9FA04E04FF480710148FFF7E3FA70BDCD
:100FE00000000B4000800B4000800A4000800E4053
:100FF00070B504460D46012C04D180212C48FFF722
:10100000DFFA04E04FF480712948FFF7D9FA012193
:101010002848FFF7D5FA4FF480612548FFF7C2FA58
:101020000520FFF798FC2448406840F03F00224923
:1010300048602248406840F00C002049486028463B
:10104000FFF74CFF0520FFF786FC02211948FFF748
:10105000B7FA0520FFF77FFC02211648FFF7A2FA36
:101060000520FFF778FC144840684FF6C07108402F
:1010700011494860114840684FF6F37108400F4924
:10108000486001210B48FFF78DFA4FF48061084852
:10109000FFF788FA012C04D180210548FFF782FA76
:1010A00004E04FF480710248FFF77CFA70BD000045
:1010B00000000B4000800B4000800A4000800E4082
:1010C00000BFFEE7704700000FB4084B10B504A93D
:1010D00002AA039800F01CF8044602A9002000F0C0
:1010E000C1F8204610BC5DF814FB00006512000832
:1010F00002E008C8121F08C1002AFAD170477047E1
:10110000002001E001C1121F002AFBD1704700003E
:101110002DE9FF4F89B09B460446002506E02528AF
:101120000BD05A460B999047641C6D1C2078002800
:10113000F5D10DB02846BDE8F08F0027B846012252
:10114000474900E0074314F8013F203B02FA03F04F
:101150000842F7D120782E2819D114F8010F47F052
:1011600004072A280ED06FF02F022078A0F130015A
:1011700009290CD808EB880102EB410100EB0108BA
:10118000641CF2E70A98641C50F8048B0A902078DB
:101190000028CED0642808D0692806D075281ED033
:1011A0005A460B9990476D1C58E00A994FF00A096E
:1011B00001C90A91002802DA40422D2102E03905D6
:1011C00004D52B218DF82010012103E0F90704D06C
:1011D0002021F7E78A4608AE0DE00021FAE70A99D8
:1011E0004FF00A0901C90A91F7E74946FEF7E9FFFE
:1011F000303106F8011D0028F7D1ADEB060000F1F3
:101200002009780701D44FF00108C84502DDA8EB9A
:10121000090000E000208046002706E008A85A46A2
:10122000C05D0B9990476D1C7F1C5745F6DB04E0B1
:1012300030205A460B9990476D1CB8F10001A8F177
:101240000108F5DC05E016F8010B5A460B999047AA
:101250006D1CB9F10001A9F10109F4DC641C65E71A
:10126000092801000A68531C0B601070704710B504
:101270000446207A012806D002280FD0032816D071
:1012800004282FD11FE0D4E90001FFF783F920B92A
:101290000220207201F0E8F9E06023E001F0E4F9B7
:1012A000E168401A142801D9032020721AE0D4E919
:1012B0000001FFF76FF9012804D10420207201F02A
:1012C000D3F920610EE001F0CFF92169401A14280A
:1012D00007D901202072D4E90310401A606101206F
:1012E000607200BF00BF607A10BD10B500F0B1FCA5
:1012F00010BD00001CB5FFF7F8FFFEF79BFFFFF7DE
:1013000099FBFFF7C3FA0020022103468022CDE9B2
:10131000001009A10A4801F067F9002001210346E5
:101320008022CDE9001007A1084801F05DF900F026
:10133000BDFE00201CBD00005461736B3100000035
:10134000291D00085461736B32000000451F00081E
:101350002DE9F04105460E46164807681648006814
:10136000001D00F096FC681C38B936B112480168BF
:10137000091D124800F0CCFC1AE07C190E480068E8
:101380004460BC4207D20C480168091D0C48006843
:1013900000F0A4FC0CE008480168091D0948006839
:1013A00000F09CFC08480068844201D206480460B2
:1013B000BDE8F081400000202C00002000520020F9
:1013C00034000020300000205C00002010B50446EE
:1013D00000F030FD22480068401C21490860214887
:1013E000006840B91F4804600846006801280DD114
:1013F00000F0AAF90AE01C48006838B919480068EA
:10140000C06AE16A884201D816480460174800683B
:10141000401C164908601649E06A0968884202D9EA
:101420001349E06A0860E16A01EB8101114A02EBAD
:101430008100211D00F06CFC00F00EFD0A480068E0
:1014400068B108480068C06AE16A884207D24FF074
:10145000805009490860BFF34F8FBFF36F8F10BDF5
:101460003C0000202C0000204800002058000020F4
:10147000440000204C51002004ED00E010B500F0C5
:10148000D9FC10480068D0B90F4800F017FC0F488D
:1014900000F014FC0C480E4908600C480D49086027
:1014A00000220C210A2000F097FE06490860084639
:1014B000006820B108A10348006800F007FD00F0B3
:1014C000CBFC10BD700000201452002028520020D8
:1014D000680000206C000020546D72510000000074
:1014E00070B523E000F01AFE1348006808B9012027
:1014F00000E00020054601F0AFF9BDB900F09AFC0C
:101500000D48C068C468201D00F0C3FB0B4800688C
:10151000401E0A4908600A480068401E08490860E1
:1015200000F09AFC204600F060F800BF0448006814
:101530000028D7D170BD0000EC5100203C000020F5
:101540003800002070B504460D46206C70B1216C47
:10155000E0680844E0606168E068884201D3206880
:10156000E0602846226CE168FEF712FE70BD2DE9AE
:10157000F04104460F4615464FF00008A66B206C5C
:1015800040B9206860BB606801F0F6F88046002032
:10159000606025E07DB93946226CA068FEF7F8FD51
:1015A000216CA0680844A060D4E90110884217D3D8
:1015B0002068A06014E03946226CE068FEF7E8FD80
:1015C000216CE068401AE0602168E068884203D23C
:1015D000216C6068401AE060022D01D106B1761ED0
:1015E000701CA0634046BDE8F08110B50446206B36
:1015F00000F042FC204600F03FFC10BD0146084AC6
:10160000126812680AB9012200E000220A600A6822
:1016100022B9034A1268D268106800E000207047BF
:10162000680000200A4A22F007000A4A10600022DF
:10163000084B5A6044F6F872074B5A6000221A6051
:10164000014644F6F8724A601A460A607047000084
:1016500004010020100000201800002000BFFFF748
:101660003FFF07480068012807D94FF0805005491F
:101670000860BFF34F8FBFF36F8F00F01EFBEEE7E4
:101680004C51002004ED00E02DE9F04106460D46E6
:1016900017469846069C0DB9246000E02760E66373
:1016A00025640121204600F061FEBDE8F0812DE9AE
:1016B000FF5F80460F469146DDE90E6A109CA9F156
:1016C0000100216B01EB800B2BF0070B002507E0DD
:1016D000795D04F134004155785D00B902E06D1C7C
:1016E000102DF5D300BF002143200155052E00D356
:1016F0000426E66266640020A064201D00F0EBFA78
:1017000004F1180000F0E7FA2461C6F10500A061B9
:101710006462002505E0002104F14C0040F825102A
:101720006D1C052DF7D30020206684F86400414627
:101730005846039A00F078FA2060BAF1000F01D001
:10174000CAF80040BDE8FF9F10B5002407E004EB95
:1017500084010F4A02EB810000F0B0FA641C052CF2
:10176000F5D30C4800F0AAFA0B4800F0A7FA0B4892
:1017700000F0A4FA0A4800F0A1FA0A4800F09EFA24
:1017800004480949086004480849086010BD000081
:101790004C510020B0510020C4510020D8510020ED
:1017A000EC510020005200203000002034000020C6
:1017B0002DE9F04104460D4616461F464FF000083D
:1017C00065602461B5420CD8F01BA169884202D340
:1017D0004FF0010811E0211D0948006800F07EFA71
:1017E0000BE0BE4204D2BD4202D34FF0010804E038
:1017F000211D0448006800F071FA4046BDE8F08100
:101800006C0000206800002070B5054600F012FB57
:10181000A86B08B9012400E0002400F01DFB20465D
:1018200070BD70B5054600F005FBA86BE96B8842FA
:1018300001D1012400E0002400F00EFB204670BD21
:10184000F8B505460E4610480068C068C468201DFB
:1018500000F01FFAE069012811D1A06941192B4657
:1018600032462046FFF7A4FF48B1002003462A462F
:1018700001460090204601F081F8074600BF20464F
:10188000616A8847F8BD00006800002070B586B026
:101890004DE0039800284ADB059C606908B90120E7
:1018A00000E0002010B9201D00F0F3F902A800F0BC
:1018B0009FF8054603980A2837D2DFE800F00905AB
:1018C000072527320608262800BF00BF00BF00BF3B
:1018D0000498A269811803462A462046FFF768FF4C
:1018E00088B12046616A8847E06901280BD1002051
:1018F00000900498A169421800231946204601F07F
:101900003DF8064600BF11E000BF0FE000BF04989D
:10191000A061A06941192B462A462046FFF748FFDF
:1019200004E0204600F0A8FA00E000BF00BF00235A
:101930001A4603A90348006800F06AFC0028A8D1F1
:1019400006B070BD70000020F8B505460C4600F0EA
:10195000E5FB684600F04CF80646009820BB44B909
:10196000B54206D800F078FF31462846FFF768FFF9
:101970001CE03CB10E480068006808B9012000E096
:1019800000200446A91B22460A48006800F0B4FA69
:1019900000F062FF50B94FF0805007490860BFF374
:1019A0004F8FBFF36F8F01E000F056FFF8BD0000CE
:1019B0006C0000207000002004ED00E00A49096876
:1019C000096809B9012100E0002121B14FF0FF3180
:1019D000064A116006E004490968C968C868034AF4
:1019E0004168116070470000300000205C0000205A
:1019F00070B5044600F038FE054607480068854289
:101A000004D200F00BF80120206001E000202060EB
:101A100001480560284670BD780000202DE9F84394
:101A200026E01D480068C06805681B480068C0685B
:101A3000C468201D00F02DF92046616A8847E069DE
:101A4000012815D1A0694619AE4207D96660246104
:101A5000211D1148006800F041F909E0002003460B
:101A60002A4601460090204600F088FF804600BFCD
:101A700009480068006808B9012000E0002000283B
:101A8000CFD0054807680548006803490860034847
:101A90000760BDE8F8830000680000206C000020AB
:101AA00000BFBF2080F31188BFF34F8FBFF36F8F4C
:101AB00000BF00BFFEE708B500BF6846FFF79EFD08
:101AC000044620460099FFF73FFFFFF7DFFEF4E7EB
:101AD00070B5044600F0AEF994F9455010E0606A24
:101AE00008B9012000E0002038B904F1240000F01A
:101AF00073FE18B100F05EFA00E003E0681E45B224
:101B0000002DECDC00BFFF2084F8450000F0A4F9B4
:101B100000F090F994F9445010E0206908B90120D0
:101B200000E0002048B904F1100000F055FE08B1B3
:101B300000F040FA681E45B200E001E0002DECDC48
:101B400000BFFF2084F8440000F086F970BD00005B
:101B50002DE9F04104464FF0000800F0DFFA264876
:101B6000006820B9FFF75EFD01202349086044B1F9
:101B7000083404F0070020B104F00700C0F10800A9
:101B80000444002C32D044F6F87084422ED21B4F0D
:101B90003846056801E02F462D686868A04202D2E9
:101BA00028680028F7D1164885421FD0386800F110
:101BB0000808286838606868001B102810D92E199A
:101BC0006868001B70606C6071680C4800E0006819
:101BD000026852688A42FAD302683260066000BF27
:101BE000084968680968081A0649086000F034FE68
:101BF0004046BDE8F08100002400002010000020D5
:101C000018000020200000200648006830B1054977
:101C1000096801F14800896C491C016001480068AD
:101C2000704700002C000020001F4FF080730360FD
:101C3000001F21F001030360001F034B03601438F1
:101C40000260203870470000A11A0008002141728C
:101C5000704710B50120FEF747FDFEF763FD012830
:101C600014D109210220FEF7CFFC0120FEF7C6FCAB
:101C7000FEF7EAFC012809D10020FEF705FD01204E
:101C8000FEF7FCFC4FF48070FEF70AFDFEF790FDB6
:101C900010BD01460A69D1E901309860D1E901031C
:101CA00058605068884201D18868506000200861FF
:101CB0001068401E106010687047704700F10801FE
:101CC00041604FF0FF31816000F10801C1600161A6
:101CD00000210160704700210161704710B5024684
:101CE0000B685C1C0CB9106907E002F1080000E009
:101CF0004068446824689C42FAD944684C604C6847
:101D0000A160886041600A611468641C146010BDA1
:101D100042684A6093688B6093685960916008617B
:101D200003685B1C036070471FB500F09DFC00BF9B
:101D30005CE0142000F024F92D48FFF798FA012800
:101D40000CD12B48FFF782FF29482AA14269684637
:101D5000FFF7BAF903216846FEF790FF2748FFF71F
:101D600086FA01280CD12548FFF770FF234824A1EB
:101D700042696846FFF7A8F903216846FEF77EFF2F
:101D80002148FFF774FA01280CD11F48FFF75EFFC6
:101D90001D481EA142696846FFF796F9032168466F
:101DA000FEF76CFF1B48FFF762FA01280CD11948B7
:101DB000FFF74CFF174818A142696846FFF784F9FE
:101DC00003216846FEF75AFF1648FFF750FA01282C
:101DD0000CD11448FFF73AFF124813A14269684634
:101DE000FFF772F903216846FEF748FFA1E70000FC
:101DF0009C0000205550202564000000B400002005
:101E0000444F574E20256400E40000204C454654C2
:101E100020256400CC000020524947485420256406
:101E2000000000008400002053454C454354202509
:101E30006400000000BFBF2080F31188BFF34F8F04
:101E4000BFF36F8F00BF03480068401C0149086062
:101E5000704700002800002006480068401E054921
:101E600008600846006820B9002080F3118800BF90
:101E700000BF70472800002070B506463546B6B151
:101E8000083D2C4600F04AF96168094800E0006806
:101E9000026852688A42FAD30268226004600549E7
:101EA0006068096808440349086000F0D5FC70BD0B
:101EB000100000202000002003484FF0E02148617E
:101EC00007200861704700007F38010002460020AB
:101ED0000BE0084B53F8303033B9064B43F8301061
:101EE00003EBC0035A6002E0401C0A28F1D300BF94
:101EF00070470000FC5000202DE9F04105460E46D9
:101F000017462C46FFF796FF94F94400401C10B981
:101F1000002084F8440094F94500401C10B90020CA
:101F200084F84500FFF798FFA06B28B93A46314680
:101F300004F1240000F054F82046FFF7C9FDBDE885
:101F4000F081000086B00024142208A101A8FEF749
:101F50001FF909E04FF47A7000F012F82246641C71
:101F6000062101A8FEF70AFFF4E70000576F726B25
:101F7000207769746820627574746F6E7300000056
:101F800070B50446002544B100F0C8F80021204691
:101F9000FFF7DEF900F060FC05463DB94FF08050D8
:101FA00003490860BFF34F8FBFF36F8F70BD000010
:101FB00004ED00E001200149086070475000002056
:101FC00070B505460C460548016818312846FFF7EC
:101FD00085FE01212046FFF7BBF970BD2C000020D3
:101FE00070B506460D46144606480168183130465D
:101FF000FFF78EFE0CB14FF0FF3521462846FFF764
:10200000A7F970BD2C00002070B505462C46002DA8
:1020100039D01D49E06A0968C96A884233D2A0698B
:1020200000F0004028B918480068C06AC0F10500F7
:10203000A061E16A01EB8101144A02EB8101606950
:10204000884201D1012000E00020C0B1201DFFF72F
:1020500020FE0D480068C06AE0620D49E06A096828
:10206000884202D90A49E06A0860E16A01EB81010D
:10207000064A02EB8100211DFFF74AFE03E00248F9
:102080000068C06AE06270BD2C0000204C51002046
:102090004400002003490968016003490968416060
:1020A0007047000054000020400000201CB5144878
:1020B00000210B468022CDE9001012A1134800F048
:1020C00093FA0446012C02D100F03AFC0446012C9C
:1020D00014D100BFBF2080F31188BFF34F8FBFF32F
:1020E0006F8F00BF4FF0FF30094908600120094998
:1020F000086000200849086000F054F81CBD00008A
:102100006000002049444C45000000005D160008B6
:102110005C000020480000204000002002480068C9
:10212000401C01490860704764000020184800689E
:1021300018B101201749086028E0002015490860FF
:102140001548016800E0491E01EB8100134A52F86E
:10215000200008B9012000E000200028F3D101EBA5
:1021600081020E4B03EB820042685268426000F12C
:1021700008024368934202D1426852684260426852
:10218000D268074B1A600448016000BF7047000026
:102190006400002050000020440000204C5100202A
:1021A0002C00002010B50A48006840F47F00084960
:1021B00008600846006840F07F400860FFF77CFE3A
:1021C000002004490860FDF797FF002010BD0000C3
:1021D00020ED00E0280000202DE9F84307460D46D9
:1021E00090460DB9002601E007FB05F606F1480010
:1021F000FFF7AEFC044644B104F1480943464A46A1
:10220000294638460094FFF73FFA2046BDE8F88398
:102210002DE9FF4782B0054689461E464FF0000A69
:102220002C4600BFFFF706FED4F83880B8F1000F47
:102230003BD0E76849462046FFF784F9DEB9A8F1AC
:102240000100A063206810B9FFF7DEFC6060206920
:1022500008B9012000E0002008BB04F1100000F0E4
:10226000BBFAE0B14FF080503F490860BFF34F8F99
:10227000BFF36F8F13E0E760606A08B9012000E0E8
:10228000002060B904F1240000F0A6FA38B14FF044
:10229000805035490860BFF34F8FBFF36F8FFFF752
:1022A000DBFD012006B0BDE8F087049818B9FFF700
:1022B000D3FD0020F6E7BAF1000F04D16846FFF71E
:1022C000E9FE4FF0010AFFF7C7FDFFF727FFFFF711
:1022D000B1FD94F94400401C10B9002084F844007A
:1022E00094F94500401C10B9002084F84500FFF720
:1022F000B3FD04A9684600F049F940BB2046FFF74A
:1023000083FAF0B1206830B9FFF794FD6068FFF7F9
:102310007BFEFFF7A1FD04F124000499FFF750FEB6
:102320002046FFF7D5FB00F097FA00287FF47AAF3C
:102330004FF080500C490860BFF34F8FBFF36F8F91
:1023400070E72046FFF7C4FB00F086FA6AE72046F4
:10235000FFF7BEFB00F080FA2046FFF755FA002891
:10236000EED000209EE7000004ED00E070B50546C9
:102370000E462C46FFF75EFDD4E90F12206801FBE4
:10238000020060600020A0632068A060E06B401E37
:10239000226C216800FB0210E060FF2084F84400FA
:1023A00084F845009EB9206908B9012000E00020AA
:1023B000A8B904F1100000F00FFA80B14FF080507E
:1023C00009490860BFF34F8FBFF36F8F07E004F137
:1023D0001000FFF773FC04F12400FFF76FFCFFF718
:1023E0003BFD012070BD000004ED00E02DE9FF433E
:1023F00083B0074688461D464FF000093C4600BFA3
:10240000FFF718FDA06BE16B884201D3022D28D1A4
:102410002A4641462046FFF7AAF80646606A08B9F0
:10242000012000E0002068B904F1240000F0D4F994
:1024300088B14FF0805032490860BFF34F8FBFF32F
:102440006F8F08E03EB14FF080502D490860BFF318
:102450004F8FBFF36F8FFFF7FFFC012007B0BDE880
:10246000F083059818B9FFF7F7FC0020F6E7B9F1FB
:10247000000F04D101A8FFF70DFE4FF00109FFF78F
:10248000EBFCFFF74BFEFFF7D5FC94F94400401C32
:1024900010B9002084F8440094F94500401C10B99C
:1024A000002084F84500FFF7D7FC05A901A800F03B
:1024B0006DF8F0B92046FFF7B4F9A0B104F11000AF
:1024C0000599FFF77DFD2046FFF702FB00F0C4F9F8
:1024D000002895D14FF0805009490860BFF34F8F15
:1024E000BFF36F8F8CE72046FFF7F2FA00F0B4F9E4
:1024F00086E72046FFF7ECFA00F0AEF90020ADE7E2
:1025000004ED00E02DE9F05F05468A4616461F46B9
:102510002C4600BFBF21EFF3118081F31188BFF378
:102520004F8FBFF36F8F00BF8146A06BE16B884276
:1025300001D3022F20D194F945B03A4651462046A6
:10254000FFF715F80BF1010070B9606A08B90120B6
:1025500000E0002068B904F1240000F03DF940B12A
:102560003EB10120306004E00BF1010040B284F87C
:1025700045004FF0010801E04FF0000800BF89F36B
:10258000118800BF4046BDE8F09F000070B50446CA
:102590000D46FFF74FFC124802682868401C08B936
:1025A000002619E00F4920680968884204D0606855
:1025B000904201D801260FE06068101A296888420D
:1025C00009D228686168511A401A28602046FFF72E
:1025D00061FD002600E00126FFF73EFC304670BD9D
:1025E00040000020540000202DE9FF4F85B08046B8
:1025F00089461746DDE912ABB800FFF7A9FA06468F
:1026000056B16820FFF7A4FA04460CB1266304E033
:102610003046FFF731FC00E000247CB10020CDE91A
:1026200000ABCDE902403A4649464046089BFFF7D9
:102630003EF82046FEF7CAFE012501E04FF0FF35C7
:10264000284609B0BDE8F08F0549096809B901209D
:1026500005E00449096809B9022000E0002070473C
:10266000480000206400002001490868704700000D
:10267000400000202DE9F041002734480068002880
:1026800057D133480068451C314805608DB9314841
:10269000D0F80080304800682E4908602E48C0F805
:1026A00000802E480068401C2C490860FFF786F91E
:1026B00000BF2B48006885423AD300BF2548006818
:1026C000006808B9012000E0002020B14FF0FF3081
:1026D000234908602BE01F480068C068C46866682A
:1026E000B54202D21E48066021E0201DFFF7D1FA54
:1026F000A06A18B104F11800FFF7CBFA1949E06A93
:102700000968884202D91749E06A0860E16A01EB6A
:102710008101154A02EB8100211DFFF7F9FA1349E7
:10272000E06A0968C96A8842C8D30127C6E700BFC2
:1027300004E00F480068401C0D4908600D4800681F
:1027400000B101273846BDE8F08100006400002098
:102750004000002030000020340000205400002001
:102760005C000020440000204C5100202C00002080
:102770004C0000205000002070B505462C46002675
:102780001DB3A06C401EA064616CE06A88421CD03E
:10279000A06CD0B9201DFFF77CFA606CE062E06AA3
:1027A000C0F10500A0610A49E06A0968884202D9BF
:1027B0000749E06A0860E16A01EB8101054A02EB22
:1027C0008100211DFFF7A4FA0126304670BD0000EC
:1027D000440000204C51002070B50646F068C468E3
:1027E00004F11800FFF755FA15480068A0B9201D3C
:1027F000FFF74FFA1349E06A0968884202D9114984
:10280000E06A0860E16A01EB81010F4A02EB810096
:10281000211DFFF77DFA04E004F118010B48FFF7D2
:1028200077FA0B49E06A0968C96A884204D9012528
:1028300001200849086000E00025284670BD00001E
:1028400064000020440000204C510020D85100209A
:102850002C0000205000002070B500240026FFF757
:10286000E9FA2E480068401E2C49086008460068B6
:1028700000284ED12A48006800284AD023E0294881
:10288000C068C46804F11800FFF703FA201DFFF7C1
:1028900000FA2549E06A0968884202D92249E06ABB
:1028A0000860E16A01EB8101204A02EB8100211DF1
:1028B000FFF72EFA1E49E06A0968C96A884202D306
:1028C00001201C4908601748006808B9012000E091
:1028D00000200028D3D00CB1FFF770F81648056827
:1028E00065B100BFFFF7C6FE10B1012011490860B5
:1028F0006D1E002DF6D100200F4908600D480068BC
:1029000038B1012630070D490860BFF34F8FBFF380
:102910006F8FFFF7A1FA304670BD00006400002001
:102920003C000020D8510020440000204C510020E1
:102930002C000020500000204C00002004ED00E09E
:102940001CB50024FEF79AFD0748006850B10748FF
:10295000032100238022CDE9001005A10648FFF7DE
:1029600043FE044620461CBD700000207400002079
:10297000546D722053766300B71A00082DE9FE43A8
:1029800005460C4616461F46DDF828804FF0000924
:102990001448006810B3009401960295062C15DACD
:1029A000FFF752FE022808D10023424669460D482F
:1029B0000068FFF71BFD814610E000231A466946B8
:1029C00008480068FFF712FD814607E000233A46F9
:1029D000694604480068FFF795FD81464846BDE812
:1029E000FE830000700000200000000000000000D6
:1029F000000000DFDF0000000007070007070000FD
:102A00002424FF24FF242400000000000000000014
:102A1000006333180C66630060F69F899F76D800C8
:102A20000000000707000000003C7EC38181000019
:102A3000008181C37E3C0000082A1C7F1C2A0800FC
:102A40000018187E7E181800000080E0600000006A
:102A50000018181818181800000000606000000026
:102A60000000C0F03C0F03003E7F71594D7F3E00D7
:102A700040427F7F40400000627359496F6600000A
:102A8000226349497F360000181C16537F7F50008F
:102A9000276745457D3900003C7E4B497930000071
:102AA000030371790F070000367F49497F36000024
:102AB000064F49693F1E00000000006666000000E6
:102AC000000080666600000000000814224100003B
:102AD0000028282828282800000041221408000087
:102AE000000203696D070200000000000000000002
:102AF0007C7E13137E7C0000417F7F49497F360036
:102B00001C3E634141632200417F7F41633E1C00C4
:102B1000417F7F495D416300417F7F491D01030083
:102B20001C3E6341517372007F7F08087F7F000065
:102B300000417F7F41000000307040417F3F010035
:102B4000417F7F081C776300417F7F4140607000B8
:102B50007F7F0E1C0E7F7F007F7F060C187F7F001B
:102B60001C3E6341633E1C00417F7F49090F060004
:102B70001E3F21717F5E0000417F7F09197F660043
:102B8000266F4D597332000003417F7F41030000DF
:102B90003F7F60607F3F00001F3F60603F1F00007D
:102BA0007F7F3018307F7F0063673C183C6763008D
:102BB000074F78784F070000476371594D677300DE
:102BC0000000000000000000000000000000000005
:102BD00000000000000000000000000000000000F5
:102BE00000000000000000000000000000000000E5
:102BF000207454543C784000417F3F48487830006E
:102C0000387C44446C280000307848493F7F4000BD
:102C1000387C54545C180000487E7F490302000051
:102C20004C5E52527C3E0200417F7F08047C78005B
:102C300000447D7D40000000307040407D3D00003C
:102C4000417F7F10386C440000417F7F40000000CE
:102C50007C7C18381C7C78007C7C04047C78000028
:102C6000387C44447C38000044787C54141C0800B0
:102C7000081C1454787C4000447C784C041C1800D8
:102C8000485C54547424000000043E7F4424000037
:102C90003C7C40403C7C40001C3C60603C1C000094
:102CA0003C7C7038707C3C00446C3810386C4400BC
:102CB0004C5C50507C3C00004C64745C4C640000E4
:102CC0000000000000000000000000000000000004
:102CD00000000000000000000000000000000000F4
:102CE00000000000000000000000000000000000E4
:102CF00000000000000000000000000000000000D4
:102D000000000000000000000000000000000000C3
:102D100000000000000000000000000000000000B3
:102D200000000000000000000000000000000000A3
:102D30000000000000000000000000000000000093
:102D40000000000000000000000000000000000083
:102D50000000000000000000000000000000000073
:102D60000000000000000000000000000000000063
:102D70000000000000000000000000000000000053
:102D80000000000000000000000000000000000043
:102D90000000000000000000000000000000000033
:102DA0000000000000000000000000000000000023
:102DB0000000000000000000000000000000000013
:102DC0000000000000000000000000000000000003
:102DD00000000000000000000000000000000000F3
:102DE00000000000000000000000000000000000E3
:102DF00000000000000000000000000000000000D3
:102E000000000000000000000000000000000000C2
:102E100000000000000000000000000000000000B2
:102E200000000000000000000000000000000000A2
:102E30000000000000000000000000000000000092
:102E40000000000000000000000000000000000082
:102E50000000000000000000000000000000000072
:102E60000000000000000000000006090906000044
:102E70000000000000000000000000000000000052
:102E80000000000000000000000000000000000042
:102E90000000000000000000000000000000000032
:102EA0000000000000000000000000000000000022
:102EB0000000000000000000000000000000000012
:102EC0000000000000000000000000000000000002
:102ED00000000000000000000000000000000000F2
:102EE00000000000000000007C7E13137E7C0000C8
:102EF000417F7F4949793300417F7F49497F3600CF
:102F0000417F7F4101030300787E3733377E7800AD
:102F1000417F7F495D41630063147F7F146300003C
:102F2000636349496B7F36007F7F30180C7F7F00D9
:102F30007F7F301B0C7F7F00417F7F081C77630001
:102F4000607F1F037F7F41007F7F0E1C0E7F7F000D
:102F50007F7F08087F7F00001C3E6341633E1C00AA
:102F60007F7F03037F7F0000417F7F49090F0600B9
:102F70001C3E63414163220003417F7F4103000007
:102F800063673C180C0703001E527F7F521E00002F
:102F900063673C183C6763003F3F20203F3F600071
:102FA0000F1F18587F7F40007F7F607F607F7F000A
:102FB0003F203F3F203F6000017F7F48487830003E
:102FC0007F7F484878007F007F7F48487830000046
:102FD000366349496B7F3E007F083E6341633E0094
:102FE000667F19097F7F4100207454543C7840006B
:102FF000307C4A4A7A310000447C7C5454280000DA
:10300000447C7C440C080000603834343860000094
:10301000387C54545C18000044287C7C2844000010
:103020002E4454547C2800007C7C20107C7C0000C2
:103030007C7C21117C7C0000447C7C10386C44003A
:1030400040780C047C7C4000787C0810087C780078
:103050007C7C10107C7C0000387C44447C38000070
:103060007C7C04047C7C000044787C54141C0800A4
:10307000387C44446C28000008447C7C44080000F0
:103080004C5C50507C3C000008547C7C5408000090
:10309000446C3810386C44003C3C203C3C600000E0
:1030A0001C10507C7C4000007C407C407C00000078
:1030B0003C203C203C600000443C5050702000000C
:1030C000403C505020007C00403C505050200000BC
:1030D00028445454380000007C1038444438000020
:1030E000402814147C7C0000FEFEFEFEFE7E1E06C0
:1030F000061E7EFEFEFEFEFE7F5F47417C7870600E
:103100006070787C41475F7F202020C0CE2022CC99
:10311000E8EBE0EDE4F02200383100080000002088
:1031200084000000F0100008BC310008840000207A
:10313000BC55000000110008000000000000000065
:10314000000000000000000000000000000000007F
:103150000000000000000000F84F00000000000028
:10316000AAAAAAAA000000000000000000000000B7
:10317000000000000000000000000000000000004F
:10318000000000000000000000000000000000003F
:10319000000000000000000000000000000000002F
:1031A000000000000000000000000000000000001F
:0C31B000000000000831000800127A0046
:04000005080000C12E
:00000001FF
